:020000040800F2
:1000000028D800202D040008F3850008A9820008E4
:10001000F1850008D91F0008C5BD000800000000D8
:100020000000000000000000000000003F04000885
:10003000992600080000000043040008F99A00080F
:100040004704000847040008470400084704000864
:100050004704000847040008470400084704000854
:100060004704000847040008470400086D21000801
:100070004704000847040008470400084704000834
:100080004704000847040008470400084704000824
:100090004704000847040008470400084704000814
:1000A0004704000847040008470400084704000804
:1000B00047040008470400084704000847040008F4
:1000C00047040008470400084704000847040008E4
:1000D0009196000847040008470400086DA800082E
:1000E0004704000847040008000000004704000817
:1000F00047040008470400084704000847040008B4
:1001000047040008470400084704000847040008A3
:100110004704000847040008470400084704000893
:1001200047040008C12100084704000847040008EC
:100130004704000847040008470400084704000873
:1001400000000000000000000000000000000000AF
:100150004704000847040008470400084704000853
:100160004704000847040008470400084704000843
:1001700047040008470400080121000800000000AF
:100180004704000847040008470400084704000823
:100190004704000847040008470400084704000813
:1001A0004704000847040008470400084704000803
:1001B00047040008470400084704000847040008F3
:1001C00047040008470400084704000847040008E3
:1001D0004704000891870008470400084704000806
:1001E00047040008470400084704000847040008C3
:1001F00047040008470400084704000847040008B3
:1002000047040008470400084704000847040008A2
:100210004704000847040008470400084704000892
:1002200047040008470400084704000800000000D5
:1002300047040008470400080000000047040008C5
:100240004704000847040008470400084704000862
:100250004704000847040008470400084704000852
:100260004704000847040008470400084704000842
:100270004704000847040008470400080000000085
:100280004704000847040008470400080000000075
:10029000000000004704000800F002F800F0B6F883
:1002A0000AA090E8000C82448344AAF10107DA45D1
:1002B00001D100F0ABF8AFF2090EBAE80F0013F06D
:1002C000010F18BFFB1A43F001031847407B0400DD
:1002D000707B04000A444FF0000C10F8013B13F04F
:1002E000070408BF10F8014B1D1108BF10F8015B8F
:1002F000641E05D010F8016B641E01F8016BF9D182
:1003000013F0080F1EBF10F8014BAD1C0C1B09D1D8
:100310006D1E58BF01F801CBFAD505E014F8016B4A
:1003200001F8016B6D1EF9D59142D6D370470000DC
:100330000023002400250026103A28BF78C1FBD8EE
:10034000520728BF30C148BF0B6070476E2900F0CC
:100350002C85702900F08D86662913F06884652944
:1003600013F06584672913F06284612913F06184B6
:1003700003681B0A28BF41F08001692900F0AC81A5
:10038000642900F0A981752900F0A6816F2900F089
:100390001B86782900F05986E92900F0B585E42903
:1003A00000F0B285F52900F0AF85EF2900F018863E
:1003B000F82900F058860368DB0928BF41F0800166
:1003C000632900F03685732900F03B85E32901F0AD
:1003D0005982F32901F05E82002070471FB513F0A7
:1003E00019FC9DE8030000F00DFC00F051FE040034
:1003F0000020002113F0E2FB401C6060002000217F
:1004000013F0F2FBE0601FBD10B510BD01F072FAF1
:100410001146FFF7E3FF10F0D7FB01F043FB03B4F5
:10042000FFF7F2FF03BC01F073FB000009488047AF
:1004300009480047FEE7FEE7FEE7FEE7FEE7FEE7C6
:10044000FEE7FEE7FEE7FEE704480549054A064BDE
:1004500070470000199C00089902000828A8002095
:1004600028D8002028C8002028C8002070B50646DB
:1004700000F0A8FB056806F10B0020F00704B44269
:100480009CBF002070BD2B466A68BAB11068A042BC
:1004900010D304F1080188423CBF5068586007D36C
:1004A0005168101941601168091B0160586014609F
:1004B000101D70BD13465268002AE7D12146284618
:1004C00000F08CFB0028DED170BD70B50446051F1E
:1004D00000F078FB0068002C14BF446870BD002C4D
:1004E00018BFAC423CBF20466468F8D301680A18C4
:1004F000AA4218BF456003D12A680546114401602D
:1005000028684119A1421CBF6C6070BD61686960B8
:1005100021680844286070BD53EA020C00F069802D
:100520002DE9F04B4FF00006002B1FBFB3FA83F507
:1005300003FA05F424FA05F65E4012BF1643B2FA38
:1005400082F502FA05F4C5F120051EBF22FA05FC6A
:1005500044EA0C04203556EA044C4FEA144418BF10
:10056000641C4FF000084FF00009904271EB030C3F
:1005700039D3002919BFB1FA81F701FA07F6B0FAA9
:1005800080F700FA07F6C7F120071EBF20FA07FC24
:1005900046EA0C062037B6FBF4FCA7EB0507103F34
:1005A00007F01F0BCBF120062CFA06F60CFA0BFB1A
:1005B00044BFB3460026202FA4BF5E464FF0000B79
:1005C0005BEA060C08BF4FF0010B19EB0B0948EB77
:1005D0000608ABFB027C06FB02CC0BFB03CCC01B6A
:1005E00071EB0C01C1E70B46024641464846BDE8A7
:1005F000F08B13B54FF000004FF00001AFF3008017
:10060000BDE81C40704710B5044600F0D3FA0068FE
:10061000005D000704D5DF2C02D0A4F1200010BD3E
:10062000204610BD7CB51D4616460C00009001D03A
:100630002044401E074B7B442A46694601903046C1
:1006400000F0CDFB05461CB10020694600F0DAFB46
:1006500028467CBDD50700000FB41CB5084B06AA80
:100660007B4469460090059800F0B9FB04460020E1
:10067000694600F0C7FB20461CBC5DF814FB000077
:10068000A107000070B50C460546012A05D0287860
:10069000800600D5EA69002302E0012305E05B1C27
:1006A000934202D2E05C0028F9D1A869E618C01A8A
:1006B000A861286A18442862284600F0E4FA04E099
:1006C000D5E9012114F8010B9047B442F8D328462C
:1006D00000F0EFFA70BD00002DE9F041064600245D
:1006E00010687529314616A510D000F0F3FA0028DD
:1006F00002DA404213A507E031688A0701D512A546
:1007000002E0490704D511A5012401E000F0EBFA4D
:1007100000210A2206F1240709E0B0FBF2FCB0FB3D
:10072000F2F302FB1C00303078541846491C0028B4
:10073000F3D123462A463046BDE8F04100F0DCBA4A
:10074000000000002D0000002B0000002000000031
:100750002DE9F05F894604464FF0000ADFF874B1D6
:10076000FB44C0F820A02046E1688847002874D0E8
:10077000252806D0D4E901219047206A401C206238
:10078000F1E700265F462046E168884720280546B5
:1007900007DB312D05D2781910F8200C08B106437B
:1007A000F1E7B00701D526F00406C4F81CA0002725
:1007B000C4F818A02A2D09D0284613F0F7F938B349
:1007C00004EB8708303DC8F8185019E059F8041BAD
:1007D000204604EB87029161E1688847012F0546B6
:1007E00018D1E069002820DA26F020061DE0D8F8AC
:1007F000180000EB800005EB40003038C8F8180006
:100800002046E1688847054613F0D0F90028EED16C
:10081000012F0AD02E2D08D12046E16888477F1C81
:100820000546022F46F02006C4DBA069002803DA43
:10083000404246F00106A061F00701D026F0100604
:100840006C2D0BD0682D09D04C2D39D06A2D35D0A8
:10085000742D35D07A2D33D016E038E0E1682F467C
:1008600020468847B842054609D16C2F26D04FF460
:100870008060E168064320468847054604E06C2F07
:100880001AD04FF4807006430DB3A5F1410019282A
:1008900002D8203546F400664A462946204626609E
:1008A0004E46FFF753FD80B101280BD0F61D26F010
:1008B000070000F1080956E74020E4E78020D8E768
:1008C0000020D6E706F104094DE7284652E7206AE2
:1008D000BDE8F09FD234010010B5431C02E010F8CF
:1008E000011B71B18107FAD14FF0013202C88C1A95
:1008F0008C4314EAC211F9D0C01A0A0603D0C01EF4
:1009000010BDC01A10BD0A0401D0801E10BD09021E
:10091000FCD0401E10BD40EA010370B59B072ED1EC
:100920004FF00136042A2AD308C810C99D1B9D43E5
:10093000121F15EAC61517D0D8B2E1B2401A50EA14
:10094000056110D198B2A1B2401A50EA05410AD10E
:1009500023F07F4024F07F41401A50EA052102D164
:10096000180EA0EB146070BDA342DBD018BA21BAF8
:10097000884201D9012070BD4FF0FF3070BD0AB927
:10098000002070BD10F8013B11F8014B63B1A34288
:100990000AD1521E08D010F8013B11F8014B1BB1CF
:1009A000A34201D1521EEDD1181B70BD032A40F2A3
:1009B000308010F0030C00F0158011F8013BBCF101
:1009C000020F624498BF11F801CB00F8013B38BF19
:1009D00011F8013BA2F1040298BF00F801CB38BF27
:1009E00000F8013B11F0030300F02580083AC0F045
:1009F000088051F8043B083A51F804CBA0E80810ED
:100A0000F5E7121D5CBF51F8043B40F8043BAFF31F
:100A10000080D20724BF11F8013B11F801CB48BF79
:100A200011F8012B24BF00F8013B00F801CB48BFAF
:100A300000F8012B704710B5203AC0F00B80B1E8E8
:100A40001850A0E81850B1E81850A0E81850203A03
:100A5000BFF4F5AF5FEA027C24BFB1E81850A0E80C
:100A6000185044BF18C918C0BDE810405FEA827C26
:100A700024BF51F8043B40F8043B08BF7047D2073D
:100A800028BF31F8023B48BF11F8012B28BF20F8DE
:100A9000023B48BF00F8012B70474FF000020429C9
:100AA000C0F0128010F0030C00F01B80CCF1040C9D
:100AB000BCF1020F18BF00F8012BA8BF20F8022BD1
:100AC000A1EB0C0100F00DB85FEAC17C24BF00F877
:100AD000012B00F8012B48BF00F8012B70474FF0A5
:100AE000000200B5134694469646203922BFA0E87E
:100AF0000C50A0E80C50B1F12001BFF4F7AF09078A
:100B000028BFA0E80C5048BF0CC05DF804EB89007A
:100B100028BF40F8042B08BF704748BF20F8022BBD
:100B200011F0804F18BF00F8012B70470000000043
:100B300030B44FF0013C50F8042BCCFA52F451F889
:100B4000043BD51A20D1FCB950F8042BCCFA52F44E
:100B500051F8043BD51A17D1B4B950F8042BCCFA8C
:100B600052F451F8043BD51A0ED16CB950F8042B4D
:100B7000CCFA52F451F8043BD51A05D1002CDAD046
:100B800030BC4FF00000704729BAB1FA81F111F082
:100B90001801D1F120008440F2D1CA40CB4012F0BC
:100BA000FF0213F0FF0330BCD01A70477047704744
:100BB0007047000010B500F06BFA001D10BD00BFBB
:100BC000FD2F010000487047C80200200048704710
:100BD000C0020020704770477047704738B5044620
:100BE0000A4600206946AFF30080002808BF38BDE0
:100BF00002460099204600F04FFA012038BD01203E
:100C000000F070BEF8B5AFF30080054600200C463A
:100C1000102000BF0646A819A0420DD932466946E9
:100C20000020AFF30080070008BF00F05BFE0098D3
:100C3000A04218BF0546C419FFF7C4FF0560074668
:100C4000F01D20F007004619284600F00AF8B442CB
:100C500008BFF8BDA21B31463868BDE8F84000F077
:100C60001BBA00210160C0E90110704710207047D5
:100C700010B5FFF7ABFF006810BD10B50446FFF7D5
:100C8000A5FF046010BD70B5044685690068C10603
:100C900001D5302600E02026C00707D070BDD4E97A
:100CA000012130469047206A401C20626D1EF6D517
:100CB00070BD70B5044685690078C00707D170BD66
:100CC000D4E9012120209047206A401C20626D1E3B
:100CD000F6D570BD09684A0501D540B27047C9050F
:100CE000FCD500B2704709684A0501D5C0B270470B
:100CF000C905FCD580B270472DE9F0470D469946ED
:100D00009246044600F124080168880604D5E0698B
:100D100021F01001216000E00120A84201DD471B05
:100D200000E00027A1697A1902EB0900081AA06106
:100D30002078C00602D42046FFF7A5FF002608E071
:100D4000D4E901211AF806009047206A401C761C5D
:100D500020624E45F4DB2078C0060AD52046FFF716
:100D600092FF06E0D4E9012130209047206A401C20
:100D70002062381EA7F10107F4DC07E0D4E9012165
:100D800018F805009047206A401C2062281EA5F133
:100D90000105F3DC2046FFF78CFF2078000602D522
:100DA0000220BDE8F0870120FBE711680268006AB5
:100DB000530501D508700AE0D30501D5088006E087
:100DC000130603D5C217C1E9000200E00860012044
:100DD0007047000001694A1C02610878704700B53D
:100DE0008FB0CDE901310021059105497944CDE964
:100DF000031011466846FFF7ABFC0FB000BD0000C2
:100E0000E5FFFFFF0A6802F8010B0A607047D1E9AD
:100E100000239A4202D2531C0B601070704710B529
:100E2000436913B1AFF3008001E0FFF72BFC012011
:100E300010BD127800F124010A7000224A700122CC
:100E4000EDE711684FF0FF32E9E700002DE9FF5FA1
:100E500015468A460446DFF8AC80F8440027D8E9F6
:100E600000103E46CDE9001010E03AF816106A4630
:100E700002A800F013FD411C07D02178890603D594
:100E8000E269391891420DD80744761C2078800613
:100E900002D5E069B84205DDAE42E6DB3AF816005D
:100EA0000028E2D1A069C01BA0612046FFF7EBFE3D
:100EB000D8E90010CDE90010002017E03AF818102A
:100EC0006A4602A800F0EAFCB0F1FF3F81460BD071
:100ED00000250DF1080B05E0D4E901211BF8050000
:100EE00090476D1C4D45F7D308F10100B042804694
:100EF000E4DB206A384420622046FFF7DAFEBDE8D2
:100F0000FF9F0000EA2D01002DE9F0418046D21D2F
:100F100022F007020025D2E90002F52915A614D017
:100F2000011E72F1000106DA0023D0EB030063EB2F
:100F3000020211A608E0D8F800108B0701D50FA611
:100F400002E0490701D50EA601251146002408F14B
:100F5000240704E000F0BAF830323A55641C50EA35
:100F60000102F7D12B46324621464046BDE8F0410A
:100F7000FFF7C2BE000000002D0000002B000000A3
:100F80002000000030B4002100F1240408E002F049
:100F90000705D208303542EA4372DB086554491C24
:100FA00052EA0305F3D10468002310A2250708D5EF
:100FB00004F020040C4304D0C46901230CA2641E75
:100FC000C46130BCFFF798BE10B5044621461068D6
:100FD000FFF789FE02462046BDE810400023D1E716
:100FE000D21D22F00701D1E90023CBE70000000069
:100FF00030000000F0B40D460188090502D5214CEF
:101000007C4402E01F4C7C440E34002100F1240695
:1010100008E002F00F071209E75D42EA03721B09BC
:101020007754491C52EA0307F3D1027800231207D0
:1010300004D5702D06D009B1022311342246F0BC2C
:10104000FFF75ABE01231034F8E770B504460D4689
:1010500021461068FFF747FE024629462046BDE8B4
:1010600070400023C6E7D21D22F00703D3E9002316
:10107000C0E70368126843F0200303600823C361DC
:101080000023B7E74C2C010000487047C002002045
:1010900000487047E0020020034640688C46002864
:1010A00018BF88423CBF03464068F8D3186818440C
:1010B000884207D00CF1030020F00700001D411A00
:1010C000521A0146081D0A60FFF7FFB930B5B0F1AA
:1010D0000A0271F100034FEA900E4EEA817EB0EBF6
:1010E0000E0061EB91014FEA101E4EEA017E10EBFB
:1010F0000E0041EB11114FEA102E4EEA016E10EB7B
:101100000E0041EB11214FEA104E4EEA014E10EB5A
:101110000E0041EB1141401841F100014FEAD000AF
:1011200040EA41704FEAD1014FEA810444EA9074E9
:1011300010EB800544EB01046D1944EB0404521BD1
:10114000A3414FF0000348BF0A3200D530BD401C18
:1011500041F1000130BD2DE9FF4F0C461E464FF016
:10116000FF378BB0D2E90001DDF860800A908A4633
:10117000C1F30A5505B93D46002108464FF000006D
:10118000BAF1000F00F4400005DA00EB80004FF4E4
:10119000400101EA50004FEA9059B9F1010F00DD1A
:1011A000B9460A9850EA4A000ED044F61050A5F20B
:1011B000FF3545432F14B8F1000F1ED07542291E8C
:1011C0001EDDC9F100021CE0B8F1010F4FF0000074
:1011D00001D0302103E0F24305E02154401CB0422D
:1011E000FBDB30460022002121540B99C1F8088016
:1011F000C1E900200FB0BDE8F08FBD1B6D1CDEE71C
:101200004A4600DA694206A800F0DAFB06AB93E82A
:10121000070003AB83E8070050460A9911F0A4FECB
:101220008DE80700A0F500501F3800900398002DAE
:101230000ADD42F21F014A460844002303A9039035
:10124000684612F00DF909E0A0F500504A461F3833
:10125000002303A90390684612F017F98DE80700F0
:101260000004000C03D04FF0FF30410800E01046AE
:10127000B8F1000F03D00022009215461EE0751E43
:1012800005D4FFF723FF303262556D1EF9D5B34602
:101290000122084302D000227F1C04E0207830287D
:1012A00001D100227F1E002A099784D01DE0112D54
:1012B00007DAFFF70BFF303262556D1C50EA01026E
:1012C000F5D1084302D00098C8B10EE00021681E95
:1012D00005E0235C625C63542254401E491C814239
:1012E000F7DBAB46A81B401E0990002004F80B005A
:1012F0000B98099AC0F80880C0E9002B7AE71126FC
:101300004FF0000857E72DE9F04F88460446D21DFC
:1013100022F0070191B0D1E90001CDE90A0112F0F4
:10132000EBF902460B98C00F01D02D2007E0206892
:10133000810701D52B2002E0202101EAC000032A09
:10134000099001D0072A05DB03464146204600F0FC
:10135000F7FA0BE12078800601D5E06900E006206D
:10136000B8F1650F814606D0B8F1660F18D0B8F114
:10137000670F70D131E00020B9F1110F009001DB4F
:10138000112301E009F101030AAA01A90CA8FFF742
:10139000E2FEDDE90C70002609F10105834647E015
:1013A00001204B4600904FF000470AAA01A90CA863
:1013B000FFF7D1FEDDE90DB00C995D46002610B9AE
:1013C00009F101000D18B9EB050003D4C0F1FF3697
:1013D00009F10105A5EB09002BE0B9F1010F01DAD4
:1013E0004FF001090020B9F1110F0090484601DDCE
:1013F000112300E003460AAA01A90CA8FFF7ABFEDF
:10140000DDE90C704D4600268346207800070AD49B
:10141000AB4500DA5D4601A8012D04DD411911F844
:10142000011C302907D04F4502DA17F1040F04DA06
:10143000012082460FE06D1EEEE7002F02DCED1B5F
:101440003E4403E0781CA84200DD7D1CB81B00F17F
:10145000010A4FF000472078000703D4AA4501DBBA
:101460004FF0FF3A0021B7F1004F0DF143088DF81E
:10147000431024D002202B23002F01DA7F422D239A
:101480000A21021EA0F1010000DC5FB197FBF1FC14
:1014900097FBF1F201FB1C7C17460CF1300C08F8AD
:1014A00001CDEEE7A8F1010003702188090501D5FF
:1014B000452100E06521A0F1010800F8011C099810
:1014C0000FA9A1EB0807FF1D00B10120411901EB95
:1014D000EA70A1693844081A401EA0612078C0064D
:1014E00002D42046FFF7CFFB099828B1D4E90121A7
:1014F0009047206A401C20622078C00622D52046F2
:10150000FFF7C1FB1EE0002E04DBB34502DD01A89E
:10151000805D00E03020D4E901219047206A401C22
:101520002062761CAAF101005FEA000A0AD1FFF7E7
:10153000AFFDC0680168405CD4E901219047206A92
:10154000401C2062281EA5F10105DCDC07E0D4E97F
:10155000012118F8010B9047206A401C2062381EB8
:10156000A7F10107F3DC2046FFF7A3FB032011B02E
:1015700041E600002DE9F04F04460D46D21D22F051
:10158000070089B0D0E900974846394612F0B4F810
:101590000246F80F01D02D2307E02068810701D50E
:1015A0002B2302E0202101EAC0038DF820300BB18B
:1015B000012000E00020032A824601D0072A04DB34
:1015C0002946204600F0BCF93FE12078800601D48E
:1015D0000D2500E0E569C7F30A560D2D49DA002113
:1015E0004FEA175B08464FF00000002F00F4400060
:1015F00007DA00EB80004FF4400100EBD07001EA05
:1016000060008115012901DD4FF0FF3100224FEA12
:10161000850CBCF1180F06D31346ACF118004FF03F
:101620008052C24003E04FF4801323FA0CF30CF114
:101630000C0CBCF1200F04D3ACF1200C09FA0CF017
:1016400001E007FA0CF000294FF0004801DD18B95D
:101650000FE00ED140450CD319EB02095F4121B9CF
:10166000404502D19F4329EA0209BBEB175F00D036
:10167000761C2088000502D57B48784402E07A4831
:101680007844193808AA302302F80A30037C0AF19A
:101690000101002E0AF1020A53546A4602DC4FF09F
:1016A000300101E04FF031014FF001088DF80010DA
:1016B00002D0A6F2FF3603E059EA470100D06B4E94
:1016C000002D02DC2178090704D54FF002082E21F5
:1016D0008DF80110C44600210BE0C7F303433F011E
:1016E000C35C491C6D1E02F80830052908F1010889
:1016F00001DA002DF1DC00210CE000EB1973491C2C
:101700001B786D1E082902F808304FEA091908F104
:10171000010801DA002DF0DC21688B0602D516E005
:10172000A8F10108E04505DD02EB080313F8013CD0
:10173000302BF5D0B8F1000F09DD02EB080313F8E8
:10174000013C2E2B03D1090701D4A8F10108002D7B
:1017500005DD3E2102F808106D1E08F10108407CED
:10176000002E02F8080008F1010804DA2D20764264
:1017700002F8080002E02B2002F808000A214FF4CA
:101780007A70864208F101080BDB96FBF0F33033E8
:1017900002F8083096FBF0F308F1010800FB13662D
:1017A00001E0642E0CDB642096FBF0F3303302F88A
:1017B000083096FBF0F308F1010800FB136601E026
:1017C0000A2E06DB96FBF1F0303002F8080008F133
:1017D000010896FBF1F001FB1060303002F80800C0
:1017E000A16908F1010808EB050202EB0A00081ADA
:1017F000A0612078C00602D42046FFF744FA216A8F
:1018000008AE01EB0A00206204E0D4E9012116F8D9
:10181000010B9047BAF1010AF7D22078C00602D531
:101820002046FFF730FA6E4609E016F8010B3E2815
:101830000FD0D4E901219047206A401C2062B8F102
:101840000108F2D22046FFF734FA09B00320BDE8C0
:10185000F08F206A2844206203E0D4E9012130207F
:1018600090476D1EEBD3F8E72D26010002FCFFFF29
:1018700010B5436913B1AFF3008001E0FFF7E6FA5A
:10188000012010BD128800F1240182840022C2844C
:101890000122EDE711684FF0FF32E9E72DE9F04151
:1018A00016460C460546FFF785F9036893F80101D3
:1018B000012807D0FF2C12D8185D80B101202C70B0
:1018C000BDE8F081D3F807013246214603F2071341
:1018D000C7182846BC46BDE8F041002360474FF0DA
:1018E000FF30EDE710B500F0EBF8BDE8104000F078
:1018F000E2B870477546FFF7C7FBAE46050069467C
:10190000534620F00700854618B020B5FEF79CFD31
:10191000BDE820404FF000064FF000074FF00008F0
:101920004FF0000BAC46ACE8C009ACE8C009ACE82D
:10193000C009ACE8C00921F007018D4670470000DE
:101940002DE9F0411F46044603260168072A01F4E9
:10195000006004DB08B116A505E016A503E008B198
:1019600015A500E015A521F010002060A069C01E9B
:10197000A0610FB1401EA0612046FFF784F94FB16E
:10198000D4E9012138469047206A401C2062C01CDF
:10199000206206E0206AFAE7D4E9012115F8010B7C
:1019A0009047761EF8D22046FFF783F9BDE8F08114
:1019B0004E414E006E616E00494E4600696E6600F3
:1019C0002DE9F047814616468AB0354878440DC85F
:1019D0008DE80D0032487844801C03AC0DC884E8C3
:1019E0000D0041F69B300844372190FBF1F290FB4B
:1019F000F1F5A5F1800501FB12041B3C02D5644200
:101A0000012000E00020DFF898A080460027FA447B
:101A1000AAF1BE0A0EE0E0070AD03246684607EB9C
:101A2000470101230AEB810111F02FFD8DE807002A
:101A300064107F1C002CEED1194F7F44AE3F19E09B
:101A4000E80715D007EB04100DF1180A90E80E0016
:101A50008AE80E00C068F04201D198190890324619
:101A6000012306A903A811F010FD03AB83E80700CA
:101A70006D10641C002DE3D14FF00103324669461E
:101A8000B8F1000F03A802D011F0EAFC01E011F058
:101A9000FCFCC9E90001C9F808200AB0BDE8F087DC
:101AA0006C23010010B50446AFF300802046BDE86A
:101AB0001040FEF7B4BC002801D000F029B87047F0
:101AC00010B5012805D0002103A000F027F801205F
:101AD00010BD09A1F8E7000053494752544D454D48
:101AE0003A204F7574206F662068656170206D65BF
:101AF0006D6F7279000000003A2048656170206DBA
:101B0000656D6F727920636F7272757074656400B1
:101B100001491820ABBEFEE72600020070B505465D
:101B20000C460A2000E06D1C00F011F835B1287851
:101B30000028F8D102E0641C00F009F814B1207804
:101B40000028F8D1BDE870400A20AFF3008008B546
:101B500069468DF800000320ABBE08BD2DE9FE4F9D
:101B6000012840F0A981DFF854638021DFF8500399
:101B7000DFF85023B0600FF039F90021DFF848A3F7
:101B80000FF2483780464FF0000B4FF00009002558
:101B9000B8F1000F00F082818021029550460BF1D0
:101BA0000304FEF79CFF58FA84F50521284607F048
:101BB00095FF052228463946FEF7ADFE38B10622CC
:101BC0002846C4A1FEF7A7FE58B1032516E0C54874
:101BD0000BF10804CAF80300C348CAF80000002546
:101BE00008E00BF10904DFF8E0A20125BB48BC497D
:101BF000CAE900105046FEF76FFEB08058FA84F034
:101C000010F0FDFE032D064604F1030B01D1012562
:101C10004EE00196F6B2632E12D0A848C08A8642E2
:101C20000ED00225A54EDFF8A0A280215046FEF777
:101C300056FF022D37D1B08A012834D1022546E063
:101C400058FA8BF010F0DBFE9C4F5FFA80F9B888F1
:101C5000A6A1FA8A4B46DFF870A204F1060B5044A5
:101C600011F058F85046FEF737FEB8800027A24B17
:101C700000E00137072F18D813F837104945F8D17D
:101C800003EBC7014A68002A45D0052F4CD34B7897
:101C90009D4249D00525DFF830A28CA7802150460F
:101CA000FEF71DFF0BE0019E08E00425019E87A7BB
:101CB000DFF814A280215046FEF711FFF6B250461D
:101CC000009594A132464B4611F024F87B4E5046C5
:101CD000FEF702FE0104B08006D082B2934842F2C1
:101CE0001073514606F079FA70780130C1B2707005
:101CF000182900F2DA805FFA8BF0B268C8F180012F
:101D0000081A10446F4A81B258FA8BF00FF06EF83F
:101D1000804601213CE7DFF8B0A17CA11AFA80F0EF
:101D200010F0F8FF69A7B3E0012D13D0002D67A7CD
:101D300030D18978DFF890A10A29029D00F2A980AC
:101D4000DFE801F0062B33383DA7A7A72FA74400F3
:101D5000127823E05FFA8BF0DFF86CA104F1070B37
:101D600018F8000059A72C2843D18878092800F2D8
:101D70007580DFE800F005404C5867737373737625
:101D800058FA8BF05FFA8BF4154610F038FE287085
:101D9000C2B239E0DFF830A17AE012881AFA80F096
:101DA0000BE01AFA80F057A10DE0B2F900201AFA00
:101DB00080F007E01AFA80F01268514903E01AFA3D
:101DC00080F012684D4910F0A5FF62E05FFA8BF0D9
:101DD00004F1070B18F800002C280AD137495FFAE4
:101DE0008BF04988081A81B258FA8BF09047054663
:101DF0004FE0062552E758FA8BF05FFA8BF4154650
:101E000010F0FDFD288082B22C49898816E058FA2E
:101E10008BF05FFA8BF4154610F0F1FD288002B2CA
:101E2000264989882AE058FA8BF05FFA8BF4154628
:101E300010F0E5FD21490246898828600AEB01007F
:101E40002F491EE058FA8BF05FFA8BF4154610F01C
:101E5000D6FD1A490246898828600FE05FFA8BF4A4
:101E600011E0164D5FFA8BF46888001B81B258FAB6
:101E70008BF09047A9880246DFF84CA00AEB0100DE
:101E80001E4910F047FF08EB0400FEF725FD8344D0
:101E9000029D0DB1094EC8E6002517E770887F281E
:101EA00003D8012918BFBDE8FE8FB0688021FEF776
:101EB000F4FD002070803070BDE8FE8FA00300208C
:101EC000E004002052770408600400205245414499
:101ED0003D00000057524954453D000054453A002A
:101EE0002B57524941443A002B5245412530326428
:101EF0002C253033643D0000243E01084877040857
:101F00004D77040825730D0A000000004E554C4C17
:101F10000D0A00002B4552524F523A253032642CA4
:101F2000253033643D25640D0A000000A4A4002080
:101F3000284902460846114605F040B880B52548B4
:101F400005F04DF8043818BF012080BD80B500F0C1
:101F500013F8012804D11F4805F020F910B180BD05
:101F6000022080BD1B484FF4804104F0D3FE0028BE
:101F700018BF012080BD00BFE0B5012001218DF810
:101F80000700054802F0CEFA10B100208DF80700D6
:101F90009DF8070002B080BD000C0258E0B59446E1
:101FA00000930A4601460B48634605F091FA002863
:101FB00018BF012002B080BDE0B5944600930A46E8
:101FC00001460448634605F055FB002818BF012070
:101FD00002B080BD9CA30020FEE7002070470020D7
:101FE0007047000010B51D4C00220549204608F03E
:101FF00026FD0449204608F01CFD002010BD00BF4E
:10200000640F00206407002070B50546134E0C468F
:102010003046294608F00DFD304608F0EDFC2288D8
:10202000294602480FF0BEFA002070BDA802002029
:102030000A4AD2F81822D2F81422002A1CBF012022
:10204000704710B5054C0A460146204608F0F7FCDB
:102050002046BDE8104008F033BD00BFE49B0020DF
:10206000806B816C496D022906D0012180F8351002
:10207000C16C41F04001C16400F0D4BC10B5846B68
:10208000A26BA06C002A01680B6803F400220BD03D
:10209000002AA26B14D012F0010211D1C968E26BC0
:1020A00001EBC201002213E0C2B90868000317D493
:1020B000E06BD4E9103202EB80000861A3630FE00B
:1020C0000A6812030CD40969E26B01EBC201012218
:1020D00000F0B0FDA06B0138A06301E0606CC86047
:1020E000A06B216C88420AD12068C16841F00101CF
:1020F000C1600068800744BF012084F8350010BD2E
:10210000184800F091BC00BF70B5002B18BF012328
:10211000002A18BF0122002918BF0121114C0025F7
:102120005B01114E26606560C901A36004F10C03D8
:10213000920126C3A561C4E908053848C4E90A55D7
:102140002563A0648463204600F060FC204600F014
:10215000B5FC30B132484FF4F871BDE8704009F079
:10216000C5BE70BD089E002000000248124801F064
:1021700031BA00BF10B5104CBA4828212060402069
:1021800061600021A0604FF48060C4E903104FF447
:102190000030C4E90511E161C4E90801204601F0FD
:1021A000D1FC20B11E484FF4C67109F09FFE0348D0
:1021B0008467A06310BD00BF589E00201CA40020AF
:1021C000164801F007BA00BF80B51448AE494B224B
:1021D00001600021C0E901214FF48062C1604FF429
:1021E000805302614FF48042C0E905324FF400325F
:1021F000C16104230262032243624FF40003C0E979
:102200000A23016301F09EFC30B105484FF4E771E9
:10221000BDE8804009F06ABE80BD00BFD09E0020AE
:102220009B7B040801688F4A914223D08E4A9142D9
:102230001CBF8E4A91421DD08D4A91421CBF8D4ACF
:10224000914217D08C4A91421CBF8C4A914211D0C6
:102250008B4A91421CBF8B4A91420BD08A4A9142D1
:102260001CBF8A4A914205D0894A91421CBF894AC3
:1022700091421AD180B56FF00F02DFF848C052FAD0
:1022800081F21823B2FBF3F340F2FF3E21EA0E0184
:102290005F2A03F007031CF80330C36588BF0431CD
:1022A000BDE880408165084670477B4A9142E1D095
:1022B0007B4A9142DED0794A9142DBD021F0FF0186
:1022C000F0E700BF784401080268EB498A421F49E1
:1022D0001CBFEA4B9A4205D0E94B9A421CBFE94B1E
:1022E0009A4213D1D3B2A3F108021423B2FBF3F341
:1022F00001F1800201EB830103F01F0301664FF03F
:10230000010C0CFA03F1C0E919217047DE4B9A4227
:10231000E8D0E04B9A42E5D0DC4B9A42E2D0A1F5FE
:102320005B7CD3B26245DED0A3F110011823B1FB70
:10233000F3F1084B03F1AA0C9A420B4688BF08330D
:10234000624528BF0B460249D2E700BF0058025839
:10235000000802400F04024001790139072988BFB3
:1023600070470268C44B9A421CBFC44B9A4205D0C6
:10237000C34B9A421CBFC34B9A420BD18A000E4BEF
:102380004FF0010C1A444033C2660CFA01F1C0E967
:102390001C317047BC4B9A42F0D0BE4B9A42EDD0F4
:1023A000BA4B9A42EAD0BA4B9A424FEA8102E6D03F
:1023B000004BE5E7000902400059025810B5D0F87B
:1023C00000C09D4CA44564463BD09C4CA44564464B
:1023D00037D09B4CA445644633D09A4CA445644600
:1023E0002FD0994CA44564462BD0984CA445644604
:1023F00027D0974CA445644623D0964CA445644608
:102400001FD0954CA44564461BD0944CA44564460B
:1024100017D0934CA445644613D0924CA44564460F
:102420000FD0914CA44564460BD0904CA445644613
:1024300007D08F4CA445644603D08E4CA4450DD1E3
:102440008C4C63608068402802D1CCF8082002E000
:10245000CCF808101146CCF80C1010BDCCF80430A4
:10246000F0E700BF10000240280002404000024098
:10247000580002407000024088000240A000024064
:10248000B800024010040240280402404004024008
:10249000580402407004024088040240A004024034
:1024A000B8040240F0B5D0F800C0634CA445D0F8A1
:1024B00058E03BD0614DAC451CBF614DAC4535D0BB
:1024C000604DAC451CBF604DAC452FD05F4DAC4559
:1024D0001CBF5F4DAC4529D05E4DAC451CBF5E4D69
:1024E000AC4523D05D4DAC451CBF5D4DAC451DD00A
:1024F0005C4DAC451CBF5C4DAC4517D05B4DAC454D
:102500001CBF5B4DAC4511D05A4DAC451CBF5A4D5C
:10251000AC450BD0594DAC451CBF594DAC4505D011
:10252000584DAC451CBF584DAC456DD1C66ED0E979
:102530001957002E6F6002D0D0E91C566E60A4457A
:1025400029D03E4CA4451CBF3D4CA44523D03D4C56
:10255000A4451CBF3C4CA4451DD03C4CA4451CBF0D
:102560003B4CA44517D03B4CA4451CBF3A4CA4455A
:1025700011D03A4CA4451CBF394CA4450BD0394C62
:10258000A4451CBF384CA44505D0384CA4451CBFFD
:10259000374CA4451CD1C46D3F2504F01F0480684E
:1025A00005FA04F4CEF80840DCF8007027F4802720
:1025B000CCF800704028CCF8043004D1CCF80820C6
:1025C000CCF80C10F0BDCCF80810CCF80C20F0BD05
:1025D0002F4CA4451CBF284CA4450BD0274CA44528
:1025E0001CBF274CA44505D0264CA4451CBF264C37
:1025F000A44516D1C46D012504F01F04806805FAB6
:1026000004F4CEF80440D5E7204DAC453FF48EAF3E
:102610001F4DAC453FF48AAF1E4DAC453FF486AF2D
:10262000D5E71A4CA445E5D01A4CA445E2D0114C8C
:10263000A445B0D0CBE700BF100002402800024004
:1026400040000240580002407000024088000240F2
:10265000A0000240B80002401004024028040240DA
:1026600040040240580402407004024088040240C2
:10267000A0040240B8040240085402581C540258F6
:102680003054025844540258585402586C5402585A
:10269000945402588054025870470022AFF30080CF
:1026A00080B5DFF848E09EF80930002B01D001200A
:1026B00080BD9EF80930844600200EF803009EF885
:1026C00009300EEB8303C3F804C09EF8093073444D
:1026D0001A729EF80920531C30328EF809300A70A5
:1026E00042F63A72A1F80120C87080BD6C970020B4
:1026F00010B5CB072F4C0CD0236823F4E66323607E
:1027000042EA0023D4F800C043EA0C0343F08403F8
:10271000236089070ED5D4F8001142EA002021F485
:10272000E661C4F80011D4F80011084340F08400B9
:10273000C4F8000110BD00BF01F00302032A1D4AC6
:1027400016D1116821F030011160D2F8001121F08A
:102750003001C2F80011116801431160D2F8001174
:102760000843C2F80001D06840F01000D060704704
:10277000CB070AD0136823F03003136013680343B8
:102780001360136843F088031360890758BF7047CC
:10279000D2F8001121F03001C2F80011D2F8001176
:1027A0000843C2F80001D2F8000140F08800C2F8E6
:1027B000000170470C2000522DE9F04788462C4F4D
:1027C0003C6805462B48814601F0C4FEB8F1020F73
:1027D000064609D1D7F8000107F5807400EA090020
:1027E000BA4600F1004903E009EA0409BA463C464A
:1027F0006F1C206840070DD5002FFAD001F0AAFE0B
:10280000002D01464FF0030002D0891BA942F0D9E8
:10281000BDE8F08729F0004070B11749174B8A696D
:1028200003EA090342EA09024B458A6110D10120FB
:10283000CAF80490BDE8F087B8F1010F0DD1DAF8BD
:102840000000C00311D54FF48030CAF804000CE03A
:10285000CAF804010120BDE8F087DAF80001C003DE
:1028600003D54FF48030CAF804010020BDE8F0879A
:10287000102000520000EE1774A600200F00EF1F7A
:102880002DE9F04F85B000265F4F4FF00708049602
:102890000120CDF80080CDE901065A4800F5006915
:1028A00003966D46044648462946B847072101224B
:1028B000484601F043FE4FF4406000900220CDE90D
:1028C0000106032004F5806B03905846CDF8108074
:1028D00029464FF0030AB8474FF4405000900120BA
:1028E00004F54068CDE90106404603962946B847FD
:1028F0004FF48050009058462946B8474FF4204086
:102900000090022001900520CDE9026A049058460B
:1029100029460224B8474FF4F850CDE90004CDE928
:10292000026A4FF00C0A4846CDF810A0294602244E
:10293000B8470420CDE9000403200296CDE9030A3C
:10294000404629460224B8470120CDE9000640460A
:102950002946B84773208DE851000D200396049056
:10296000284C04F580502946A246B84750200090D4
:1029700020462946B847C024484600942946B8470F
:10298000584600942946B8474FF4407000901220F2
:1029900001900124032002940390042004905846DF
:1029A0002946B8474FF4807000904FF00209504616
:1029B0002946CDE90196CDE90366B8474FF480601A
:1029C0008DE85100504603962946B8478020009074
:1029D00040462946B8474FF40070CDE900065046FE
:1029E00002962946B8474FF4C050CDE900090A20A5
:1029F000CDE90266049050462946B84705B0BDE8C7
:102A0000F08F00BF000002589943000810B504463B
:102A100000F0A1F800210020E16484F8351084F86A
:102A2000341010BD70477047B0B5044600680569A2
:102A300069070CD504214161E06C40F00200E064BC
:102A400084F83510A06C7949016500F0D5FCA80721
:102A50000ED521680222A06C4A61E16C41F00101AF
:102A6000E164042184F835107049016500F0C4FC6C
:102A7000E80605D5206810214161204600F06AF87B
:102A8000280705D5206808214161204600F0D0F8CC
:102A9000E80700D1B0BD20680168890703D5C16887
:102AA00021F01E01C160C16821F00101C160012156
:102AB00041612046BDE8B040FFF7B5BF88B170B5B1
:102AC000044690F8350010B9204600F045F8022081
:102AD00084F83500A16931B14FF0000EC4F824E04C
:102AE00003E001207047D4F824E094E80910E2687C
:102AF000174E1943102B056805EA06050560656940
:102B000041EA0501256941EA0201226A41EA05011B
:102B1000E66A41EA0C0141EA0201A26A41EA0E01B9
:102B200041EA0201226B41EA0601066841EA02011C
:102B300041EA0601016001D1E1698161C16841F0AA
:102B40001E01C16000200121E06484F8351070BDD1
:102B500007F0E0FF70477047704700007CB50446FF
:102B600090F8340001284FF002005AD04FF0010EC7
:102B700084F834E0002684F83500B6EB134FD4F81F
:102B800000C0A06CDCF8005045F48045CCF8005043
:102B9000DCF8005025F00205CCF80050DCF80050BD
:102BA00041EA0501214DCCF800101F49C163C0E97D
:102BB0001356A663E663C4E9106604D10CF128013C
:102BC00001F076F91DE04164C4F838E0E363626423
:102BD00005E0E16B4908E163A16B4900A163E16B8A
:102BE000B1F5803FF5D2A16B0239A163A16B2164DD
:102BF000E16B02EB8103E66B0CF12801009600F01B
:102C00007BF828B14020E064012084F8350005E01D
:102C10002068016841F0010101600020002184F872
:102C2000341002B070BD00BF7D2000086120000894
:102C3000704700000368204883421CBF1F4883423E
:102C40001DD01F4883421CBF1E48834217D01E4818
:102C500083421CBF1D48834211D01D4883421CBFC4
:102C60001C4883420BD01C4883421CBF1B48834234
:102C700005D01B4883421CBF1A48834209D112B1B8
:102C80004FF0100C01E04FF00C0C002043F80C103A
:102C9000704715488342F2D014488342EFD014485D
:102CA0008342ECD013488342E9D04FF0100C002A45
:102CB00008BF4FF00C0CE8E710000240280002406B
:102CC000400002405800024070000240880002406C
:102CD000A0000240B8000240100402402804024054
:102CE000400402405804024070040240A004024024
:102CF00088040240B80402402DE9F8430446806885
:102D0000802804D14FF480706065012067E194F859
:102D10003400012801D1022061E1012084F834004F
:102D200094F83500012840F05D810220D54DDDF892
:102D300020C084F83500002060654FF03F0E206809
:102D40004FF00808A946A8424FF4802724D0CE4D62
:102D5000A8421CBFCD4DA8421ED0CD4DA8421CBFDD
:102D6000CC4DA84218D0CC4DA8421CBFCB4DA84298
:102D700012D0CB4DA8421CBFCA4DA8420CD0CA4DA0
:102D8000A8421CBFC94DA84206D0C94DA8421CBFCD
:102D9000C84DA84240F0298105462E683E432E606A
:102DA0000361E06D00F01F00A36D0EFA00F043F820
:102DB000080020466346FFF701FB20684F46484560
:102DC0003CD0B14988421CBFB049884236D0B04996
:102DD00088421CBFAF49884230D0AF4988421CBFEF
:102DE000AE4988422AD0AE4988421CBFAD498842CC
:102DF00024D0AD4988421CBFAC4988421ED0AC49A2
:102E000088421CBFAB49884218D0AB4988421CBFDE
:102E1000AA49884212D0AA4988421CBFA9498842BF
:102E20000CD0A94988421CBFA849884206D0A849AD
:102E300088421CBFA749884240F0FB80E26ED4E97B
:102E40001913002A4B6002D0D4E91C124A60B84220
:102E500001463CD08C498842014638D08B49884293
:102E6000014634D08A498842014630D08949884297
:102E700001462CD088498842014628D0874988429B
:102E8000014624D086498842014620D0854988429F
:102E900001461CD084498842014618D083498842A3
:102EA000014614D082498842014610D081498842A7
:102EB00001460CD080498842014608D07F498842AB
:102EC000014604D07E49884240F0BF807C490968B1
:102ED0000B2262F344010160416941F080014161CC
:102EE000216C09B9A16C19B1016841F008010160B8
:102EF000B8423BD0644988421CBF6449884235D0FF
:102F0000634988421CBF634988422FD06249884286
:102F10001CBF6249884229D0614988421CBF61496F
:102F2000884223D0604988421CBF604988421DD036
:102F30005F4988421CBF5F49884217D05E4988427A
:102F40001CBF5E49884211D05D4988421CBF5D4963
:102F500088420BD05C4988421CBF5C49884205D03E
:102F60005B4988421CBF5B4988427DD1216E0A685B
:102F7000D20303D50A6842F480720A60E16E19B187
:102F80000A6842F480720A60B84223D03E498842FF
:102F90001CBF3E4988421DD03D4988421CBF3D4967
:102FA000884217D03C4988421CBF3C49884211D016
:102FB0003B4988421CBF3B4988420BD03A49884272
:102FC0001CBF3A49884205D0394988421CBF39495B
:102FD00088421ED1016841F001010160002001B06A
:102FE000BDE8F0834FF400608EE6334DA8423FF415
:102FF000D3AEFC4DA84205463FF4CFAEFA4DA842F1
:1030000010D14FF03F0EF84D4FF008084FF48027D5
:10301000C3E6F3498842DDD0F3498842DAD0F1496A
:103020008842D7E74FF0010E4FF0040848F220071E
:10303000B2E6EE4988423FF401AFED4988423FF4E1
:10304000FDAEEC4988423FF4F9AE0168052262F317
:1030500043010160216C19B9A16C00293FF448AF0C
:10306000016841F0040142E7E04988423FF47EAF45
:10307000DF4988423FF47AAFDE4988423FF476AFB9
:10308000A8E700BF100002402800024040000240B4
:10309000580002407000024088000240A000024038
:1030A000B8000240100402402804024040040240DC
:1030B000580402407004024088040240A004024008
:1030C000B8040240085402581C54025830540258A4
:1030D0004454025858540258F8B5044601F03AFADC
:1030E000002C00F0B280054694F83500022840F02C
:1030F000A7802768AD4EB74238463CD0AC488742DF
:10310000384638D0AB488742384634D0AA48874240
:10311000384630D0A948874238462CD0A848874244
:10312000384628D0A7488742384624D0A648874248
:10313000384620D0A548874238461CD0A44887424C
:10314000384618D0A3488742384614D0A248874250
:10315000384610D0A148874238460CD0A048874254
:10316000384608D09F488742384604D09E48874258
:1031700040F0EC809C48016821F01E0207F1140128
:1031800002606FF080000A68B74200EA020008603F
:103190003CD0F84887421CBFF748874236D0F748F2
:1031A00087421CBFF648874230D0F64887421CBF92
:1031B000F54887422AD0F54887421CBFF448874229
:1031C00024D0F44887421CBFF34887421ED0F348FE
:1031D00087421CBFF248874218D0F24887421CBF82
:1031E000F248874212D0F04887421CBFF04887421D
:1031F0000CD0F04887421CBFEF48874206D0EF480A
:1032000087421CBFEE48874240F0B980206E0168BB
:1032100021F480710160386820F00100386038685E
:10322000C00715D001F096F9401B0628F7D32020DF
:103230006065002084F83400032084F8350004E041
:1032400080206065002084F83400012001B0F0BDCA
:103250002068B0421CBFC74988421DD0C649884279
:103260001CBFC649884217D0C54988421CBFC54902
:10327000884211D0C44988421CBFC44988420BD03F
:10328000C34988421CBFC349884205D0C24988420D
:103290001CBFC24988425DD1A16DE26D3F2302F09F
:1032A0001F0203FA02F28A60B0423BD0B149884261
:1032B0001CBFB149884235D0B04988421CBFB049D3
:1032C00088422FD0AF4988421CBFAF49884229D0DD
:1032D000AE4988421CBFAE49884223D0AD498842DE
:1032E0001CBFAD4988421DD0AC4988421CBFAC49C7
:1032F000884217D0AB4988421CBFAC49884211D0E4
:10330000A94988421CBFAA4988420BD0A9498842D2
:103310001CBFA949884205D0A84988421CBFA849BA
:10332000884239D1E06ED4E9191200284A6006D0EB
:10333000016821F480710160D4E91C014160002022
:10334000012184F8340084F835107FE76FF00E0017
:10335000394618E7924988429ED0944988429BD0CA
:103360009049884298D090498842A16D95D0E26DED
:10337000012302F01F0203FA02F24A6094E7914827
:1033800087423FF443AF904887423FF43FAF8F48B6
:1033900087423FF43BAF3EE78A498842C2D08A4920
:1033A0008842BFD089498842BCD0C8E7100002409B
:1033B00028000240400002405800024070000240D5
:1033C00088000240A0000240B80002401004024001
:1033D00028040240400402405804024070040240A5
:1033E00088040240A0040240B80402406C54025811
:1033F000945402588054025810B5002841D090F8D7
:10340000351002293BD10168594A914223D0594BCA
:1034100099421CBF584B99421DD0584B99421CBF32
:10342000574B994217D0574B99421CBF564B994264
:1034300011D0564B99421CBF554B99420BD0554B5E
:1034400099421CBF544B994205D0544B99421CBF22
:10345000534B99423CD10423914280F835301CBF34
:103460004448814205D0444881421CBF43488142C0
:103470000AD1086820F001000860002102E08021E4
:1034800041650121084610BD3D488142F1D03D48CB
:103490008142EED03C488142EBD03C4881421CBF87
:1034A0003B488142E5D03B4881421CBF3A488142BB
:1034B000DFD03A4881421CBF39488142D9D03948CF
:1034C0008142D6D038488142D3D038488142D0E7B3
:1034D000344B9942BFD0344B9942BCD0334B9942C4
:1034E000B9D00A6822F00E020A60314A91420A6895
:1034F00022F001020A600BD02E4A91421CBF2E4AD4
:10350000914205D02D4A91421CBF2D4A914225D1AE
:10351000D0E916C2D0E9183E196802F01F0221F462
:1035200080710124196004FA02F1CCF80410816E54
:10353000CEF80410C16E31B10A6822F480720A60BC
:10354000D0E91C124A600021012280F8341080F872
:103550003520026D002A95D090478EE7194A914296
:10356000D6D0194A9142D3D0184A9142D0D0EAE736
:103570001000024028000240400002405800024073
:103580007000024088000240A0000240B8000240E3
:103590001004024028040240400402405804024043
:1035A0007004024088040240B8040240A0040240B3
:1035B000085402581C5402583054025844540258BB
:1035C000585402586C54025894540258805402586B
:1035D000406D70472DE9FC410021C54F0191044623
:1035E000DFF808150068A56DB842D1F800802E6894
:1035F00029682AD0BF4A90421CBFBF4A904224D0BB
:10360000BE4A90421CBFBE4A90421ED0BD4A904264
:103610001CBFBD4A904218D0BC4A90421CBFBC4A55
:10362000904212D0BB4A90421CBFBB4A90420CD081
:10363000BA4A90421CBFBA4A904206D0B94A904258
:103640001CBFB94A904240F09F81E16D082201F011
:103650001F018A40324236D0BC46B8424FF00403C4
:1036600024D0A44FB8421CBFA34FB8421ED0A34FD2
:10367000B8421CBFA24FB84218D0A24FB8421CBFDC
:10368000A14FB84212D0A14FB8421CBFA04FB842C0
:103690000CD0A04FB8421CBF9F4FB84206D09F4FDE
:1036A000B8421CBF9E4FB84240F0968107681F4247
:1036B000674608D0036823F004030360AA60626DC4
:1036C00042F00102626501228A4032422ED0B842A5
:1036D00024D0884B98421CBF874B98421ED0874B02
:1036E00098421CBF864B984218D0864B98421CBF0C
:1036F000854B984212D0854B98421CBF844B984210
:103700000CD0844B98421CBF834B984206D0834B0D
:1037100098421CBF824B984240F06B8143691B0664
:1037200004D5AA60626D42F00202626504228A40FA
:1037300032422ED0B84224D06E4B98421CBF6E4B02
:1037400098421ED06D4B98421CBF6D4B984218D0CA
:103750006C4B98421CBF6C4B984212D06B4B9842FA
:103760001CBF6B4B98420CD06A4B98421CBF6A4BF3
:10377000984206D0694B98421CBF694B984240F072
:10378000468103689B0704D5AA60626D42F004027B
:103790006265102202FA01F131423FD0B8424FF087
:1037A000080224D0D24B98421CBFD24B98421ED064
:1037B000D14B98421CBFD14B984218D0D04B984265
:1037C0001CBFD04B984212D0CF4B98421CBFCF4B5E
:1037D00098420CD0CE4B98421CBFCE4B984206D09C
:1037E000CD4B98421CBFCD4B984240F01E810368E0
:1037F000134213D0A96001684903016806D4C905C2
:1038000006D4016821F00801016001E0080301D439
:10381000216C00E0A16C09B120468847E06D00F002
:103820001F01202000FA01F2324200F0838020685C
:103830001023B84224D0AE4EB0421CBFAD4EB042B1
:103840001ED0AD4EB0421CBFAC4EB04218D0AC4EF4
:10385000B0421CBFAB4EB04212D0AB4EB0421CBF08
:10386000AA4EB0420CD0AA4EB0421CBFA94EB042E4
:1038700006D0A94EB0421CBFA84EB04240F0E28034
:1038800007681F4256D0AA6094F83520042A0268BF
:1038900019D122F016020260426922F080024261D0
:1038A000226C0AB9A26C1AB1026822F00802026006
:1038B0003F208840A860002084F83400012084F86C
:1038C0003500216D5BE0510301680CD4C9052DD48E
:1038D000016821F010010160002084F8340001200B
:1038E00084F8350022E0080320D4616C1FE000BF9B
:1038F00010000240280002404000024058000240F0
:103900007000024088000240A0000240B80002405F
:1039100010040240280402404004024058040240BF
:103920007004024088040240A0040240E16B09B127
:1039300020468847606D28B3606DC0071ED04FF4E5
:103940001650B8FBF0F1042084F8350020680268B6
:1039500022F001020260019A01328A42019202D8E9
:103960000268D207F7D1002184F834100068C0073C
:103970004FF0030008BF012084F83500E16C09B165
:1039800020468847BDE8FC81674A90421CBF674AD1
:1039900090420CD0664A90421CBF664A904206D0C4
:1039A000654A90421CBF654A904240F0928002688E
:1039B000E36D570703F01F0351D504279F4017EA13
:1039C00001064CD011046F6060D4910662D4016886
:1039D00021F0040101605DE0514FB8423FF466AE52
:1039E000504FB8423FF462AE554FB84218BF08235B
:1039F0005CE64B4B98423FF491AE4A4B98423FF401
:103A00008DAE4F4B98423FF489AE02688EE6444B30
:103A100098423FF4B6AE434B98423FF4B2AE484BA7
:103A200098423FF4AEAE0268B3E63D4B98423FF495
:103A3000DEAE3C4B98423FF4DAAE414B984218BFA1
:103A40000422D4E6364EB0423FF41AAF354EB042AF
:103A50003FF416AF3A4EB04218BF022310E7970763
:103A60001AD502279F4017EA010615D011046F608E
:103A700029D491062BD4016821F00A0101600020AD
:103A800084F83400012084F8350020E0D00301D40C
:103A9000A16C74E7216C72E712077FF573AF0822FF
:103AA0009A4011403FF46EAF0168012221F00E01EF
:103AB000016002FA03F068600020626584F8340057
:103AC00084F835205AE7D00301D4616C57E7E16BE5
:103AD00055E7F24A90423FF46AAFF14A90423FF410
:103AE00066AFF04988423FF4B0AD4BE710000020CC
:103AF000280002404000024058000240700002408E
:103B000088000240A0000240B800024010040240B9
:103B1000280402404004024058040240700402405D
:103B200088040240A00402409454025808540258E9
:103B30001C540258305402584454025858540258E5
:103B4000B8040240F8B5044600F004FD002C7BD018
:103B500005462068C24FB8422AD0C24988421CBFDD
:103B6000C149884224D0C14988421CBFC04988420B
:103B70001ED0C04988421CBFBF49884218D0BF49E7
:103B800088421CBFBE49884212D0BE4988421CBF31
:103B9000BD4988420CD0BD4988421CBFBC498842FF
:103BA00006D0BC4988421CBFBB49884240F0F38024
:103BB000002184F83410022184F83510016821F0C6
:103BC0000101016005E000F0C5FC401B052836D866
:103BD00020680168C907F6D10168B34A1140D4E9E9
:103BE000022311432269194363691143A2691943EE
:103BF000E36941EA0205616A2B43256A042943EA25
:103C0000050303D1D4E90B562B433343A74D2E684C
:103C1000B6F1005F1CD36568292D19D32F2D15D35C
:103C2000A5F13F06042E11D3472D11D3492D0DD3F5
:103C3000A5F14F06032E98BF43F4801308E020201F
:103C40006065032084F835000120A2E043F480136E
:103C500003600429436923F0070341EA030127D1E4
:103C6000D4E90A53002B41EA050121D0B2F5005FE7
:103C700006D08AB9022D12D0012D07D07DB117E0F0
:103C8000032D15D8DFE805F00E0B0E02A3F1C0726C
:103C9000B2FA82F2520904E0032D03D308D1C3F330
:103CA00000622AB140206065012084F8350070E090
:103CB00041612046FEF7B6FAE16D3F2201F01F0197
:103CC00002FA01F181602068B8423CD0654988421F
:103CD0001CBF6549884236D0644988421CBF64498C
:103CE000884230D0634988421CBF634988422AD049
:103CF000624988421CBF6249884224D06149884297
:103D00001CBF614988421ED0604988421CBF60497F
:103D1000884218D05F4988421CBF5F49884212D050
:103D2000604988421CBFF94988420CD0F849884252
:103D30001CBFF849884206D0F74988421CBFF749A2
:103D4000884240F080802046FEF7BEFAA0688028B6
:103D500002D10020606000E06068C2B2216E0138CC
:103D6000D4E9193707280A605F6009D82046FEF7B2
:103D7000F3FA04F16C0207CA002303604A6003E00F
:103D80000020C4E91B00606700200121606584F801
:103D9000351001B0F0BDE34988421CBFDB498842C1
:103DA0000BD0DB4988421CBFDA49884205D0DA498A
:103DB00088421CBFD949884239D1002184F8341087
:103DC000022184F835100168A2686FF31011A2F186
:103DD0008003B3FA83F35B09402AE2684FEA833336
:103DE00041EAD20108BF102322691943636941EAFD
:103DF000D201A26941EAD301E36941EAD201226A10
:103E000041EAD30141EA121140F808191421C0B265
:103E1000B0FBF1F08000E0652046FEF703FAE16DAB
:103E2000012201F01F0102FA01F141604BE7BC4998
:103E30008842C2D0BC498842BFD0B34988423FF4CF
:103E4000B7AE4020FCE6B64988423FF47CAFB549A6
:103E500088423FF478AFB44988423FF474AF93E7A7
:103E6000100002402800024040000240580002407A
:103E70007000024088000240A0000240B8000240EA
:103E8000100402402804024040040240580402404A
:103E90007004024088040240A00402406C5402589E
:103EA00080540258B80402403F8010FE0010005CAD
:103EB000B0B5002800F0E780054690F834000128EE
:103EC00001D10220B0BD012085F8340095F83500FD
:103ED000012840F0D280022085F835000020686576
:103EE0002868046824F0010404602846FEF7DAFA22
:103EF00028687649884202463CD0754A904202467C
:103F000038D0744A9042024634D0734A90420246F6
:103F100030D0724A904202462CD0714A90420246FA
:103F200028D0704A9042024624D06F4A90420246FE
:103F300020D06E4A904202461CD06D4A9042024602
:103F400018D06C4A9042024614D06B4A9042024606
:103F500010D06A4A904202460CD0694A904202460A
:103F600008D0684A9042024604D0674A904240F026
:103F70008C80654A12680B2363F3440202602A6C4A
:103F80001AB1026842F00802026088423BD0504AEF
:103F900090421CBF4F4A904235D04F4A90421CBFBE
:103FA0004E4A90422FD04E4A90421CBF4D4A9042FA
:103FB00029D04D4A90421CBF4C4A904223D04C4AD3
:103FC00090421CBF4B4A90421DD04B4A90421CBFAE
:103FD0004A4A904217D04A4A90421CBF494A9042EE
:103FE00011D0494A90421CBF484A90420BD0484ADF
:103FF00090421CBF474A904205D0474A90421CBF9E
:10400000464A904257D12A6E1368DB0303D51368E2
:1040100043F480731360EA6E1AB1136843F480733B
:104020001360884223D02A4988421CBF294988420C
:104030001DD0294988421CBF2849884217D02849E9
:1040400088421CBF2749884211D0274988421CBF9B
:10405000264988420BD0264988421CBF2549884200
:1040600005D0254988421CBF244988421AD10168DD
:1040700041F0010101600020B0BD002085F834004E
:104080004FF4006068650120B0BD0268052363F34A
:10409000430202602A6C002A3FF477AF026842F0C4
:1040A000040271E716498842E1D017498842DED000
:1040B00014498842DBE71A4A9042A4D0194A904238
:1040C000A1D0194A90429ED0D1E700BF1000024013
:1040D00028000240400002405800024070000240A8
:1040E00088000240A0000240B800024010040240D4
:1040F0002804024040040240580402407004024078
:1041000088040240A0040240B80402400854025847
:104110001C540258305402584454025858540258FF
:104120006C5402589454025880540258B0B5044656
:1041300000F010FA054905460978621C18BF0C44C6
:1041400000F008FA401BA042FAD3B0BD08000020DE
:104150002DE9F047DFF8F09199F81420012A01D1F8
:1041600002251BE004460120002589F81400C9F847
:10417000185088466068C10709D04CF250300121C0
:10418000FEF71AFB0546002818BF01256068800766
:1041900007D46DB10125002089F814002846BDE838
:1041A000F0874CF250300221FEF706FB2843F1D194
:1041B0002068664E012808D161682069FEF7BCFAC4
:1041C0006068C10736D1002542E04FF0FF30C8F8E3
:1041D000000040F2047AA068074625E0616838468E
:1041E0002269FEF785FA6068C10701D100250AE05F
:1041F0004CF250300121FEF7DFFA3168054621EA22
:104200000A013160606880070BD54CF25030022102
:10421000FEF7D2FAD6F80011054621EA0A01C6F8DF
:10422000001135BB0137A068E16808448742D5D347
:104230000025B0E74CF2503001210127FEF7BCFA0F
:104240003168002821F00801316018BF3D466068E0
:104250008007A0D54CF250300221FEF7ADFA0028BD
:1042600018BF0125D6F8000120F00800C6F80001AB
:1042700091E7C8F800708EE73448016841F0010109
:1042800001600168C90701D101207047D0F8001111
:1042900041F00101C0F800110121D0F8000121EA2C
:1042A000000070472DE9F047274F387D012802D1E3
:1042B0000220BDE8F0870D466FF31301144601207C
:1042C000B1F1006F387504D0B1F1016F39D1022618
:1042D00000E001264FF000084CF25030C7F818807B
:1042E0003146FEF769FA50BB184800F580798246DE
:1042F0004846012E04BF42F20C00C5F200200168BE
:1043000041F0020101600820BFF36F8FBFF34F8FB0
:1043100002CC013802C50106FAD1BFF36F8FBFF39B
:104320004F8F4CF250303146FEF746FA012E08BF4F
:10433000D146D9F8001021F00201C9F8001087F821
:104340001480BDE8F08700BF74A600200C20005246
:104350000E488168C90706D00D4901600D4901600A
:104360008168C9070FD1D0F80811C90709D00849D9
:10437000C0F800110749C0F80011D0F80801C007C3
:1043800001D1002070470120704700BF0420005277
:1043900023016745AB89EFCD2DE9FC4F5E4A0A2723
:1043A0005E4C02444FEAB223A04208BF09274FF0F7
:1043B00000094FF0010B4FF0000C0025092B38BF0E
:1043C0004FEAB22700970A6832FA05F700F09E809C
:1043D0000BFA05F612EA060A00F08B804A68122AE8
:1043E00000F28D800BFA02F717F0061F00F08780AD
:1043F0000323876803FA0CF3CC689F4304FA0CF498
:104400003C4384604FEA45084468C2F3001724EA3D
:104410000606AF4046EA07046FEA030E4460C3682D
:104420008C6803EA0E0304FA08F4234342F01004F4
:10443000C360122C10D16FF0030202EA550202444D
:1044400009F01C03146A0F269E40B4430E6906FA55
:1044500003F3234313624A68036802F0030703EA85
:104460000E0307FA08F73B43D200036041D5284A00
:1044700013462B4C12680F2642F002021A604FF0CE
:10448000B04E1A6802F00202019225F00302019B6D
:1044900009F00C0317599E40B743009E06FA03F338
:1044A0003B4313511B4A1446D26F4B6842EA0A073A
:1044B000DE0358BF22EA0A07E7679E03D4F880208C
:1044C00042EA0A0758BF22EA0A07C4F88070DEF8F9
:1044D0000020DE0242EA0A0758BF22EA0A07CEF8A5
:1044E000007022689B0242EA0A0758BF22EA0A07C4
:1044F000276001350CF1020C09F1040963E703237D
:1045000003FA0CF76FEA070EE04688E7BDE8FC8F78
:10451000F4440258040000580000FEA7002402588A
:10452000080400580069084018BF0120704742691C
:104530000A408A4208BF090481617047002A08BF07
:10454000090481617047000001480068000C704751
:104550000010005C01480068704700BF20A80020E0
:1045600090F84120202A03D190F84020012A01D15F
:10457000022118E0242280F841200268136823F009
:1045800001031360136823F4805313601368194305
:104590001160116841F001011160202180F8411083
:1045A000002180F840100846704790F84120202AEA
:1045B00003D190F84020012A01D1022117E02422E2
:1045C00080F841200268136823F001031360136828
:1045D00023F4706343EA01211160116841F0010185
:1045E0001160202180F84110002180F84010084619
:1045F0007047000008B310B5044690F8410028B990
:10460000002084F84000204600F0FAF9242084F8C5
:10461000410094E80910E268012A016821F00101D3
:10462000016023F070610161816821F400418160C3
:1046300005D14CF40041816009E0012070474CF441
:104640000441022A816002D14FF400614160416857
:104650000F4A04F1100311434160C16821F4004185
:10466000C1600ECB1143E26941EA0321C160216AB6
:1046700011430160016841F0010101600020202127
:10468000606484F84110206384F8420010BD00BFCC
:10469000008000022DE9FE4F00270297044690F8A3
:1046A0004100202808D1206889468169090403D483
:1046B00094F84010012903D1022003B0BDE8F08F27
:1046C0001D466FF39F2990460121242284F8401053
:1046D000002384F841206F1C63644FF0200AE168D6
:1046E00001294FF4205104BF42F20001C0F2002121
:1046F00049444160FFF72EFF0646206881698269C0
:10470000120942EA5111C90708D1002FF5D0FFF76D
:1047100021FF6DB3801BA842EFD929E0D0F818B073
:1047200020210022009620462B4603F07DFE5FEA02
:10473000CB6129D530BB20681021C161C0F81CA015
:10474000029941450ED14168002241F48041416007
:104750002021204600962B4603F066FE90B9206883
:10476000C0F81CA002990131029102994145B6D3CB
:10477000202084F84100606C40F02000606400203C
:1047800084F84000012098E70028FBD12068202110
:10479000C161002084F8411084F840008DE70000DA
:1047A0002DE9F843044690F84100202803D194F8FD
:1047B0004000012804D10227384601B0BDE8F0834B
:1047C00001271D4684F8407016468846FFF7C2FE52
:1047D000814600904FF4004101221923204603F046
:1047E00023FE0028E8D1222084F84100102084F81C
:1047F000420000206064666265856063608DB0F58C
:10480000807F324805D3FF212185FF224FF080733E
:1048100004E0618D4FF00073CAB2218500902046FC
:10482000414603F0E9FD0025089FFF2633E02046BE
:1048300039464A4603F028FEB0BB2068616A406AE8
:104840000870218D606A0130013960622185090498
:10485000608DA0F101006085608D1CD1D8B18021F0
:10486000CDF80090002220463B4603F0DDFDD8B98C
:10487000608DB0F5807F04D3FF2226854FF08073D2
:1048800004E0608D4FF000732085C2B22046009591
:10489000414603F0B1FD608D0028C8D1204639465D
:1048A0004A4603F02BFE08B1012785E72068202146
:1048B000C161524B002742681A40426084F841109F
:1048C00084F8427084F8407076E700BF00240080CE
:1048D0002DE9F843044690F84100202803D194F8CC
:1048E0004000012804D10227384601B0BDE8F0831A
:1048F00001271D4684F8407016468846FFF72AFEB9
:10490000814600904FF4004101221923204603F014
:104910008BFD0028E8D1212084F84100102084F884
:10492000420000206064666265856063608DB0F55A
:10493000807F314805D3FF212185FF224FF080730E
:1049400004E0618D4FF00073CAB2218500902046CB
:10495000414603F051FD0025089FFF2631E0204627
:1049600039464A4603F0EEFDA0BB606A10F8011B11
:10497000226891626062608D01386085208D411EE1
:1049800021850904608D1CD1D8B18021CDF800901B
:10499000002220463B4603F047FDD8B9608DB0F5B4
:1049A000807F04D3FF2226854FF0807304E0608D62
:1049B0004FF000732085C2B220460095414603F0B7
:1049C0001BFD608D0028CAD1204639464A4603F0B7
:1049D00095FD08B1012787E720682021C161074BB9
:1049E000002742681A40426084F8411084F84270FF
:1049F00084F8407078E700BF0020008000E800FEE7
:104A0000704700002A48007802490A68104408608C
:104A1000704700BF20A8002080B5032000F08EF86A
:104A200001F054FE0F490A68C2F3032209680E4BD5
:104A300001F00F019A5C595C02F01F02D0400B4A52
:104A400001F01F0120FA01F111601A4908600020ED
:104A500000F00EF808B1012080BD00F02DF8002014
:104A600080BD00BF18440258543D010814000020C6
:104A700070B50F4E3178C1B104464FF47A70B0FB77
:104A8000F1F00C490968B1FBF0F003F06FFA0F2C5C
:104A90004FF001050AD848B94FF0FF3000222146F7
:104AA000002500F02BF8746000E00125284670BD59
:104AB00008000020100000207047000000280CDBD8
:104AC00000F01F01012202FA01F1044A400942F8F4
:104AD0002010BFF34F8FBFF36F8F704780E100E06E
:104AE000002808DB00F01F01012202FA01F1024A4E
:104AF000400942F82010704700E100E080B5154BF6
:104B00001B68C3F3022C8CF0070EBEF1040F28BF04
:104B10004FF0040EBCF103034FF0FF3C38BF0023FD
:104B20000CFA0EFE21EA0E0199400CFA03F39A43A7
:104B30001143BDE8804007F097BF00BF05490A68F0
:104B40004FF6FF031A4060F30A220348104308603F
:104B5000704700BF0CED00E00000FA05012201687B
:104B6000C0F8FC23002280F8F423054A886940F04D
:104B700000608861486D024300204A65704700BFAD
:104B80000300001070470268002051627047D0F89F
:104B900000C00029DCF824001BD080B5DCF82830E8
:104BA000A1F1010E00EB1343002006E00CEB8101A4
:104BB000D1F80411013003EB1143C1B28E45F5D891
:104BC00043EA02400CEB8E01C1F80401BDE88040CD
:104BD00003E040EA0240CCF8280000207047D0F8FB
:104BE000040406F036B9C1EBC102D0F8043400EB7E
:104BF0008200826C184606F0A7B8C1EBC102D0F85B
:104C0000043400EB8200D0F80822184606F0EEB813
:104C1000D0F8040406F01FB910B5044601F00F00E7
:104C20000A06C0EBC00104EB810205D4002302F5A3
:104C3000FE7182F8FD3104E0012302F13C0182F8AB
:104C40003D3094F8BC230870012A01D1022010BD28
:104C5000012084F8BC03206806F0A6FC002084F83C
:104C6000BC0310BDB0B5044601F00F00626890426D
:104C700001D9012525E0090609D4C0EBC00104EBE8
:104C80008102002302F5FE7182F8FD3108E0C0EBDD
:104C9000C00104EB8102012302F13C0182F83D30A6
:104CA00094F8BC2300258D70012A087001D10225DB
:104CB00007E0012084F8BC03206806F049FE84F870
:104CC000BC532846B0BD01F00F01C1EBC10100EBA0
:104CD0008100D0F814027047B0B5054601F00F000E
:104CE0000C06C0EBC00105EB810C06D44FF0000EA2
:104CF0000CF5FE718CF8FDE105E04FF0010E0CF1B2
:104D00003C018CF83DE04C780870002C8A60CB7038
:104D100018BFC880022B04BF0020087195F8BC039F
:104D2000012801D10220B0BD012085F8BC0328680C
:104D300006F05AFB002085F8BC03B0BD80B501F039
:104D40000F0CCCEBCC0100EB810E0021CEF8082239
:104D5000CEE9843103698EF8FD11012B0EF5FE7149
:104D60008EF8FCC101D1CEF80C22DAB20068BCF199
:104D7000000F02D006F024FE01E006F043FD002003
:104D800080BDB0B50446406801F00F05854201D9E9
:104D90000120B0BD080609D4C1EBC10004EB8000BE
:104DA000002200F5FE7180F8FD2108E0C5EBC5008A
:104DB00004EB8000012200F13C0180F83D2094F8D2
:104DC000BC2301208870012A0D7001D10220B0BDE2
:104DD00084F8BC03206806F0D4FD2DB9217C04F5CD
:104DE0007172206806F088FD002084F8BC03B0BD15
:104DF00010B501F00F0CCCEBCC0100EB810E71462D
:104E000001F83CCF0024C1E9053403690124012BDA
:104E1000CA604C7001D1CEF84C20DAB20068BCF107
:104E2000000F02D006F0CCFD01E006F0EBFC002004
:104E300010BD00002DE9F04F87B004688146204680
:104E400006F0B0FE10B107B0BDE8F08FD9F8000051
:104E500006F0D4FE0028F6D0D9F8000006F0CEFE09
:104E60008007D9F8000003D5416901F002014161D2
:104E700006F0C4FEC0060494D9F800003FD581694D
:104E800021F010018161256AC5F3434005F00F044C
:104E900006281CD002282BD147F6F070054027D0F9
:104EA000C4EBC40009EB80040498D4F808122A0962
:104EB00006F0A8FED4F80802D4F8141200EB15107E
:104EC000C4F8080201EB1510C4F8140210E009F54B
:104ED00071710498082206F095FEC4EBC401C5F375
:104EE0000A1009EB8101D1F814221044C1F8140210
:104EF000D9F80000816941F010018161049C06F03D
:104F00007DFE000340F1C180D9F8000006F055FE97
:104F100009F5717109F5057A069100254FF430689D
:104F20000746002F00F0B180F80700F08C805FFA90
:104F300085FBD9F80000594606F058FE0646C00722
:104F400048D004EB080001218160D9F8000008EB8B
:104F50000001036C8A68D9F81040012C10D11407A5
:104F60001AD4940633D412F0280F049C32D1DE4CAC
:104F7000A3426FD312F400426CD04FF4004027E0FC
:104F8000D94CFF34A34212D11004049C0BD49006D8
:104F900018D52020886015E0D3488342049C19D39B
:104FA00012F4004016D04FF40040886012E0B8F5CB
:104FB000306F049C06D1D9F8101219B90021069A55
:104FC00006F09AFC48465946FFF717FE02E02020FB
:104FD0008860049C300723D504EB0800C24A0821EE
:104FE0008160013AD9F8001008EB0100096C914288
:104FF000816812D9090402D54FF400418160484606
:1050000000F00CFBD9F81000012809D1D9F80000F4
:105010000121069A06F070FC02E0484600F0FEFA14
:10502000F00603D504EB080010218160B00603D51B
:1050300004EB080020218160B00404D504EB0800D3
:105040004FF40051816001357F0808F120080AF112
:105050001C0A66E70969B8F5306F6FF3DF415AE95A
:105060000423A2EB01011A44CAF800104AF80C2CE0
:1050700006D1D9F8101219B90121069A06F03CFCA4
:1050800048465946FFF7B9FDA3E7D9F8000006F0F6
:10509000B5FD400340F1B480D9F8000006F086FD6C
:1050A00004F5106609F57171029600270191024618
:1050B000A3E0D00700F09F80F9B2D9F80000059274
:1050C000069106F081FD0546C00728D007F00F00C5
:1050D000D4F83418012202FA00F021EA0000C4F8E2
:1050E000340806EB47108260D9F81000012812D16D
:1050F000C7EBC70009EB8000D0E911121144002F63
:10510000816408D1D9F8500028B9D9F800000121EC
:10511000019A06F0F1FB48460699FFF764FD28075F
:1051200003D506EB471008218160E806059A03D5F0
:1051300006EB471010218160680603D506EB471087
:1051400040218160A80703D506EB4710022181604A
:10515000280650D5C7EBC70009EB800AD3465BF899
:10516000501FD84658F8040F814244D33B465AF8A2
:10517000442F0F1AD9F80050974288BF174605EB05
:10518000431203934E4602F510690AF1040417E036
:105190000F1ADAF80000327C874288BF0746BBB29C
:1051A000216828460092069A06F0DCFD2068384403
:1051B000D8F800102060C819C8F80000DBF800100B
:1051C000D9F81820FB1C92B2B2EB930F28BF814292
:1051D000DED88142B146DDE90267DDE904420AD842
:1051E00007F00F00012101FA00F0D5F8341821EA88
:1051F0000000C5F8340801375208002A7FF459AF7F
:10520000D9F8000006F0FAFC002802DBD9F800000B
:105210001AE0D4F8040820F00100C4F8040899F852
:10522000F403012807D1002089F8F403002148463F
:10523000FFF7A8FC02E0484600F0D4F9D9F80000D6
:10524000416901F00041416106F0D8FC000502D43B
:10525000D9F800000CE0D4F80808C00702D048468E
:1052600000F002FAD9F80000416901F400614161DF
:1052700006F0C4FC000118D5D9F80000416901F01E
:105280000061416199F8F41319B1484600F0ECF956
:105290000BE0012189F8F4130121406DC0F3830074
:1052A000C9F8F8034846FFF76DFCD9F8000006F08E
:1052B000A5FCC00402D4D9F800005FE0D4F80408CB
:1052C000102120F00100C4F804082546D9F8000098
:1052D00004F5006406F046FC05F51060D9F80410EA
:1052E0004FF67F321BE000BF0B30544F8260013914
:1052F000036823F400130360036843F00063036052
:10530000C0F80822D0F8003223F40013C0F80032AD
:10531000D0F8003243F00063C0F80032203000299A
:10532000E4D1E06940F00110E061D9F8300040B10B
:10533000D4F8840040F00B00C4F8840004F1440069
:1053400006E0606942F22B010843606104F110003D
:10535000016809F5717241F00B010160206820F4C9
:10536000FE60206099F81010D9F8000006F0C4FA29
:10537000D9F80000416901F48051416106F03EFC1A
:105380008004D9F800001AD506F070F8D9F80000AA
:1053900006F0FAFBC9F80C00D9F8005001F056F9F4
:1053A00099F80C200146284606F062FC484600F0B9
:1053B000FFF8D9F80000416901F40051416106F09D
:1053C0001DFC000702D4D9F8000008E0484600F0B0
:1053D0000DF9D9F80000416901F00801416106F0BA
:1053E0000DFCC00202D4D9F8000009E000214846B3
:1053F00000F03AF8D9F80000416901F480114161E8
:1054000006F0FCFB800202D4D9F8000009E000217C
:10541000484600F02DF8D9F80000416901F4001168
:10542000416106F0EBFB400002D4D9F8000008E02F
:105430004846FFF7D4FBD9F80000416901F08041EC
:10544000416106F0DBFB40077FF5FDACD9F80000B9
:105450004468610704D54846FFF7DAFBD9F8000035
:10546000416821434160EEE4D0F8040405F04CBDEE
:10547000D0F8040405F04ABD2DE9F04F8BB00028A8
:1054800000F080800446056890F8BD0328B900202C
:1054900084F8BC03204600F08AF8032084F8BD039A
:1054A000E86BC00501D400202061206806F0A2F955
:1054B000206804F1040E0A9004F11C0A9EE80E58BC
:1054C0009AE8C007D4E90C50CDE9085003A88DE84C
:1054D000005880E8C0070A9805F0D8FF00284ED190
:1054E00020680021002506F09BFB01206168002256
:1054F0000FE0C3EBC30704EB870787F83D0087F88D
:105500003C200132A7F8423087F83F50C7E91155D7
:105510003D65D3B29942ECD8002000220EE0C3EBE7
:10552000C30304EB830383F8FD0183F8FC210132FC
:1055300083F8FF01C3E98100C3F81002D3B2994296
:10554000EDD8A06804F1140E0A9004F1240A226830
:10555000D4E903379EE840589AE80007D4E90C5094
:10556000CDE9085002A8CDE9007680E8005805A8EA
:1055700080E8000710460A9A06F076F830B102205B
:1055800084F8BD0301200BB0BDE8F08F002084F843
:105590003800012084F8BD03606A012802D120464A
:1055A000FFF7DCFA206806F053F80020EBE77047BD
:1055B00010B50446C06838B1022803D00848D3218A
:1055C00006F094FC012100E00021D4F8040405F069
:1055D000E9FCD4F80404BDE8104005F0AEBC00BFFF
:1055E000BB7B0408D0F8040405F0C7BCD0F8040461
:1055F00005F0CABC10B5044690F8BC03012801D1DF
:10560000022010BD012084F8BC0384F83810206803
:1056100006F01DFB002084F8BC0310BDD0F8042464
:1056200000F57171104605F0CABC10B5044690F83B
:10563000BC03012801D1022010BDA26A012120680B
:10564000012A84F8BC1306D1A169012903D0816B1A
:1056500041F48031816305F0EFFF206806F06AFABB
:10566000002084F8BC0310BD10B50446D0F8040433
:1056700005F0E4FC2068D0F8001E41F00101C0F8FC
:10568000001E206A20B10348016841F00601016054
:1056900010BD00BF10ED00E00248016841F08071CC
:1056A000016070470C48025880B500F0CFFF0549F3
:1056B000054A0968C1F30211515C01F01F01C8409D
:1056C00080BD00BF20440258543D010810B53C4C39
:1056D000A36AA26AC2F3051CE26A616B02F00102CE
:1056E000C1F3CC01BCF1000F02FB01F100EE101A76
:1056F000B8EE400A0AD003F00303022B0AD063B9C4
:10570000216889060CD49FED311A13E00021C0E90D
:10571000001153E09FED2C1A0CE09FED2A1A09E0CE
:1057200021682B4AC1F3C10122FA01F101EE101ADE
:10573000B8EE411A02EE10CA9FED263AB8EE422AA0
:10574000216B6FF35F2181EE021A02EE101AB8EEA0
:10575000422A216BC1F3462100EE032AB7EE000A6C
:1057600003EE101A32EE002AB8EE433A21EE021A86
:1057700033EE002A81EE022ABCEEC22A80ED002A16
:10578000216BC1F3064102EE101AB8EE422A32EE46
:10579000002A81EE022ABCEEC22A80ED012A216B8A
:1057A000C1F3066102EE101AB8EE422A32EE000A88
:1057B00081EE000ABCEEC00A10EE101A816010BD26
:1057C000004402580024744A001B374B0024744CD8
:1057D0000090D0030000003910B53C4CA36AA26AC7
:1057E000C2F3053CE26AC2F30012E16BC1F3CC01E3
:1057F000BCF1000F02FB01F100EE101AB8EE400AF6
:105800000AD003F00303022B0AD063B9216889068A
:105810000CD49FED311A13E00021C0E9001153E0D0
:105820009FED2C1A0CE09FED2A1A09E021682B4A03
:10583000C1F3C10122FA01F101EE101AB8EE411ACA
:1058400002EE10CA9FED263AB8EE422AA16B6FF322
:105850005F2181EE021A02EE101AB8EE422AA16B05
:10586000C1F3462100EE032AB7EE000A03EE101A38
:1058700032EE002AB8EE433A21EE021A33EE002A45
:1058800081EE022ABCEEC22A80ED002AA16BC1F390
:10589000064102EE101AB8EE422A32EE002A81EEDC
:1058A000022ABCEEC22A80ED012AA16BC1F3066177
:1058B00002EE101AB8EE422A32EE000A81EE000A19
:1058C000BCEEC00A10EE101A816010BD00440258F0
:1058D0000024744A001B374B0024744C0090D00302
:1058E0000000003910B53C4CA36AA26AC2F3055C03
:1058F000E26AC2F30022616CC1F3CC01BCF1000F7B
:1059000002FB01F100EE101AB8EE400A0AD003F0D3
:105910000303022B0AD063B9216889060CD49FEDDA
:10592000311A13E00021C0E9001153E09FED2C1A59
:105930000CE09FED2A1A09E021682B4AC1F3C1014E
:1059400022FA01F101EE101AB8EE411A02EE10CA65
:105950009FED263AB8EE422A216C6FF35F2181EE6B
:10596000021A02EE101AB8EE422A216CC1F3462147
:1059700000EE032AB7EE000A03EE101A32EE002AF8
:10598000B8EE433A21EE021A33EE002A81EE022AE3
:10599000BCEEC22A80ED002A216CC1F3064102EE62
:1059A000101AB8EE422A32EE002A81EE022ABCEE2C
:1059B000C22A80ED012A216CC1F3066102EE101AA1
:1059C000B8EE422A32EE000A81EE000ABCEEC00AAE
:1059D00010EE101A816010BD004402580024744A71
:1059E000001B374B0024744C0090D003000000399A
:1059F000F8B5B0F5002F00F05680B0F5007F21D04B
:105A0000B0F5806F00F05C80B0F5006F00F064804E
:105A1000B0F5805F23D0B0F5804F2DD0B0F5803F3A
:105A200039D0B0F5807F40F078804949486800F06F
:105A30000702042A00F271804848DFE802F0595E4C
:105A4000707D620042494868C0F38212042A00F265
:105A500064804248DFE802F04C51637055003C49D5
:105A60004868C0F30232042A00F257803B48DFE85E
:105A700002F03F44566348003548C068C0F30271E5
:105A800005294AD83148DFE801F003595D574F46F0
:105A9000FFF70AFE50E02E480068C00328D501A891
:105AA000FFF79AFE47E02A49C86800F44030B0F595
:105AB000003F26D0B0F5803F3AD000282DD11CE021
:105AC0002349C868C0F34252042A26D82348DFE895
:105AD00002F00F14263318001D49C868C0F3026293
:105AE000042A1AD81D48DFE802F003081A270C0020
:105AF00001A8FFF7EBFD02981EE001A8FFF76CFE7E
:105B000010E0086810F0405010D0B0F1805F0BD06A
:105B1000B0F1005F01D10F480EE000200CE001A8B9
:105B2000FFF7E0FE019807E00B4805E0074803E0B7
:105B300001A8FFF7D7FE039804B080BD01A8FFF7C6
:105B40004BFED8E701A8FFF7CDFED4E70090D003C5
:105B50004C440258001BB70000093D000080BB0008
:105B60002DE9F0470446C078AC4F000721D5606EA0
:105B70004FEA3051032908D8DFE801F002090E1678
:105B8000F96941F40031F9610EE0012612E0201DAF
:105B9000022102F003FE04E004F12400022102F0DD
:105BA0007DFE064630B9606E396C21F44011084321
:105BB000386400266078BA46C00701D1354629E02E
:105BC000606D04280BD83546DFE800F0030C111790
:105BD0001700F869354640F40030F8610DE0012502
:105BE000012718E0201D002102F0D8FD04E004F197
:105BF0002400002102F052FE0546002D2F460AD156
:105C0000DAF84000002520F00700616D0843524695
:105C1000CAF840003746607880072CD5A06D4FEA5F
:105C2000B01004280CD8DFE800F0030E1319190097
:105C3000DAF81C00514640F40030CAF81C000DE0B0
:105C40000125012618E0201D002102F0A7FD04E037
:105C500004F12400002102F021FE0546002D2E460D
:105C60000AD1DAF84000002520F4E070A16D084365
:105C70005246CAF840003E466078400702D4B0461B
:105C800057462BE0D4F8A40057464FEA705004283A
:105C900009D8DFE800F0030C11171700F86940F489
:105CA0000030F8610EE001254FF0010816E0201DDC
:105CB000002102F073FD04E004F12400002102F051
:105CC000EDFD0546002DA84608D1B86C002520F44E
:105CD0006000D4F8A4100843B046B86460780007A8
:105CE0002BD5D4F8A8004FEA3060042809D8DFE8A3
:105CF00000F0030B10161600F86940F40030F8614C
:105D00000DE00125012719E0201D002102F046FDCC
:105D100004E004F12400002102F0C0FD0546002D3E
:105D20002F460BD1DAF84800002520F0E060D4F8C7
:105D3000A81008435246CAF848004746E078800752
:105D400025D5A06C4FEA301003280BD8DFE800F00F
:105D500012020D12DAF81C00514640F40030CAF865
:105D60001C0007E00125012612E0201D022102F09F
:105D700015FD0546002D2E460AD1DAF83C00002517
:105D800020F03000A16C08435246CAF83C003E4661
:105D90006078C0062CD5E06D4FEA303004280CD86E
:105DA000DFE800F0030E13191900DAF81C00514661
:105DB00040F40030CAF81C000DE00125012718E06E
:105DC000201D002102F0EAFC04E004F1240000217F
:105DD00002F064FD0546002D2F460AD1DAF8400096
:105DE000002520F4E040E16D08435246CAF8400027
:105DF00037466078800626D5206E4FEA3040052869
:105E000009D8DFE800F013030D131313201D01213F
:105E100002F0C4FC09E00125012615E010440258F7
:105E200004F12400012102F039FD0546002D2E4623
:105E30000AD1DAF84000002520F4E020216E084362
:105E40005246CAF840003E466078400626D5D4F84F
:105E5000AC004FEA3070052809D8DFE800F01103E4
:105E60000B111111201D012102F098FC07E0012502
:105E7000012714E004F12400012102F00FFD054682
:105E8000002D2F460BD1DAF84800002520F0E04025
:105E9000D4F8AC1008435246CAF848003746607838
:105EA000000621D5E06E90B1B0F1005F0AD0B0F1EC
:105EB000805F2DD1DAF81C00514640F40030CAF85A
:105EC0001C0004E0201D012102F068FC0546002DA5
:105ED0002E460AD1DAF84000002520F04050E16E4D
:105EE00008435246CAF840003E46E078C00702D157
:105EF000B046574623E0606C574603280BD8DFE8CE
:105F000000F013020E13F86940F40030F8610BE062
:105F100001250126E9E701254FF001080FE0201DCA
:105F2000022102F03BFC0546002DA84607D1F86B84
:105F3000002520F00300616C0843B046F863A078A8
:105F4000400601D4474617E0D7F8F00340F48070CC
:105F5000C7F8F003FEF7FEFA0646D7F8F003C005CF
:105F600007D4FEF7F7FA801B6428F6D90325032728
:105F700002E0002D2F4611D02078C0074FD0A06F2F
:105F80004FEAF000052834D8DFE800F03C03363C47
:105F90003C3C201D012102F001FC32E0DAF86010E7
:105FA0005346D4F8B000414011F4407F0BD0196E35
:105FB0001A6E21F4407142F480321A661A6E22F48D
:105FC00080321A661966B0F5807F40F01A82FEF7BB
:105FD000C1FA064641F2883903250327DAF8600042
:105FE000800700F10B82FEF7B5FA801B4845F5D912
:105FF000C2E70125012613E004F12400012102F08B
:106000004DFC0546002D2E460AD1DAF84400002545
:1060100020F03800A16F08435246CAF844003E46BB
:106020002078800722D5606F052809D8DFE800F0C6
:1060300011030B111111201D012102F0AFFB07E02C
:106040000125012713E004F12400012102F026FCC0
:106050000546002D2F460AD1DAF84400002520F02D
:106060000700616F08435246CAF84400374620785B
:10607000400724D5D4F89000052809D8DFE800F0BF
:1060800011030B111111201D012102F087FB07E004
:106090000125012614E004F12400012102F0FEFB99
:1060A0000546002D2E460BD1DAF84800002520F0D9
:1060B0000700D4F8901008435246CAF848003E46FC
:1060C0002078800626D5D4F88C004FEA3070052859
:1060D00009D8DFE800F011030B111111201D002178
:1060E00002F05CFB07E00125012714E004F1240025
:1060F000022102F0D3FB0546002D2F460BD1DAF822
:106100004400002520F0E040D4F88C1008435246AB
:10611000CAF8440037462078400626D5D4F89800BF
:106120004FEAB020052809D8DFE800F011030B1171
:106130001111201D002102F031FB07E0012501268D
:1061400014E004F12400022102F0A8FB0546002D12
:106150002E460BD1DAF84800002520F4E050D4F8A0
:10616000981008435246CAF848003E462078000678
:1061700026D5D4F89C004FEA7030052809D8DFE80E
:1061800000F011030B111111201D002102F006FB7C
:1061900007E00125012714E004F12400022102F0A8
:1061A0007DFB0546002D2F460BD1DAF8480000256F
:1061B00020F46040D4F89C1008435246CAF84800C6
:1061C00037462068010717D5D4F88010B1F5805FF5
:1061D0000AD104F12400022102F060FB002818BF5C
:1061E00001272068D4F88010DAF84420534622F4BE
:1061F00040521143CAF84410C10617D5D4F8941080
:10620000B1F5807F0AD104F12400022102F046FB9F
:10621000002818BF01272068D4F89410DAF8482025
:10622000534622F440721143CAF84810000321D5A6
:10623000D4F8A000B0F5003F0ED0B0F5803F05D0F7
:1062400080BB201D002102F0A9FA04E004F1240023
:10625000022102F023FB0546002D2E460BD1DAF871
:106260004800002520F44030D4F8A01008435246DE
:10627000CAF848003E46A07840072AD5D4F88400E2
:10628000B0F5401F17D0B0F5001F0ED0B0F5801F3D
:1062900040F0AF80DAF81C00514640F40030CAF8F4
:1062A0001C0008E001250126E5E704F12400012196
:1062B00002F0F4FA0546002D2F460BD1DAF844001F
:1062C000002520F44010D4F8841008435246CAF840
:1062D00044003746A078C00701D13E4621E0E06C7B
:1062E000B0F5803F08D0D0B9DAF81C00514640F430
:1062F0000030CAF81C0004E0201D022102F04EFA12
:106300000546002D2E460CD1DAF83C00002520F47D
:106310008030E16C08435246CAF83C00DDE70125B5
:1063200001262068810008D504F12400022102F032
:10633000B5FA002818BF01262068810319D5E16F3E
:106340006FF0010202EB3122022A0AD34FEA312216
:106350003AB1012A50D1DAF81C2042F40032CAF8CE
:106360001C203DB9DAF8442022F440721143CAF8E7
:1063700044103546C10207D5DAF8401021F000413B
:10638000226F1143CAF84010C10008D5DAF8001096
:1063900021F48041D4F8B4201143CAF800108102DE
:1063A00007D5DAF8401021F08071A26E1143CAF8C7
:1063B000401041000CD5DAF8001021F40041CAF871
:1063C0000010D4F8B810DAF800201143CAF8001011
:1063D000B0F1FF3F07DCDAF83C0020F04050216DBF
:1063E0000843CAF83C00002D18BF01252846BDE827
:1063F000F087012501276DE70125BBE75346D4F857
:10640000B00000F440711A68B1F5407F22F47C516D
:1064100003D1064A02EA1012114319606FF31F30CC
:10642000196E0025084318668CE500BFCFFFFF00FA
:106430002DE9F843002800F000810446814D2868CA
:1064400000F00F00884688420BD2286820F00F0029
:1064500040EA08002860286800F00F00404540F03E
:10646000EC802068D04F41070AD52169BA6902F053
:106470007002914204D9BA6922F070021143B961E5
:1064800001070AD56169FA6902F07002914204D9E4
:10649000FA6922F070021143F961C1060AD5A169B7
:1064A000FA6902F4E062914204D9FA6922F4E062E6
:1064B0001143F96181060AD5E1693A6A02F0700276
:1064C000914204D93A6A22F070021143396210F005
:1064D00002010AD0E268BB6903F00F039A4204D9B3
:1064E000BB6923F00F031A43BA61C20738D0B869F9
:1064F00020F47061D4E9010211430328B96105D089
:10650000022807D1396889030DD496E039688901DA
:1065100009D492E00128396802D1C90503D48CE07E
:10652000490740F18A803969A94621F007010843EB
:106530003861FEF70FF8064641F28835386900F0F9
:1065400038006168B0EBC10F06D0FEF703F8801B7E
:10655000A842F3D9032071E020684D4600F0020103
:1065600051B1E168BA6902F00F02914204D2BA69EE
:1065700022F00F021143B961296801F00F01414572
:106580000AD9296821F00F0141EA08012960296828
:1065900001F00F01414550D141070AD52169BA697F
:1065A00002F07002914204D2BA6922F070021143E3
:1065B000B96101070AD56169FA6902F07002914276
:1065C00004D2FA6922F070021143F961C1060AD5BA
:1065D000A169FA6902F4E062914204D2FA6922F4F4
:1065E000E0621143F96180060AD5E069396A01F079
:1065F0007001884204D2396A21F070010843386280
:1066000000F064F8B969C1F303212F4A515CBB69FA
:1066100003F00F03D25C01F01F0120FA01F102F038
:106620001F00184A21FA00F01060174A0648006857
:106630001160BDE8F843FEF71BBA012001B0BDE8C8
:10664000F08300BF002000520C00002080B500F055
:106650003DF80B490A68C2F3032209681A4B01F09E
:106660000F019A5C595C02F01F0220FA02F201F05D
:106670001F00044922FA00F0086003490A6080BD47
:1066800018440258140000201000002080B5FFF7C5
:10669000DDFF0C490C4A0968C1F30211515C01F09D
:1066A0001F01C84080BD00BF80B5FFF7CFFF05497F
:1066B000054A0968C1F30221515C01F01F01C8407D
:1066C00080BD00BF1C440258543D0108364908698A
:1066D000C0F3C20003280CD0022828D048BB0868A9
:1066E0008006374858BF70470968C1F3C101C840E8
:1066F00070478A6A886AC0F3051CCB6A486B03F04E
:106700000103C0F3CC00BCF1000F03FB00F000EE6E
:10671000100AB8EE400A0ED002F00302022A0CD092
:1067200072B9086880060ED49FED241A15E020483F
:1067300070471E487047002070479FED1F1A0CE0FD
:106740009FED1C1A09E008681D4AC0F3C10022FA37
:1067500000F001EE100AB8EE411A02EE10CA9FEDE9
:10676000193AB8EE422A086B6FF35F2081EE021AE5
:1067700002EE100AB8EE422A086BC0F3462000EE83
:10678000032AB7EE000A013032EE000A21EE000AB9
:1067900001EE100AB8EE411A80EE010ABCEEC00A02
:1067A00010EE100A704700BF0044025800093D0077
:1067B000001BB7000024744A001B374B0024744CA4
:1067C0000090D0030000003970B586B00028234E39
:1067D000234814460D461FD0D6F8D01000F50060AF
:1067E00041F00401C6F8D010D6F8D01001F0040131
:1067F000019101994FF4007101910221029103214D
:10680000049100210391059101A9FDF7C5FD3068B0
:10681000E40120F07E401BE0D6F8D01041F00101E9
:10682000C6F8D010D6F8D01001F0010101910199FD
:106830004FF4807101910221029103210491002102
:106840000391059101A9FDF7A7FD306820F0FE70C6
:1068500044EA05010843306006B070BD1044025898
:1068600000000258F8B5002800F07781044600784F
:10687000CD4EC0074AD0306900F03801B06A102907
:1068800005D0182909D100F00300022805D130688D
:1068900080033BD56068C8BB5FE1606868B1B0F554
:1068A000803F06D0B0F5A02F30681CD140F4802086
:1068B0003060306840F480301BE0306820F4803075
:1068C0003060306820F480203060FDF743FE0546DC
:1068D000306880031AD5FDF73DFE401B64284FF059
:1068E0000300F5D94EE120F480303060306820F4A8
:1068F00080203060FDF72EFE05463068800305D409
:10690000FDF728FE401B6428F7D93AE1207880077C
:106910004ED5306910F03801B06A18D0182908BF78
:106920005FEA807013D0E068002831682CD021F035
:10693000190108433060FDF70DFE05463068400739
:106940000CD4FDF707FE401B0228F7D919E1306887
:10695000400703D5E068002800F0FF80FDF7F4FD54
:1069600041F20301884208D820697168402821F467
:106970007C311AD141F4003019E0706820F0FE40FB
:10698000216940EA016012E021F001003060FDF76A
:10699000E1FD0546306840070AD5FDF7DBFD401BE9
:1069A00002284FF00300F5D9ECE041EA00307060B6
:1069B0002078C00651D5306900F03801B06A082946
:1069C00005D018290BD100F00300012807D1306849
:1069D000C00517D5E069802840F0BF8012E0E0696B
:1069E0000028306825D040F080003060FDF7B2FD0F
:1069F00005463068C00505D4FDF7ACFD401B0228F4
:106A0000F7D9BEE0FDF7A0FD41F20301884208D8A6
:106A1000206A7168202821F0F8411BD141F08040A4
:106A20001AE0F06820F07C50216A40EA0160F060D2
:106A300013E020F080003060FDF78CFD05463068E3
:106A4000C0050AD5FDF786FD401B02284FF0030064
:106A5000F5D997E041EA806070602078000721D581
:106A600060690028706F0ED040F001007067FDF77C
:106A700071FD0546706F800714D4FDF76BFD401B58
:106A80000228F7D97DE020F001007067FDF762FD74
:106A90000546706F800705D5FDF75CFD401B022899
:106AA000F7D96EE02078800623D5A06900283068E9
:106AB0000ED040F480503060FDF74CFD0546306844
:106AC000800416D4FDF746FD401B0228F7D958E094
:106AD00020F480503060FDF73DFD054630688004AD
:106AE00007D5FDF737FD401B02284FF00300F5D90D
:106AF00048E02078400732D4656A002D00F0EF802E
:106B0000306900F03800182850D1B16A012D306B7F
:106B100023D001F00302A36A9A421ED1C1F30511EA
:106B2000E26A914219D10146226B6FF35F21013A6B
:106B3000914212D1C0F34621626B013A91420CD1CD
:106B4000C0F30641A26B013A914206D1C0F3066040
:106B5000E16B0139884200F0C280012012E0D6F8D2
:106B6000000440F48070C6F80004FDF7F3FC05460D
:106B7000D6F80004C00507D4FDF7ECFC401B6428E0
:106B8000F6D9032001B0F0BDA06878B3012806D083
:106B90000528306F40F0A58040F004003067306F6A
:106BA00040F00100A3E000BF00440258306820F02C
:106BB00080703060FDF7CEFC022D05460AD13068AA
:106BC00080012CD5FDF7C6FC401B02284FF00300C6
:106BD000F5D9D7E73068800140F18180FDF7BAFC34
:106BE000401B02284FF00300F4D9CBE7306F20F0B0
:106BF00001003067306F20F004003067FDF7AAFC19
:106C0000054641F28837306F80077FF575AFFDF795
:106C1000A1FC401BB8424FF00300F4D9B2E7B06AC0
:106C200040F2F3318843A16A226B0843511E626B24
:106C30004FF47E4303EB4222E36A6FF35F2192B28B
:106C400040EA0310B0625018A16B4FF4FE0202EB51
:106C5000014101F4FE010844E16B4FF0FE4202EBFA
:106C6000016101F0FE41084430634FF6F871F06AAB
:106C700020F00100F062706B8843A16C40EAC10013
:106C80007063F06A20F00C00216C0843F062F06A37
:106C900020F00200616C0843F062F06A40F480303A
:106CA000F062F06A40F40030F062F06A40F4802054
:106CB000F062F06A40F00100F062306840F08070ED
:106CC0003060FDF747FC04463068800107D4FDF7CB
:106CD00041FC001B02284FF00300F5D952E70020C9
:106CE00050E720F001003067306F20F0040030677B
:106CF000FDF730FC054641F28837306F80073FF5DD
:106D0000FBAEFDF727FC401BB8424FF00300F4D95F
:106D100038E70000F0B587B0032280F8342004463D
:106D2000C06B0F4603280BD14FF08050A16BA24ED1
:106D30000843A063A06B38B320680125866357E041
:106D40008FB3B7F5004FEFD0B7F5804F41D100209A
:106D5000CDE904002068002102F058FB80013BD4FB
:106D600004A9204602F09EFB0028DFD19DF8160002
:106D700040072BD5A16C2068090401F0F1FF002821
:106D8000D4D1206802214EE06369D4E90112032BBB
:106D9000256925D8E06DB0F5807F20D0B0F5007F63
:106DA0001ED004231CE00020CDE90400206800214F
:106DB00002F02CFB80010FD404A9204602F072FBE4
:106DC0000028B3D19DF81600C00722D14FF0806093
:106DD000ACE74FF00060A9E74FF40060A6E702239C
:106DE0002068CDE900533B4602F014FB20680025E3
:106DF0004FF4007101F0E5FF28B1216801258E6391
:106E0000A16B0843A063012084F83400284607B032
:106E1000F0BDA16C2068090401F0A2FF00287FF4F6
:106E200085AF2068002101F0E6FF7FE77047000092
:106E300080B5D0F83CC0D0E9183E9A0F0A70C3F371
:106E40008362BCF1010F4A70C3F301628A704FEA9A
:106E50001342CA704FEA13220A714FEA1E524B7155
:106E60004FF00003CA80CEF303420A72CEF3C03261
:106E70004A72CEF380328A72CEF34032CA72CEF3B7
:106E800000320A734B7337D0BCF1000F40F087809B
:106E900040F6FC72836E02EA8E0242EA93720A6145
:106EA000826EC2F3C2630B75C2F302634B75C2F309
:106EB00042538B75C2F38243CB75C2F3C2330B7658
:106EC000D1F810C00B7E0CF1010C03F00703023364
:106ED0000CFA03FCC0F84CC00B7A03F00F0E012330
:106EE00003FA0EFE4FEA5E2303FB0CF3C0E914E342
:106EF0004FF40073836512E0B0F86A200EF03F0390
:106F000042EA03420A614FF480630A6903EB82227A
:106F10004FF40073C0E91323C0E91523826EC2F356
:106F200080334B76C2F3C61302F07F028B76CA76AB
:106F3000C06EC20F0A77C0F341724A77C0F3826213
:106F40008A77C0F38352CA77C0F3405281F8202079
:106F5000002281F82120C0F3004381F82230C0F3E1
:106F6000C03381F82330C0F3803381F82430C0F37C
:106F7000403381F82530C0F3003381F82630C0F368
:106F8000812381F82730C0F30123C0B281F8283073
:106F9000400881F82900012081F82A0009E00168F1
:106FA0007C4A8A630122816B41F08051816380F8C1
:106FB0003420104680BD00BFFF0FE01F80B500F1F8
:106FC0003C0E9EE80C5081E80C50C26C0A61026DC8
:106FD0004A61426D8A61826D0020CA6180BD10B530
:106FE000816C04460068090402F018F820B1A16B16
:106FF0000843A063002010BD2068002102F006FABB
:10700000C0F3432010BD00002DE9F04397B088463F
:10701000604E0446FDF79EFA81462068002102F08A
:10702000F5F9800123D42068402101F0CAFED0B9CF
:10703000A16C2068090401F093FEA0B94FF0FF3065
:107040001190402012906020139002201490002094
:1070500015900120169011A9206802F0E1F820682F
:1070600002F04AF8E0B10146A06BA06301E04FF4E2
:107070000061206801258663A26B1143A16384F837
:1070800034504FF4007101F09CFE28B121680125B5
:107090008E63A06384F83450284617B0BDE8F083AF
:1070A00001AF2068416B11F4957F416B14D1080446
:1070B00009D5002504E0206802F0C7F978510435AD
:1070C000202DF8D12F44FDF745FAA0EB090001303F
:1070D0004FF00041E5D1CCE7090753D4416B890754
:1070E00052D4416B89060CD52021C2E702F0ADF9DC
:1070F0003860FDF72FFAA0EB0900013046D00437C5
:107100002068416BC904F1D4234981636FF0FF0CFF
:10711000DDE9011ECBB2DDE903729D0988F800505C
:10712000C3F340130CEA112545EA116188F80130D8
:10713000A8F802109EFA8EF1C8F80410390A88F8EF
:107140000870D5B288F80910C7F303510CEA174349
:1071500088F80A10E918A8F80C10C2F3852188F8FD
:107160000E10C2F3012188F80F10290988F81010B9
:1071700002F00F0188F8111000259DF8171088F80B
:1071800012107EE7082174E7022172E74FF00041F8
:107190006FE700BFFF0FE01F3A0F0018B0B586B0D1
:1071A00078B3044690F8340048B9A169002000295A
:1071B000207701D10220A061204600F087F903204A
:1071C00084F83400204600F03BF8D0B901A92046ED
:1071D000FFF71AFFA8B99DF814009DF81510E26B8F
:1071E000012A04D1084304D04FF4007003E00020CA
:1071F00001E04FF48070E0652046E168FFF78AFD0A
:1072000010B1012006B0B0BDFDF7A4F90546204637
:10721000FFF7E5FE04280CD0FDF79CF9401B013078
:10722000F5D14FF00040A063012084F83400032022
:10723000E8E700200121A063206384F83410E1E72F
:10724000F0B58FB004464FF48030FEF7D1FB054611
:107250009A48B5FBF0F6A0690228206803D10168BE
:1072600041F01001016000230196002100930022EB
:10727000002302F0CFF8206802F0E0F8B5EB460FEB
:1072800001D2022006E070008D49B5FBF0F0B1FBA1
:10729000F0F00130FCF74AFF00200490FDF75AF9A6
:1072A0000546206801F0C2FD40B1012184F8341088
:1072B000A26B1043A06308460FB0F0BD206801F038
:1072C000DBFD50B100202064206801F0AFFD0028F4
:1072D000EBD1206C012802D008E001202064206856
:1072E000002101F03DFD002840F083800020764E13
:1072F0004FF6FE7700210DE02068314601F04AFD8F
:10730000002876D12068002102F080F804994A1CF8
:10731000C10F04920029049908D1B94206D8206807
:10732000002101F01DFD0028E6D0BEE704994FF6CC
:10733000FE72914202D94FF08070B6E7410042D50B
:107340000121C001E1633ED5A06902283BD14FF481
:107350000070E0652068016841F00801016001F0FB
:1073600011FF0028A1D12068416B490107D4FDF726
:10737000F1F8401B01304FF00040F4D195E74FF099
:1073800080618163406BC00233D50120FFF74EFD61
:107390002068016841F00401016006E0FDF7DAF8B9
:1073A000401B013000F086802068416B8901F5D5D3
:1073B0004FF000718163416BC902BCD4132101609D
:1073C0004FF0FF3181630120ADF80E00206802F01C
:1073D00019F888B1E06B032811D12068042102F06C
:1073E00015F8000D606404A92046FFF721FD002870
:1073F00045D04FF0805058E74FF0806055E7206847
:1074000001F0C4FD00287FF450AF206800212D4D0D
:10741000A847206704212068A847606708212068E2
:10742000A847A0670C212068A847E16B0329E06703
:10743000D3D020680DF10E0101F00AFE00287FF480
:1074400034AFE06B0328C8D0BDF80E10A164090466
:10745000206801F0B2FD00287FF427AF20680021EA
:10746000A847206604212068A84760660821206894
:10747000A847A0660C212068A847E066ADE7A16C8C
:10748000002320680A0401F067FD00287FF40DAF97
:1074900020684FF4007101F094FC48B12168E14A82
:1074A0008A63A16B08430121A06384F8341002E7CA
:1074B000002100E74FF00040F7E600BF00350C0068
:1074C000102101000D940008000010C17047000059
:1074D0002DE9F04F87B0984616460D460446FDF755
:1074E00039F87DB1824694F8340001280ED100218C
:1074F000A16308EB0600626D90420FD9A06B40F0CB
:10750000007006E0A06B40F0006002E0A06B40F06D
:107510000050A063012007B0BDE8F08F032084F87D
:1075200034004FF0FF3320680227E26BC162012A6A
:1075300001934FEA482302934FF09003039304977B
:10754000059118BF7602069101A901F069FE206835
:10755000B8F1020FC16841F04001C16004D3314667
:10756000276301F0C5FC04E001212163314601F0ED
:10757000D9FC58B12168AB4A8A63A16B0843A06368
:107580000120002184F834002163C4E7DDF8409035
:10759000DDF808B02068416B11F4957F2ED1BBF166
:1075A000200F406B16D310F4004013D000270AE0E0
:1075B000206801F04AFF010A30707170010C000E62
:1075C000B170F0700437202F05EB0706F0D1ABF156
:1075D000200B3546FCF7BEFFA0EB0A004845D9D387
:1075E000206890498163A06B40F00040A0630120B7
:1075F00084F834000020206303208CE7C168B8F1D0
:10760000020F21F04001C160416B10D311F4807171
:107610000DD0E16B03290AD001F088FD0146002856
:10762000206804D07F4A8263A06B0843A7E7416BC0
:1076300009070CD4416B89070FD4416B890612D41A
:1076400079498163012084F83400002063E775499B
:107650008163A06B40F0080091E772498163A06BE1
:1076600040F002008BE76F498163A06B40F020007F
:1076700085E700BF2DE9F04F87B0984615460E46C6
:107680000446FCF767FF7EB1824694F83400012877
:107690000ED10021A16308EB0500626D90420FD965
:1076A000A06B40F0007006E0A06B40F0006002E0CC
:1076B000A06B40F00050A063012007B0BDE8F08F40
:1076C000032084F834004FF0FF332068E26BC1627E
:1076D000012A01934FEA482302934FF09003CDE92A
:1076E0000331059118BF6D02069101A901F098FDC3
:1076F0002068B8F1020FC16841F04001C16005D3B4
:1077000020212163294601F057FD04E01021216367
:10771000294601F06BFD58B12168424A8A63A16B8A
:107720000843A0630120002184F834002163C4E7EA
:10773000DDF840906D46DDF808B02068416B11F42B
:107740008D7F34D1BBF1200F406B1ED310F48040ED
:107750001BD0002712E001780091427841EA022113
:107760000091827841EA02410091C07841EA0060CC
:1077700000902946206801F081FE0437202F06EB97
:107780000700E8D1ABF1200B0646FCF7E3FEA0EBC7
:107790000A004845D1D3206822498163A06BA063C9
:1077A000012084F8340000202063032085E7C168AD
:1077B000B8F1020F21F04001C160416B10D311F408
:1077C00080710DD0E16B03290AD001F0AFFC0146B6
:1077D0000028206804D0134A8263A06B0843A0E706
:1077E000416B09070CD4416B89070FD4416BC90663
:1077F00012D40D498163012084F8340000205CE735
:1078000008498163A06B40F008008AE7054981635D
:10781000A06B40F0020084E702498163A06B40F056
:1078200010007EE7FF0FE01F3A0F0018704790F836
:10783000810070472DE9F84F076804463E69D7F884
:1078400014B00BEA0605D7F8089090F8818015F07F
:10785000400A0BD105F02400042809D1616F2046AD
:107860008847216F20468847012002E0002008E079
:10787000002005F00501012903D1216F204688472A
:10788000012005F02601022904D1616F2046BDE8E0
:10789000F84F084708B1BDE8F88F28070BD4300728
:1078A00061D51BF400605ED02068816941F40061FD
:1078B0008161BDE8F88F206819F4404F816941F07B
:1078C00008018161816941F010018161816941F4A0
:1078D00000618161016921F0080101610ED0B8F1F8
:1078E000040F06D0A16FC96941B1B8F1030F00F0D0
:1078F000BA80E16FC969002940F0A680806810F461
:10790000404F21D11CE0E068102804D32068616E4C
:10791000006B01C105E0082805D3388E616E21F89F
:10792000020B616607E0206890F83000616E087015
:10793000606E01306066B4F86A000138A4F86A002D
:10794000B4F86A000028DED1204601F0A5FE01202F
:1079500084F88100D4F88400002875D02046BDE862
:10796000F84FFFF763BF15F4587F94D0BAF1000FBA
:107970000AD02068D4F8841041F00401C4F88410BF
:10798000816941F040018161A8050AD52068D4F8D9
:10799000841041F00101C4F88410816941F4007140
:1079A0008161E80505F020000AD52168D4F884201B
:1079B00042F00802C4F884208A6942F480728A6125
:1079C00050B12068D4F8841041F08001C4F88410CC
:1079D000816941F020018161D4F8840000283FF4DE
:1079E0005AAF206840F26B32016821F0010101605A
:1079F0000169914309F440420161B2F5404F3CD125
:107A0000816821F440418160E06F50B11D490165FA
:107A1000FBF7F2FC28B1D4F8840040F04000C4F831
:107A20008400A06F00283FF436AF16490165FBF7CC
:107A3000E3FC00283FF42FAFD4F8840040F040006E
:107A4000C4F88400BDE8F88FB8F1030F0BD0B8F18B
:107A5000040F0DD0B8F1050F7FF41DAF2046BDE82F
:107A6000F84F00F06FBA2046BDE8F84F00F068BA52
:107A70002046BDE8F84F00F0AEB8012084F8810040
:107A80006CE700BF4F970008F8B538B304460068AC
:107A900000224D4DA842A26208D04C4A904205D027
:107AA0004B4A904202D0E2680F2A17D8E1680123BE
:107AB000E26B083103EB5212C9084A43A8420BD0CB
:107AC0004349884208D0414B984218BF082A05D83C
:107AD000884218BF984203D1102A01D9012071E0D1
:107AE00094F8811031B9002084F88000204600F01D
:107AF00071F82068022184F88110016821F00101E9
:107B00000160D4F818C0BCF1806F616808BFB1F59E
:107B1000800F07D1A16B19B9016841F48051016050
:107B20004FF48001E3690029A56AE26B43EA05038B
:107B3000E56842EA030242EA0502D4F808E0D4E923
:107B400004768260626B656A42EA0C02A36B42EAC9
:107B5000050242EA0302236A42EA0702A76D42EAEB
:107B6000060242EA0302E36C42EA010242EA03022D
:107B7000A36C42EA0E0242EA030242EA0702C26032
:107B80000CD0026D490222F00102026514D5C168D1
:107B900021F00041626D1143C1600DE08168012256
:107BA00062F3CC2102228160816862F34A21816004
:107BB000016D21F00101016500200121C4F884005C
:107BC00084F8811001B0F0BD00380040003C004056
:107BD00000300140704770472DE9F047044690F8A7
:107BE0008000012861D00120D4F800901D4684F85F
:107BF000800017460E46FCF7ADFC94F88110012971
:107C000050D1002E54D0002F52D08046032084F84B
:107C100081000020C4F88400E665A4F86070A4F830
:107C200062706066A4F86800A4F86A002067A16822
:107C30006067B1F5C02F206803D1016841F400618D
:107C4000016041684FF6FF72914339444160016819
:107C500041F0010101606168B1F5800F03D1016855
:107C600041F400710160E068102827D36E1C14E015
:107C700020684169890707D4FCF76CFC6EB1A0EB62
:107C80000800A84209D3A7E0E16D04C90262E165DA
:107C9000B4F862000138A4F86200B4F86200002869
:107CA000E6D17DE0002084F880000220BDE8F08766
:107CB000002084F880000120BDE8F08707282FD934
:107CC0004FF6FC706E1C00F1020AC71C23E020680E
:107CD0004169890707D4FCF73DFCE6B1A0EB080039
:107CE000A84218D378E0B4F86210022907D3E16BF8
:107CF00029B1E16D04C902625046E16506E0E06D1C
:107D000030F8021BA9F82010E0653846B4F862107C
:107D10000844A4F86200B4F862000028D7D13FE01C
:107D20004FF6FC706E1C00F1020AC71C34E020689C
:107D30004169890707D4FCF70DFC6EB3A0EB08007E
:107D4000A84229D348E0B4F86210042909D3E16BB2
:107D5000412906D3E16D04C902624FF6FC70E1656A
:107D600015E0B4F86210022909D3E16B39B1E06D76
:107D700030F8021BA9F82010E065504607E0E16DDD
:107D8000097880F82010E06D0130E0653846B4F8DD
:107D900062100844A4F86200B4F862000028C6D15A
:107DA000204641462A4601F00BFD28B1D4F8840054
:107DB00040F02000C4F88400204601F06DFC002053
:107DC00084F88000012084F88100D4F88400002821
:107DD00018BF0120BDE8F087204601F05DFC0020BF
:107DE00084F88000D4F8840040F48070C4F88400E3
:107DF000012084F88100BDE8F0870000B0B504469A
:107E000090F88000012830D0012084F8800094F898
:107E10008100012826D1A1B3154692B3032084F82E
:107E200081000020C4F88400E165A4F86050A4F843
:107E300062506066C4E91C00A4F86800A4F86A00F7
:107E4000A068B0F5C02F04D12068026842F4006237
:107E50000260E268102A0AD3A06F8269B2F5804FEF
:107E60000FD124E0002084F880000220B0BDA06F74
:107E7000082A82690AD3B2F5005F18D0B2F5804FA4
:107E80000AD0002084F880000120B0BDB2F5804FF8
:107E900007D0B2F5005F0AD1B4F86220013252086F
:107EA00003E0B4F8622003329208A4F86220214A69
:107EB000214BC0E90F32214A0023C0E91323226875
:107EC000936823F4004393602032B4F86230FBF7E8
:107ED000EFFF48B1D4F8840040F01000C4F88400EB
:107EE000012084F88100B0BDD4E9000CA26F4FF6E8
:107EF000FF71D2694368B2F5807F23EA010118BFA0
:107F0000294441608168BCF5800F41F400418160E3
:107F1000016941F448710161016841F001010160AA
:107F200003D1016841F400710160002084F88000F1
:107F3000B0BD00BF959700089B97000865970008A3
:107F4000704770477047000010490A68042822F003
:107F5000040308BF42F004030B6070470248016845
:107F6000C26811440160704710A70020411E002024
:107F7000B0EB116F01D001207047044A5160F0212D
:107F8000034B1970072190601160704710E000E00A
:107F900023ED00E0FFF7E2BF70477047704770477E
:107FA000B0B504460068C26940F60F01D0F800E0A1
:107FB0000A42836800F07F806B4903EA010C6B4939
:107FC00001EA0E0111EB0C0100F08080D10718BF0F
:107FD0001EF4807107D001210162D4F8881041F0AD
:107FE0000101C4F88810910703F0010108D539B1E7
:107FF00002250562D4F8885045F00405C4F888507D
:10800000550708D539B104210162D4F8881041F030
:108010000201C4F8881011070CD50EF0200151EAB6
:108020000C0107D008210162D4F8881041F0080142
:10803000C4F8881011050BD51EF0806108D04FF4EC
:1080400000610162D4F8881041F02001C4F8881062
:10805000D4F88810002971D091060AD50EF02001BD
:1080600003F08052891804D0E16E11B12046884790
:108070002068D4F88810806801F0280100F04000E2
:10808000401855D0204601F0C7FE20688168490697
:1080900049D5816821F040018160A06F002842D05D
:1080A00033490165FBF7A8F9002847D0A06F016D9F
:1080B000BDE8B0400847910608D50EF0200C03F04B
:1080C000805111EB0C0101D0E16E15E0D1020AD50F
:1080D00013F4800107D04FF4801101622046BDE8FF
:1080E000B040FFF75BBF11060BD50EF0800103F423
:1080F0000003C91805D0216F01B32046BDE8B04088
:10810000084702EA0E01490619D5016821F040012D
:1081100001602020C4F88000002020672046BDE8D0
:10812000B04000F0BFB82046BDE8B040FFF737BF11
:108130002046FFF734FF0020C4F88800B0BD1002CD
:1081400007D51EF0804004D02046BDE8B040FFF7C0
:1081500024BFD001F2D5BEF1FF3FEFDC2046BDE8E1
:10816000B040FFF719BF00BF01000010200100045C
:10817000079E000810B5B0B10446D0F8800028B9B9
:10818000002084F87C00204600F026F82420C4F863
:1081900080002068016821F001010160204601F0A3
:1081A0004DFE012801D1012010BDA06A10B120466A
:1081B00001F094FD2068416821F49041416081689C
:1081C00021F02A018160016841F00101016020462F
:1081D000BDE8104001F0E5BD70472DE9F8430446C5
:1081E000D0F8800020280AD10E4600294FF0010067
:1081F00006D0174622B194F87C00012803D1022052
:1082000001B0BDE8F083012084F87C004FF0000944
:108210002120C4F888901D46C4F88000FCF79AF924
:10822000A4F85470A4F856700746A168B1F5805FB1
:1082300007D1206900281CBF30464E46B04606468E
:1082400001E04FF0000884F87C9018E08021009550
:10825000002220463B4601F0B7FFE0B91EB116F8F8
:10826000010B216805E038F8020B002621686FF346
:108270005F208862B4F856000138A4F85600B4F8BC
:1082800056000028E2D140210095002220463B46BE
:1082900001F09AFF08B10320B2E72020C4F8800063
:1082A0000020ADE770470000054C06A108A243235B
:1082B000204603F0BDFD0CA1204603F0B9FDFEE70A
:1082C000A4A400200D0A25733A2564203A0000007A
:1082D0002E2E2F5372632F73746D33326837787874
:1082E0005F69742E63000000486172644661756CBA
:1082F000745F48616E646C65720A000010B5174CBB
:10830000174818492060002061600121C4E902017A
:1083100004F110001421F8F7E2FB2046FCF76AF99B
:1083200020B111484FF4D57103F0E0FD0B48002156
:10833000FCF716F920B10C4840F2B11103F0D6FD5C
:1083400006480021FCF731F930B107484FF4DC71E1
:10835000BDE8104003F0CABD10BD00BF489F00201B
:1083600000540040FFECC0109B7B0408006881694A
:10837000890701D5002181628169C90718BF70474B
:10838000816941F00101816170470000F8B5044640
:1083900000688369DB0601D400202AE015460E46FA
:1083A0004F1C0AE04FB1FCF7D5F8002E4FF020012A
:1083B00013D0401BB04210D8206881698906F1D5DE
:1083C0001021C1612021C1612046FFF7CFFF206845
:1083D000494A4168114041600421606C084360646F
:1083E000202084F84100002084F8420084F84000F6
:1083F000012001B0F0BD00BF10B56FF39F210068F0
:10840000DDF808C0074CD0F804E019432EEA5C5EA2
:1084100041EA024104EA0E0441EA0C0121434160B1
:1084200010BD00BF009C00FC2DE9F8431D46DDF89F
:10843000208016460F4681465C1CD9F800008069F2
:108440003840C01BB0FA80F04009B04218D1002C6F
:10845000F3D0FCF77FF81DB1A0EB0800A842ECD9DF
:10846000D9F8440040F02000C9F84400202089F8E1
:108470004100002089F8420089F84000012000E016
:10848000002001B0BDE8F08370B515460E460446E5
:108490002068806940071DD4204631462A46FFF7F0
:1084A00075FF38BB2068816989060ED4FCF752F845
:1084B00016B1401BB042EBD9606C40F02000606404
:1084C000202084F84100002012E08169490703D58B
:1084D000218D09B1002070BD2021074BC161426888
:1084E0001A4042600020606484F8411084F8420021
:1084F00084F84000012070BD00E800FE70B515460C
:108500000E46044620688069800619D4204631460C
:108510002A46FFF73BFF88B9FCF71CF816B1401B51
:10852000B042EFD9606C40F020006064202084F8F5
:108530004100002084F8420084F84000012070BD12
:10854000002070BDF8B515460E4604464F1C206845
:10855000806980071BD4204631462A46FFF716FF64
:1085600098B9002FF3D0FBF7F5FF16B1401BB042CE
:10857000EDD9606C40F020006064202084F8410058
:10858000002084F8420084F84000012000E0002030
:1085900001B0F0BDB0B552004FF0000C4FF0370EF7
:1085A00000230EE0040F0EEB1075B0F1204F38BF22
:1085B00004F1300543F00104CD54000101F804C07A
:1085C00002339A42EED1B0BD0229034604D00129FC
:1085D00006D051B9002204E019460448FBF7A7BFB2
:1085E000012219460148FBF7A9BF7047000802584D
:1085F000FEE77047BCB50520FCF7A0FA40206049B3
:1086000008706048816841F001018160816801F073
:10861000010101910199816841F002018160816845
:1086200001F0020101910199816841F0040181602A
:10863000816801F0040101910199816841F008010C
:108640008160816801F0080101910199816841F020
:1086500010018160816801F0100101910199816828
:1086600041F080018160816801F0800101910199F0
:10867000416841F040014160416801F040010191D1
:108680000199016941F480210161016901F48021AE
:1086900001910199016941F480410161016901F48D
:1086A000804101910199016841F001010160016877
:1086B00001F0010101910199016841F0020101609D
:1086C000016801F002010191019950F8041C41F484
:1086D000803140F8041C50F8041C01F480310191F1
:1086E0000199016941F400110161016901F400116E
:1086F00001910199416841F001014160416801F037
:10870000010101910199016841F000610160016876
:1087100001F0006101910199C16941F00201C1615B
:10872000C06900F0020001900198FCF7B5FF272016
:10873000154C00210022A047144D2720A8470B20EC
:1087400001210022A0470B20A8472420012101225B
:10875000A0472420A8474E2001210222A0474E20F6
:10876000A847392001210322A0473920A8476520C6
:1087700002210022A04765202946BDE8BC400847E9
:1087800023ED00E0D8440258FD4A0008E14A000801
:108790000148FCF74FBB00BF949F0020F8B57F4F06
:1087A000BA6A02F00302032A01D1012074E00546EF
:1087B000386820F080600C463860FBF7CBFE064638
:1087C0003868000105D5FBF7C5FE801B0228F7D9E4
:1087D0005FE0B86A4FF47E43696820F47C30AA6891
:1087E000013903EB42222B686FF35F2192B240EA1A
:1087F00003301144EA684FF4FE03B86203EB02420F
:1088000002F4FE02881829694FF0FE4202EB016172
:1088100001F0FE410844B863002CF86A20F0C00063
:10882000696940EA0100F862F86A20F02000A9694D
:1088300040EA0100F8624FF6F871F86A20F0100083
:10884000F862F86B20EA0100E96940EAC100F863C8
:10885000F86A40F01000F86205D0012CF86A06D1E1
:1088600040F4801005E0F86A40F4002001E040F494
:108870000010F862386840F080603860FBF76AFEEC
:1088800004463868000106D4FBF764FE001B032889
:10889000F7D3032000E0002001B0F0BDF8B53F4F52
:1088A000BA6A02F00302032A01D1012074E00546EE
:1088B000386820F080500C463860FBF74BFE0646C7
:1088C0003868800005D5FBF745FE801B0228F7D9E4
:1088D0005FE0B86A4FF47E43696820F07C70AA6854
:1088E000013903EB42222B686FF35F2192B240EA19
:1088F00003501144EA684FF4FE03B86203EB0242EE
:1089000002F4FE02881829694FF0FE4202EB016171
:1089100001F0FE4108443864002CF86A20F44060FD
:10892000696940EA0100F862F86A20F40070A969F8
:1089300040EA0100F8624FF6F871F86A20F480709E
:10894000F862786C20EA0100E96940EAC1007864C5
:10895000F86A40F48070F86205D0012CF86A06D1FC
:1089600040F4000005E0F86A40F4800001E040F0C7
:108970008070F862386840F080503860FBF7EAFD9C
:1089800004463868800006D4FBF7E4FD001B03288A
:10899000F7D3032000E0002001B0F0BD00440258EE
:1089A00070B590B000F0CCF9384D05F50C7438482E
:1089B0002146F9F772FE0A2004F040FA0020002256
:1089C000214604F025FE002885F8340208D1002253
:1089D0002846214604F01CFE002885F8340216D0F3
:1089E000364E912336493046364A03F021FA95F83F
:1089F0003402354951F8202034A1304603F018FAEA
:108A000000200022214604F003FE10B070BD6E4627
:108A100040213046F8F763F81EA130462246F7F7AA
:108A20001BFE304604F047FD40F0080185F8340293
:108A30000829D5D16E4640213046F8F750F818A1E4
:108A400030462246F7F708FE304604F034FD40F089
:108A5000080185F834020829C2D16E46402130460B
:108A6000F8F73DF812A130462246F7F7F5FD3046FB
:108A700004F021FD40F0080185F834020829AFD147
:108A800000F02AF8002085F83402BEE7789700202D
:108A9000F83D0108257344454255475F4C6F670018
:108AA00025734D6F646275735F44617461000000EB
:108AB00025734A736F6E5F4461746100A4A4002043
:108AC0000F7704082979040818000020444542550E
:108AD00047203A28257329002DE9F04F9BB007ACB9
:108AE00030212046F7F7FBFF01A81821F7F7F7FF21
:108AF000624D9E2362492846624A03F099F9624911
:108B0000284603F095F9614800F50C752046294682
:108B100004F0A8FD8146002851D10095A223574DAD
:108B2000574E2846574F31463A4603F081F958A12F
:108B3000284603F07DF90DF14C0ADFF8E0B10AF1A7
:108B400009040DF11C0833E09DF855002E282FD0A4
:108B5000002846D09DF85400C00608D4AF2328460C
:108B600031463A4603F064F92846724907E0AB23E0
:108B7000284631463A4603F05BF928466C4903F033
:108B800057F9204601A904F0D3FDB3232846314606
:108B90003A46D8470198821267492846D847B423F5
:108BA000284631463A46D847284664492246D8479F
:108BB0004046514604F098FD0028C5D081462F4C10
:108BC000D6232F4920462F4A03F032F93C483DA1D5
:108BD00050F82920204603F02BF900201BB0BDE8F7
:108BE000F08F19A900981AAA04F0E6FB1A98BF237F
:108BF000416940890239214C01FB00F5199901FBBB
:108C000000F61F491F4A204603F012F9EA0AF30A48
:108C100037A1204603F00CF94F48C06B03280BD056
:108C200001281DD038BB154CC42315492046154AD0
:108C300003F0FEF83D491BE0104CCC23104D2046BC
:108C4000104E29463246D84735492046D847CD23CD
:108C5000204629463246D84732492046D8470AE0BE
:108C6000064CC82306492046064A03F0E1F82E497F
:108C7000204603F0DDF80120B0E700BFA4A40020E7
:108C80000F7704082979040865770408789700208D
:108C9000CAF4D0D420207C2020CEC4BCFEB4F3D0B3
:108CA000A14B6942207C20B6CCCEC4BCFEC3FB20C5
:108CB0007C20B3A4CEC4BCFEC3FB0D0A00000000A0
:108CC000180000204445425547203A5344436172FE
:108CD000645F56696577526F6F744469722066618C
:108CE0006C73652E0D0A282573290D0A00000000FB
:108CF0002564204D4220746F74616C206472697623
:108D0000652073706163652E0A2564204D422061E1
:108D10007661696C61626C652E0A000031BE0008E4
:108D20008A78040838780408B4770408F4770408CB
:108D3000D6780408DF780408E87804088378040803
:108D4000054806490022C0E900124FF48041C0E9FD
:108D50000221C0E9042270479CA300200070005249
:108D600010B586B00191372102914FF480710391C3
:108D7000002104914FF48051059101A9044600F0AF
:108D800067FB372141F28832204606B0BDE810402B
:108D900000F05CBA10B586B00191292102914FF420
:108DA00080710391002104914FF48051059101A934
:108DB000044600F04DFB204606B0BDE8104000F030
:108DC000FDBA10B586B00191102102914FF4807167
:108DD0000391002104914FF48051059101A90446AB
:108DE00000F036FB102141F28832204606B0BDE883
:108DF000104000F02BBA10B586B001910621029107
:108E00004FF480710391002104914FF4805105913A
:108E100001A9044600F01CFB062141F288322046DD
:108E200006B0BDE8104000F011BA000010B586B0E1
:108E30000021CDE90311CDE901114FF480510591D5
:108E400001A9044600F004FBA9484FF4FA51006858
:108E5000B0FBF1F041F288314843C043013006D005
:108E6000616B0906FAD5A348A063002001E04FF02A
:108E7000004006B010BD00BF10B586B04FF4D571EC
:108E80000191082102914FF4807103910021049116
:108E90004FF48051059101A9044600F0D9FA944895
:108EA0004FF4FA510068B0FBF1F041F288314843C9
:108EB000C043013013D0616B11F0450FF9D011F4AC
:108EC0000051F6D1606B40070CD4606BC0070BD12A
:108ED000606B400601D54020A063002006E04FF003
:108EE000004003E0042000E00120A06306B010BDB4
:108EF00010B586B00191122102914FF48071039157
:108F0000002104914FF48051059101A9044600F01D
:108F10009FFA122141F28832204606B0BDE8104087
:108F200000F094B910B586B00191112102914FF46F
:108F300080710391002104914FF48051059101A9A2
:108F4000044600F085FA112141F28832204606B02D
:108F5000BDE8104000F07AB910B586B00721019243
:108F600002914FF480710391002104914FF48051DC
:108F7000059101A9044600F06BFA072141F28832FD
:108F8000204606B0BDE8104000F060B910B586B0CC
:108F900000210222019102924FF44072CDE9032197
:108FA0004FF48051059101A9044600F051FA204682
:108FB00006B0BDE8104000F0D9B910B586B00191F7
:108FC000092102914FF440710391002104914FF463
:108FD0008051059101A9044600F03AFA204606B0F6
:108FE000BDE8104000F0C2B910B586B000213322B0
:108FF000019102924FF48072CDE903214FF4805128
:10900000059101A9044600F023FA332141F2883288
:10901000204606B0BDE8104000F018B910B586B083
:1090200001910D2102914FF480710391002104916F
:109030004FF48051059101A9044600F009FA0D2171
:1090400041F28832204606B0BDE8104000F0FEB87C
:10905000B0B586B000220323019202934FF48073CF
:10906000CDE903324FF480520C46059201A9054622
:1090700000F0EEF9E2484FF4FA510068B0FBF1F06D
:1090800041F288314843C04301301FD0696B11F071
:10909000450FF9D011F40051F6D1686B400718D490
:1090A000686BC00717D12869C0B2032817D1C2481E
:1090B000A863686910F4604F13D0410415D400040C
:1090C0004FF4805058BF4FF4803006E04FF000401E
:1090D00003E0042000E00120A86306B0B0BD012039
:1090E000FBE7000C20800020F7E74FF40050F4E786
:1090F00010000020C500200010B586B000210D2210
:10910000019102924FF48072CDE903214FF4805116
:10911000059101A9044600F09BF90D2141F2883226
:10912000204606B0BDE8104000F090B810B586B0FB
:1091300000210C22019102924FF48072CDE90321AB
:109140004FF4805105910446C06801A940F08000A9
:10915000E060E06820F04000E060204600F078F930
:109160000C21074A204600F071F8E168B0F1007266
:1091700021F0800108BF1046E16006B010BD00BFBD
:1091800000E1F50510B586B000210B220191029295
:109190004FF48072CDE903214FF48051059101A96C
:1091A000044600F055F90B2141F28832204606B002
:1091B000BDE8104000F04AB810B586B00191192101
:1091C00002914FF480710391002104914FF480517A
:1091D000059101A9044600F03BF9192141F28832BA
:1091E000204606B0BDE8104000F030B810B586B09B
:1091F0000191182102914FF4807103910021049193
:109200004FF48051059101A9044600F021F918217D
:1092100041F28832204606B0BDE8104000F016B892
:1092200010B591E80850CC6802464362C0F828C0E7
:1092300044EA0E000B69184349690843D16A21F0DA
:10924000FF0101430020D16210BD000010B56C4B3E
:109250004FF4FA541B68B3FBF4F3424C53430246F9
:10926000DB4301333FD0506B2042FAD010F4005062
:10927000F7D1506B400739D4506BC00739D104F196
:10928000800090631069C0B2884235D15069364978
:10929000084233D0002833DB410034D4810034D479
:1092A000C10034D4010135D4410136D4C10137D4D1
:1092B000010238D4410239D481023AD4C1023BD4EC
:1092C00041033CD481033DD4C1033ED401043FD4C7
:1092D000410440D4810441D400074FF4000058BF3A
:1092E0004FF4803010BD4FF0004010BD042090635B
:1092F00010BD0120906310BD012010BD002010BDE5
:109300004FF0007010BD402010BD802010BD4FF404
:10931000807010BD4FF4007010BD4FF4806010BD20
:109320004FF4006010BD4FF4805010BD4FF400505A
:1093300010BD4FF4804010BD4FF4004010BD4FF4FD
:10934000003010BD4FF4802010BD4FF4002010BD40
:109350004FF4801010BD4FF4001010BD4FF480008A
:1093600010BD00BF4500200008E0FFFD24494FF478
:10937000FA520968B1FBF2F141F288325143C94314
:10938000013110D0426B12F0450FF9D012F40052A7
:10939000F6D1416B490709D4416BC90708D1064989
:1093A0008163002106E04FF0004103E0042100E06A
:1093B0000121816308467047C500200010494FF421
:1093C000FA520968B1FBF2F141F288325143C943C4
:1093D000013110D0426B12F0450FF9D012F4005257
:1093E000F6D1416B042211F0040104BFC522C0F282
:1093F0002002826301E04FF000410846704700BF41
:1094000010000020006800F0030070470844406925
:1094100070470000844641EA020000991843019A0F
:109420000843DCF804101043034A114001430020B4
:10943000CCF80410704700BF002CC0FF0146006844
:1094400040F0030200200A607047D0F880007047A7
:1094500080B5D1E900EC8B680246C86843EA0C038A
:10946000C2F808E018430969034B0843D168194062
:1094700001430020D16080BDC0E0FEFF02460968C4
:109480000020C2F88010704710B5544C01202070A5
:10949000F8F754FD18B9207800F0FE00207020780D
:1094A00010BD00BF2DE9F04786B00C460546FBF71E
:1094B00051F8064628680821FFF783FC002855D19B
:1094C000A96C28680904FFF74BFC00284ED14FF027
:1094D000FF3000900820019030200290022003907D
:1094E000002004900120059069462868FFF798FE47
:1094F0002868FFF779FDC8BB002740F22A5A4FF0D1
:1095000000094FF000082968486B10EA0A0F486B01
:1095100014D100F40020384308D10846FFF795FF26
:1095200080462868FFF791FF81460127FBF712F874
:10953000801B01304FF00040E5D117E000070FD449
:10954000486B80070ED4486B80060DD409488863A9
:1095500098FA88F199FA89F0C4E90001002005E041
:10956000082002E0022000E02020886306B0BDE869
:10957000F08700BF3A0F001810B5184C012020707A
:10958000F8F7E4FC10B9FFF77FFF2070207810BDDA
:1095900010B58AB011480078C0070CD108460329DD
:1095A0000BD81446DFE800F018020B1101A8F8F7F9
:1095B000BFFC07980EE003200EE004200CE001A899
:1095C000F8F7B6FC0898208005E001A8F8F7B0FC91
:1095D0000898400A206000200AB010BD84000020D6
:1095E00080B59C4608464FF0FF3311466246F8F7B7
:1095F000D5FC08B1012080BDF8F7A0FC0028FBD104
:10960000002080BDFFF740BF80B59C4608464FF064
:10961000FF3311466246F8F7CFFC08B1012080BD48
:10962000F8F78CFC0028FBD1002080BD10B5FB4C66
:1096300015484FF4800120600020616007214FF041
:109640000072A060C4E903124FF08062C4E9050211
:10965000C4E90700C4E909004FF08040E16260639B
:1096600004F138002421F7F73AFA2046FEF70CFA05
:1096700020B106484FF4BC7102F038FC2068016844
:1096800041F00101016010BD003800409B7B0408DF
:10969000EA48FEF7CFB800BF016840F26F32D1F858
:1096A00014C08B6943F008038B618B6943F010038E
:1096B0008B610B6823F001030B600B6923EA020244
:1096C0000A618A6822F440428A605FEA8C6290F8FC
:1096D00081300BD5042B09D0D0F8842042F08002D1
:1096E000C0F884208A6942F020028A6190F88130B3
:1096F0005FEA4C620BD5032B09D0D0F8842042F0EE
:109700000402C0F884208A6942F040028A615FEA5C
:109710008C5209D5D0F8842042F00102C0F8842090
:109720008A6942F400728A615FEACC5209D5D0F8A6
:10973000842042F00802C0F884208A6942F48072D2
:109740008A610021A0F86210A0F86A107047806B4F
:109750000021A0F86A10A0F86210012180F88110A1
:10976000FEF764B810B5846BF9F732FF022800D118
:1097700010BD2046FFF790FFD4F8840040F01000A1
:10978000C4F88400012084F881002046BDE8104020
:10979000FEF74CB8806BFEF7D4BB806B90F881105D
:1097A000072908BF7047816FC969B1F5807F01D172
:1097B000FEF7C6BB0068016941F00801016170470E
:1097C000F8B514460D460646571C30684069000738
:1097D00008D4FAF7BFFE002FF7D0401BA042F4D305
:1097E000032000E0002001B0F0BDB0B504460088C1
:1097F000A18801384F3182B28BB20020502100F095
:109800001FF9D4E900014143E068B1F5004F05DAE2
:10981000490089B2BDE8B04000F002B94FF6FF71CF
:109820004FF6FF7500F0FCF8D4E900014843E26808
:109830004000013081B25019BDE8B04000F0F0B8EE
:109840002DE9FE4FA2EB000B0446BBF1000F0D46C5
:10985000A3EB010602DD012002900AE0584618BF82
:109860004042BBF1000F18BF4FF0FF3BCDF808B0EE
:109870008346002E02DD0120019009E0304618BF2A
:10988000CBF10000002E18BF4FF0FF3601960646C0
:1098900037464FF000084FF000094FF0000AB3457B
:1098A000C8BF5F4618E0A0B20C9AA9B200F01AF83F
:1098B00009EB0B000AEB0601B0EB0709D8BF8146A4
:1098C0000298C8BF0444B1EB070AD8BF8A46019882
:1098D000C8BF054408F101081FFA88F08742E2DAA0
:1098E000BDE8FE8F1CB5431C01F1010C14469AB271
:1098F0001FFA8CF300F0A4F8200A8DF806000DF191
:10990000060002218DF8074000F07EF81CBD2DE90D
:10991000FC411C46DDF8208015460E46074600F047
:109920008FF8611C6A1C891BD21B01FB02F54FEAF0
:1099300018200DF106048DF806008DF8078004E06C
:109940000221204600F060F8013D002DF8D1BDE86D
:10995000FC8100002DE9FC414FF0FF35F8F70AFCCF
:10996000FFF764FE4FF48051244F0022594C2046EB
:109970000026B847DFF88880C820C0474FF48051E0
:1099800001222046B847C820C047A4F500604FF424
:1099900080510122B8476420C0474FF6FF74194F29
:1099A0004FF6FE7819E0701CC0B237F8100003F0D3
:1099B00045FA023611E00136F0B217F8100000F057
:1099C00069F802E0012100F01FF80136F0B237F922
:1099D000101007EB4000A942F4DCF0B237F8100099
:1099E000A042E8D04045DED0AFB200200021009771
:1099F000F022F023FFF78BFFBDE8FC813D45000816
:109A00003DCE0008FC010020DFF8CCC04FF47A7393
:109A10000A4601466046FEF7DFB800BF1CA40020DE
:109A200010B52D4C0A4601462046FEF7E7F92046C0
:109A3000FDF7FDFE0128FAD110BD00BF1CA40020D7
:109A40007CB5050A124E8DF800506C468DF8010069
:109A5000100A8DF80200080A8DF80320251D8DF8E4
:109A60000400180A8DF805108DF806002A208DF8DC
:109A70000730B04704212046FFF7C6FF2B20B04730
:109A800004212846FFF7C0FF2C20B0477CBD00BF53
:109A9000959A00081CB58DF807004FF4005100227C
:109AA0000C4C2046FAF74AFD142003F0CCF90DF1D6
:109AB0000701094801224FF47A73FEF78DF84FF43D
:109AC000005101222046FAF739FD142003F0BBF9BA
:109AD0001CBD00BF000C02581CA40020B0B550B142
:109AE00004460D4605E02078F6F78DFD04F8010BDD
:109AF000013D002DF7D1B0BD80B5FAF783FFBDE879
:109B00008040FEF747BA0000B0B5CCB039A83E4C53
:109B10004C21F6F7E4FF31A82021F6F7E0FF02A878
:109B2000BC21F6F7DCFF206820F004002060002054
:109B300001903648016821F001010160006800F0E1
:109B400001000190E06840F44040E060E06800F40B
:109B5000404001900198E0688004FCD522203990B3
:109B6000012040243C903D9400253F900220042198
:109B70004290439544913221CDE945100A21CDE927
:109B800047100C20CDE9490539A84B95FCF76AFE32
:109B900018B11F48642102F0A9F93F203190032039
:109BA000CDE9320508254FF48060CDE93454369470
:109BB0000221CDE9370431A80224FCF739FC18B1A1
:109BC0001348752102F092F91248CDE902053020C0
:109BD000CDE90405C020CDE90645089000204FF4EA
:109BE0008031CDE90900199015914FF44011CDE96C
:109BF000220102A8FBF7B4FF18B105488A2102F040
:109C000075F94CB0B0BD00BF0C4802582C04005888
:109C10009B7B04080810050010B51748D0F8801089
:109C2000174C41F47001C0F8801014490A6842F0E2
:109C300001020A6000220A610B6823400B608A61FE
:109C4000CA610A628A62CA620A634A638A63CA6331
:109C50000A644A640B6823F480230B600A6609498E
:109C60000968B2EB517F02D10121074A11604FF020
:109C70000061016010BD00BF08ED00E00044025823
:109C80007FEDF6EA0010005C0881005180B570B1EC
:109C90000078A0F13001052912D80020DFE801F09A
:109CA00003090E1811120B490020887680BD0A2086
:109CB00080BD084801218176002080BD064803E070
:109CC0000B2080BD03480C3002F0D2F8002080BD8C
:109CD00002F0DAFEA0030020D86D0108816ACA07ED
:109CE00008D00268D0F82CC0536823F4003343EA4C
:109CF0000C0353608A0708D50268D0F830C0536857
:109D000023F4803343EA0C0353604A0708D5026802
:109D1000D0F834C0536823F4802343EA0C03536023
:109D20000A0708D50268D0F838C0536823F4004306
:109D300043EA0C035360CA0608D50268D0F83CC059
:109D4000936823F4805343EA0C0393608A0608D592
:109D50000268D0F840C0936823F4005343EA0C0330
:109D600093604A0612D50268D0F844C05368BCF527
:109D7000801F23F4801343EA0C03536006D1536819
:109D800023F4C00C836C43EA0C035360090658BFEC
:109D900070470168C06C4A6822F400221043486092
:109DA0007047BCB500210446C0F88810FAF7D2FB12
:109DB000216805460A6812070BD56FF07E404FF404
:109DC00000110090002220462B4600F0FDF970B9EA
:109DD0002168086840070CD56FF07E404FF4800181
:109DE0000090002220462B4600F0EEF908B1032037
:109DF00007E02020C4F88000C4F88400002084F824
:109E00007C0002B0B0BD806B0021A0F85E10A0F80D
:109E10005610FEF7C4B800000168074B0A6822F428
:109E200090720A608A681A408A602021C0F8841003
:109E30000021C166704700BFFEFFFFEFFEB504467C
:109E4000006804F108038D4D8D4E0ECB676E1943EB
:109E500063690B43E1690B433B4307682F40894D1E
:109E60003B430360A842436823F4405342EA0302A1
:109E70004260A2691CBF236A1A4383683340824E42
:109E80001A438260B042C26A804E22F00F03626AB7
:109E900043EA0203C36228D07D4B984232D07D4B07
:109EA00098423CD07C4B984246D07C4B984200F084
:109EB00050807B4B984200F05880A84200F06180AF
:109EC000784B984200F06980774B984240F07B8055
:109ED000736DB446C3F3C206052E00F275800123EC
:109EE000DFE806F07367696B6D6F736DB44603F05E
:109EF0000706052E00F268800023DFE806F0665AA8
:109F00005C5E6062736DB44603F00706052E00F2D6
:109F10005B800023DFE806F0594D4F515355736DB8
:109F2000B44603F00706052E00F24E800023DFE85A
:109F300006F04C4042444648736DB44603F00706B1
:109F4000052E00F241800023DFE806F03F3335376D
:109F5000393B736DB44603F00706052E34D8002351
:109F6000DFE806F03327292B2D2F736DB44603F05D
:109F70000706052E28D80023DFE806F0271B1D1F43
:109F80002123B36DB44603F00706052E1CD8022327
:109F9000DFE806F01B0F11131517736DB446C3F3FA
:109FA000C206052E10D80123DFE806F00F030507CF
:109FB000090B042309E0082307E0102305E0202310
:109FC00003E0402301E0B4468023A8427A4810D041
:109FD000B1F5004F1DD1082B4FF0010127D8DFE864
:109FE00003F0058DCCCC90CCCCCC9400FCF74EFB90
:109FF0008FE0402B32D0042B33D0082B35D0102BE0
:10A0000054D0202B5CD0022B40F0B680FBF74CFBE9
:10A010002FE0082B4FF0010114D8DFE803F0058F83
:10A02000AEAE92AEAEAE9600FCF730FB91E0102BD8
:10A0300000F0AC80202B6ED0402B40F09E804FF47F
:10A04000004068E0102B00F0AC80202B00F08380F3
:10A05000402B40F092804FF400407CE04FF40040F1
:10A060002EE06846FBF7B8FB02E06846FBF73AFCD7
:10A07000019800287ED0626A22E000BFF369FFCF1A
:10A08000FFF4FF11000C0058004400400044025847
:10A0900000480040004C0040005000400078004064
:10A0A000007C00400014014000100140DCF800007A
:10A0B00065468006414803D52968C1F3C101C840FF
:10A0C0003F4931F812106268B0FBF1F002EB420137
:10A0D00088424FF0010150D3130398424DD8010E2E
:10A0E000000210EB520041F100010023F6F714FAD0
:10A0F000A0F54071334A91423AD93DE0FCF7D4FAD9
:10A1000007E06846FBF768FB02E06846FBF7EAFBFE
:10A11000019878B3626A2A4931F81210B0FBF1F065
:10A1200061684A0802EB4000B0FBF1F04FF6F071B5
:10A13000014021D0C0F34200084319E0FCF7B4FA13
:10A1400007E06846FBF748FB02E06846FBF7CAFBFE
:10A15000019878B1626A1A4931F81210B0FBF1F037
:10A16000616800EB5100B0FBF1F080B2102803D31E
:10A170002168C860002100E001214FF00110002299
:10A18000C4E91A022267084603B0F0BDDCF80000FB
:10A19000654680060948BED52968C1F3C101C8409B
:10A1A000B9E7DCF80000654680060448D3D5296885
:10A1B000C1F3C101C840CEE700093D000090D003C3
:10A1C0000C3E0108FFFC0F002DE9F843DDF820905C
:10A1D000984616460F460168044609F10105C8690C
:10A1E0003840C01BB0FA80F04009B04225D1002DA4
:10A1F000F5D0FAF7AFF92168B9F1000F0A6820D05D
:10A20000A0EB080048451CD8500744BFC8695FEA66
:10A210000050E4D54FF400600862086820F4D07064
:10A220000860886820F0010088602020C4F8800061
:10A23000C4F8840004F188000FE0002001B0BDE8FC
:10A24000F08322F4D0700860886820F001008860F4
:10A250002020C4F8800004F1840020210160002047
:10A2600084F87C000320E9E7F8B51E4615460C4645
:10A27000074601F0BDFF78B34FF48071DDF820C0D0
:10A28000DDE9063E21801222B9897F89A18067809D
:10A290002181DF490968E7800029227418BF2C3129
:10A2A000E16000270E49012261610E494770027684
:10A2B0004FF0FF32877606824382A0F814E0A0F8C0
:10A2C00016C0C0E901120178C26001F03401457680
:10A2D000CA31C461017000E0FF2778B201B0F0BD5F
:10A2E00063770408F1BE000810B514460A46012140
:10A2F00002F084FA38B10178C26941F060019480BB
:10A300000170002000E0FF2040B210BD10B51446DF
:10A310000A46012102F072FA38B10178C26941F0AF
:10A320006001D4600170002000E0FF2040B210BD49
:10A3300010B514460A46012102F060FA38B10178DE
:10A34000C26941F0600154610170002000E0FF200B
:10A3500040B210BD2DE9F8431C46DDF82080DFF83F
:10A3600040900B461546CDF800800E460746C8477C
:10A370003846CDF8008021462A462346C84738464D
:10A38000CDF8008031463A462346C8472846CDF8E6
:10A39000008031462A462346C847BDE8F88300BFFF
:10A3A000A5A300082DE9FE4FE44F98463F6891466B
:10A3B00097F850600C460546B6070C9E0CD5FF6C0E
:10A3C0002846214600964A464346B246B8470028EA
:10A3D0005CD0DA4856460768A9EB050001B2A8EB45
:10A3E000040200EBE13013B280EAE13002EBE33229
:10A3F0000FFA80F84FF0FF3000294FF0FF3982EA62
:10A40000E332C8BF4FF00109002BC8BF01200FFA8B
:10A4100082FB02903B682846214632469847D84541
:10A420001ADAB2464FEA6B07002611E04744C349E7
:10A4300038B25845A8BF4D44029804440A6828B26F
:10A44000A8BFA7EB0B0721B2136852469847013605
:10A4500030B25845EADB19E04FEA680A002712E0FB
:10A46000DA440FFA8AF04D4440450298A8BF0444EC
:10A47000E94821B2026828B2A8BFAAEB080A13680B
:10A4800032469847013738B24045E9DBBDE8FE8FD8
:10A49000022888BF7047E049096801EBC00010F846
:10A4A000501FCA071CBF41F002010170704700BF76
:10A4B000022888BF7047D84A126802EBC000C16406
:10A4C000032180F8501070472DE9F84F8046DFF8DF
:10A4D000489314460A9D8242BCBF044690468B4670
:10A4E000D9F800008B42B8BF9B4690F858201E4612
:10A4F000B8BF0E46910709D5476D0FFA88F00FFADD
:10A500008BF1009522B233B2B847A8B10FFA86FAA0
:10A5100024B20DE0474606E0D9F800102A460B6841
:10A5200031469847013738B2A042F5DD0BF1010BF7
:10A530000FFA8BF65645EDDDBDE8F88FE0B5B6496C
:10A54000844609688A88C988013ACDF800C0481E47
:10A5500012B203B200200021FFF7B6FF8CBD00BF8E
:10A5600080B5AD49096890E80C50006901F12C07ED
:10A5700087E80C50C86380BD844601608280591F03
:10A58000C3804FF00410CCF82000501FACF824001A
:10A59000ACF82610ACF81C0040F20110ACF81E100C
:10A5A00045F65D41ACF840000020CCF82C00CCF81A
:10A5B0003C00CCF83600CCF83200ACF846104FF630
:10A5C000FF71CCF842100021CCE90400CCF818004F
:10A5D00005E00CEBC102D064013182F85000032980
:10A5E000F7D18D490120C1F800C0704701468A4A61
:10A5F00001201160704700BF87490968A1F8440035
:10A60000704700BF84490968A1F84200704700BF45
:10A61000E09B0020B0B5804D296891F84800C20742
:10A620001CBF00F0FE0081F84800086900284C6952
:10A6300018BFA04224D0002C48618C611AD0A17DA3
:10A64000890717D5217A090714D5E189C289914272
:10A650000BD1618A428A914207D1218A028A9142B2
:10A6600003D1A18A828A914204D0204602F02AF9BD
:10A6700028684069017A044601F097012831017287
:10A6800044B1207A810603D5204602F083F9207A6E
:10A69000000700D4B0BD204601F0EEFD204602F0D8
:10A6A000E8F82046BDE8B04001F0B8BD00284FF002
:10A6B000FF0C18BF00293CD0DAB370B54FEA421C3A
:10A6C0004FF0000E0324002504E04E194C55C6F847
:10A6D0001CE02035AC45F8D102704FF0000C416011
:10A6E00015490226C0F80A10C0F80EC04A49096888
:10A6F0008A880029CD88A2F1010206724282A5F162
:10A70000010282824FF003020363827518BF2C316D
:10A71000C0E906C140F202210A4A0184112180F8F1
:10A7200022100749C0E909120F2180F82C10BDE85A
:10A7300070404FFA8CF0704700007DEFE09B0020E6
:10A74000FFFF1F00FFFF1084002802D0027A92074B
:10A7500001D4FF2023E0B0B5B0F80EC0028AA1F802
:10A7600000C04A80837DB0F812E0848ADD07A1F83A
:10A7700004E0CC8009D00CF103050D800332AEF16A
:10A7800003054A808D80E51ECD809B07BDE8B04063
:10A7900004D590F82C00104401304880002040B2CD
:10A7A0007047002802D0027A930701D4FF2004E00A
:10A7B000816142F060010172002040B2704710B523
:10A7C000002802D0027A930701D4FF2013E00B89FE
:10A7D00042F0600490F82CE00FFA83FC0472C1612F
:10A7E0000CF10102724505DB991C80F82C1004F075
:10A7F000BF010172002040B210BD000048B1017AD3
:10A8000001F09701283101720349096808610020AD
:10A8100000E0FF2040B27047E09B002010B5194CCB
:10A82000104921600021C4E901010C20E160C4E964
:10A8300004102046C4E90611FDF79CFC20B10A482B
:10A8400040F2511101F052FB2068202101620168A1
:10A8500041F02001016010210162016841F0100106
:10A86000016010BD004800409B7B040810B5054CFA
:10A870000549204601F0A8FA2046BDE81040FDF742
:10A880008FBB00BFA4A40020B4020020D0F818128F
:10A8900019B10020C1F81402704702207047B0B50A
:10A8A0000446D0F8185200F0E1FAD4F81812002942
:10A8B000C5F80C0209D0D4F81C0205F50371C26872
:10A8C000D5F8040290470020B0BD0220B0BD0000C2
:10A8D000B0B50D4D81210446A84701212046A84767
:10A8E00082212046A847D4F8180250B1D4F81C029F
:10A8F00040688047D4F81802F5F7E7FD0020C4F857
:10A9000018020020B0BD00BF37AD000810B5D0F868
:10A910001C1269B1D0F8184294F80002FF2807D041
:10A9200094F801228B6821469847FF2084F80002A2
:10A93000002010BD0A22024902800846704700BF6D
:10A94000480100204322024902800846704700BFA8
:10A95000C00000204322024902800846704700BF21
:10A96000040100204322024902800846704700BFCC
:10A9700054010020B0B50446007C8121022238B188
:10A980004023204600F0C4FA01210222402308E0BF
:10A990004FF40073204600F0BBFA012102224FF46D
:10A9A0000073204600F0B4FA8221032208232046D7
:10A9B00000F0AEFA4FF40770F5F758FD0028C4F820
:10A9C000180210D00546D4F81C0200688047002009
:10A9D000C5F814020121C5F81802207CD5F804221C
:10A9E00018B1402303E00120B0BD4FF400732046AE
:10A9F00000F09AFA0020B0BD80B5D0F8181241B12D
:10AA0000027C002AD1F804224FF0010103D0402338
:10AA100003E0022080BD4FF4007300F085FA0020AF
:10AA200080BD002903D0C0F81C120020704702200E
:10AA30007047D0F818220020C2F804127047D0F8EE
:10AA400018320020C3F80812C3F810227047000023
:10AA500070B50D460978044611F0600211D0202A25
:10AA600029D1EA88A2B10806D4F8186218D4687807
:10AA7000314686F80002204686F8012200F05CF894
:10AA800019E068780A2816D10C490122204610E006
:10AA9000D4F81C12002268788B68294698470AE08F
:10AAA000D4F81C1268788B6831469847EA882046AB
:10AAB000314600F05BF8002070BD00BF600500204B
:10AAC000D0F818229AB1D2F8141200294FF00101DF
:10AAD0000ED180B5C2F814128121B2F81032D2F82A
:10AAE000082200F0B5FA0021BDE8804000E0022114
:10AAF0000846704780B5D0F814225268904700206D
:10AB000080BD80B513460A46002100F00DFA0020F2
:10AB100080BD80B513460A46002100F099FA002056
:10AB200080BD10B58021044600F076FA0021204651
:10AB3000BDE8104000F070BA80B50323C0F8F431CE
:10AB40001346C0F808210A460021C0F80C3100F075
:10AB5000EBF9002080BD80B50521C0F8F41100217B
:10AB60000022002300F0E0F9002080BD80B5022320
:10AB7000C0F8F431134682610A460021C36100F037
:10AB800067FA002080BD80B50421C0F8F4110021CF
:10AB90000022002300F05CFA002080BD10B52B4C91
:10ABA0000A4603A0214600F06DF8204610BD00BF04
:10ABB00043444320436F6E666967000012220148D8
:10ABC0000A8070479801002010B5204C0A4603A067
:10ABD000214600F057F8204610BD00BF43444320F3
:10ABE000496E746572666163650000000422014865
:10ABF0000A807047BC01002010B5144C0A4603A01F
:10AC0000214600F03FF8204610BD00BF53544D6967
:10AC100063726F656C656374726F6E696373000055
:10AC200010B50A4C0A4603A0214600F02BF8204636
:10AC300010BD00BF53544D33322056697274756194
:10AC40006C20436F6D506F7274000000640500202B
:10AC5000B0B50A4A10681A23946800190B800BD00B
:10AC6000074D5468A91C0822FDF794FC05F1120158
:10AC700004222046FDF78EFC0148B0BD00E8F11F1C
:10AC8000C0010020B0B5002828D04FF0000C864647
:10AC900003E00CF1010C0EF1010E9EF80030002BC8
:10ACA000F7D15FFA8CFC022505EB4C0EA2F800E010
:10ACB0004FF0030C81F800E04FF0010E09E0ECB218
:10ACC00045F0010301300A5502355FFA83FE4FF06B
:10ACD000000C01F80EC00278002AF0D1B0BD0000CF
:10ACE000032805D8C000034921FA00F0C0B270471C
:10ACF0000220704700020102002811D0D0F814325F
:10AD000013B10023C0F8143209B1C0F8101280B595
:10AD1000012180F8FC11027000F0ACF8002080BD29
:10AD20000220704780B5D0F82002F9F79BFFBDE8FC
:10AD30008040FFF7D5BF80B5D0F82002F9F76CFF4F
:10AD4000BDE88040FFF7CCBFB0B5002904460BD06A
:10AD5000D4F814024269002A46D094F8FC01032872
:10AD600042D1204690473FE0D4F8F401022834D184
:10AD7000D4E90710814208D9081A83B2E06120465D
:10AD800011461A46FFF7C5FE13E0A169814217D3A9
:10AD9000B1FBF0F202FB101090B9D4F8F801814237
:10ADA0000ED20021002220460025FFF7B2FEC4F893
:10ADB000F851002100220023204600F0B5F80CE0F5
:10ADC000D4F81402C16829B194F8FC01032801D118
:10ADD000204688472046FFF7BEFE94F8000201286F
:10ADE00002D1002084F800020020B0BD10B5002977
:10ADF00004460AD0D4F81402826942B394F8FC01E4
:10AE0000032824D12046904721E0D4F8F4010328F8
:10AE10001DD1D4E9431081420CD9091A814238BFAF
:10AE2000084683B2C4F80C11204611461A46FFF7B3
:10AE300068FE0CE0D4F81402016929B194F8FC0111
:10AE4000032801D1204688472046FFF79CFE0020BA
:10AE500010BD0020704780B5012180F8FC11D0F8AA
:10AE60001422017952689047002080BDD0F820025A
:10AE7000F9F729BF017879BB10B518490922C1F843
:10AE80000404C0F820121648C1E900020220002282
:10AE9000C1E90302C1E9060201200A62C1E90920F1
:10AEA000C1E90B020846FAF7E7FA20B10D4840F273
:10AEB0005F1101F01BF8094C80212046F9F763FE71
:10AEC000002140222046F9F762FE0121802220461F
:10AED000F9F75DFEBDE8104000207047949F002008
:10AEE00000000840BB7B040801F07F02D0F820027C
:10AEF000C2EBC20200EB820000F13E02090658BF1D
:10AF000000F5FF72107870470020704700207047EE
:10AF100080B59446D0F820021A466346F9F7DCFE65
:10AF2000BDE88040FFF7DCBE80B5D0F82002F9F71D
:10AF300005FFBDE88040FFF7D3BEB0B50021002279
:10AF4000402304464025FFF7E3FF8021C4F8105159
:10AF5000002240232046FFF7DBFFD4F8181201201F
:10AF60000029256284F8FC0105D0D4F81402217967
:10AF70004268204690470020B0BD90F8FD21014670
:10AF8000002081F8FC21704790F8FC11032907D1BB
:10AF9000D0F81412C96919B180B58847BDE880405E
:10AFA00000207047024600201174704780B5D0F829
:10AFB0002002FAF71FFBBDE88040FFF791BEB0B555
:10AFC00000F502750446284600F04BF894F8080294
:10AFD0000122B4F80E3200F01F01C4F8F421022956
:10AFE000C4F8F83107D001290AD071B920462946A2
:10AFF00000F05EF80EE02046294600F06FF909E007
:10B000002046294600F0D3F904E000F080012046F4
:10B0100000F002F80020B0BD80B5D0F82002F9F7AA
:10B02000B0FEBDE88040FFF75BBE80B5D0F82002DF
:10B03000FAF7FBFABDE88040FFF752BE014690F8F0
:10B04000FC01042281F8FD01002081F8FC217047F9
:10B0500080B5D0F82002F9F7CBFEBDE88040FFF7BD
:10B060003FBE0A7802704A7842704A8842808A88D5
:10B070008280C988C1807047002903D0C0F81412AB
:10B080000020704702207047D0F81422002A07D011
:10B0900080B512689047002818BF0120400080BD8D
:10B0A0000220704780B5FFF7C0FF002080BD000080
:10B0B000BCB50D4649780446092900F2C780DFE88F
:10B0C00001F00517C524C55A76C5354594F8FC012D
:10B0D00000F0FE00022840F0B980D4F804020322F8
:10B0E000002808BF0122214641F80C2F0222D1E09E
:10B0F00094F8FC0100F0FE00022840F0A780688868
:10B10000012840F0A680002004E06888012840F073
:10B11000A0800120C4F804022946D4F814028268F1
:10B12000204690472046FFF72EFD92E0E888012850
:10B1300040F08C8094F8FC0103284ED0022840F0A7
:10B1400085800020214641F8080F47E06888624D5D
:10B15000C1B22870022980F0798094F8FC0103289C
:10B160003ED0022840F072800029DBD003206160CD
:10B1700084F8FC013FE0A888002840F06780E88858
:10B18000002863D194F8FC0103285FD0A87800F070
:10B190007F05204684F8FE512946FFF707FF204629
:10B1A000FFF7F1FC002D00F07980022077E068883D
:10B1B0004FF0FF3101EB1021062947D8DFE801F0FD
:10B1C000042F2246463B4400D4F81012207C0A6823
:10B1D0000DF106019047014650E0211D012259E082
:10B1E000002939D0606888429CD0C1B22046FFF760
:10B1F00081FC297861602046FFF746FF02287FF432
:10B2000091AF23E0C0B2052820D8DFE800F0034B5F
:10B2100050555A5FD4F81012207C4A68D8E7207C39
:10B220000028D4F814020CBF816AC16A0DF106002F
:10B230008847022220E0207C40B9D4F81402416BF8
:10B240000DF106008847C6E7207C70B12046FFF765
:10B2500068FC002002B0B0BD022084F8FC01002090
:10B2600060602046FFF746FC5CE7D4F81402016BEF
:10B270000DF106008847072201464270BDF806001E
:10B280000028E6D0EA88002AE3D0904238BF024680
:10B29000ADF806202046FFF769FCDAE7012084F8C4
:10B2A000FC01D6E7D4F81012207C8A6890E7D4F825
:10B2B0001012207CCA688BE7D4F81012207C0A692F
:10B2C00086E7D4F81012207C4A6981E7D4F810127E
:10B2D000207C8A697CE700BF61050020B0B50D467F
:10B2E0000978044601F06001202907D1D4F814023E
:10B2F00029468268204690470020B0BD68782979A9
:10B3000088B1012818D00328F6D194F8FC0103284D
:10B3100016D1688850BB41F08000802826D0204696
:10B32000FFF77AFE22E094F8FC01032828D00228D7
:10B3300010D148060AD1DFE794F8FC0103280DD0AC
:10B34000022807D141F080008028D5D02046FFF7A1
:10B3500063FED1E72046FFF7E4FBCDE768880028CD
:10B36000CAD1480608D02046FFF7DCFCD4F8140206
:10B3700029468268204690472046FFF704FCBBE739
:10B3800001F07F0004EB001000F114050A0658BF1D
:10B3900000F582752046FFF7A7FD002818BF0120A1
:10B3A0002860022220462946FFF7E0FBA4E7B0B55B
:10B3B000044690F8FC01032804D188880D4610F05B
:10B3C000FE0F04D02046FFF7ACFB0020B0BDD4F840
:10B3D00014022946826820469047E8880028F4D164
:10B3E0002046FFF7D0FBF0E780B591F800C04FF0A2
:10B3F000010E4B780CF00F02012B0EFA02F317D15D
:10B40000D0F81C281A4300F51063C0F81C284FEA36
:10B410004C101A58120424D48A686FF3DF2291F872
:10B4200003E0C15842EA8C52114341EA8E4115E0D3
:10B43000D0F81C2842EA034200F53063C0F81C280B
:10B440004FEA4C101A5812040BD48A686FF3DF22AB
:10B4500091F803C0C158114341EA8C41024A11439B
:10B46000C150002080BD00BF008000100146D0F810
:10B47000000940F2FF729043C1F80009D1F80408B6
:10B4800040F480720020C1F80428704770B5069916
:10B4900004460129049D16D1A06B194920F480307F
:10B4A000A063E06808400D99E0600129E06820F49D
:10B4B0004010E06003D1E06840F48010E060204676
:10B4C00000F020F810E0E06840F040000A9EE060E4
:10B4D000204600F017F8002EA16B02D021F4803135
:10B4E00001E041F48031A163012D07D1A16841F051
:10B4F0000601A160A16841F02001A16070BD00BFFC
:10B50000BFFFBDFF4FF0FF320B4901328A4211D815
:10B510000369B3F1FF3FF8DC026942F00102026106
:10B520004FF0FF3201328A4204D80369DB07F9D1B8
:10B5300000207047032070473F0D030080B5154879
:10B5400000221549FFF7D8FB20B114484FF40771CA
:10B5500000F0CCFC0F481249FFF78EFD20B10F48D8
:10B560004FF4087100F0C2FC0A480E49FFF759FA7F
:10B5700020B10A484FF4097100F0B8FC0548FFF704
:10B5800091FD30B105484FF40A71BDE8804000F0EC
:10B59000ADBC80BDE49B0020680000209B7B0408BC
:10B5A00088000020AC01002010B54A78214C0B78AF
:10B5B000012A17D100EB4312D2F8001902F51062EC
:10B5C000B1F1FF3F07DC116841F0006111601168C3
:10B5D00041F08041116003F00F01012303FA01F1F2
:10B5E0008BB217E000EB4311D1F8002BB2F1FF3F13
:10B5F00001F5306207DC116841F0006111601168EB
:10B6000041F08041116003F00F014FF480338B4013
:10B6100004F17074D0F83C189943C0F83C18D0F885
:10B620001C189943C0F81C18106800EA0401002097
:10B63000116010BD007833EC80B5D0F8041821F00B
:10B640000201C0F804180320F8F770FD002080BD47
:10B6500080B5D0F8041841F00201C0F804180320A6
:10B66000F8F764FD002080BD2DE9F84FDDF844A017
:10B670000D468046DDF82890DDE90C0741210022C7
:10B6800002E048F8212001315029FAD1BAF1000F27
:10B6900008D0D8F8381008F5006B41F40011C8F84C
:10B6A000381019E0D8F8041808F5006B41F00201D1
:10B6B000C8F80418D8F8381021F40011C8F8381068
:10B6C000D8F8001041F04001C8F80010D8F8001078
:10B6D00041F08001C8F800100021C8F8001E0128C0
:10B6E000DBF80010CBF8001006D1DBF80000002BCF
:10B6F00018BF40F0010003E0DBF8000040F0030059
:10B70000CBF800001021404600F02CFA06464046D7
:10B7100000F018FA3043002108F51062CBF8101041
:10B720004FF67F33CBF814100026CBF81C10BC4624
:10B730000DE04FF090471468002E08BF4FF00067EF
:10B7400007EAE47717600136116193602032B54251
:10B75000EFD108F5306100224FF67F330026002834
:10B7600018BF01200DE04FF090470C68002E08BF75
:10B770004FF0006707EAE4770F6001360A618B60DB
:10B780002031B542EFD1DBF81010002221F4807196
:10B79000CBF810106FF08041B9F1000FC8F81820F5
:10B7A000C8F8141005D1D8F8181041F01001C8F8E5
:10B7B0001810D8F818100D4ABCF1000F41EA020128
:10B7C000C8F8181005D0D8F8181041F00801C8F8CA
:10B7D0001810BAF1010F05D1D8F81810044A114316
:10B7E000C8F8181001B0BDE8F08F00BF00383C80E9
:10B7F000040000400146806820F0010200208A60B9
:10B800007047000070B54B7891F800C0012B21D132
:10B81000D1F814E000EB4C16BEF1000F354D344C5E
:10B8200006F51063D6F810693AD035401D611D69E0
:10B8300025401D618D68AE4501D9AE464D611D693B
:10B8400004F1005445F400251D6104EA0E041D694D
:10B850002C4330E000EB4C10254CD0F8103B6FF33C
:10B860001203C0F8103BD0F8103B6FF3DC43C0F874
:10B87000103B4B69002B00F53063886818BF4861A6
:10B88000012A1E6946F400261E6104F1005600EAF2
:10B8900006001E6940EA0600186112D1C8680EE071
:10B8A00026401E614FF0000E1E6946F400261E6100
:10B8B0001E6906EA0504012A1C6109D1086900B164
:10B8C00058614FF00441186808431860002070BDAB
:10B8D0001968BEF1000F41F004411960F6D00CF078
:10B8E0000F01012202FA01F100F63403EBE700BF79
:10B8F000FFFF07E00000F8FF10B5036C134CA342F4
:10B9000003D3D0F8003B002B1EDB0023C0F8103B14
:10B910000129D0F8103B43F40023C0F8103BD0F8C5
:10B92000103B43F01803C0F8103BD0F8103B43F035
:10B93000C043C0F8103B07D1C0F8142BD0F8001B4F
:10B9400041F08021C0F8001B002010BD0B30544F87
:10B950004B780A78012B02D100F5106001E000F568
:10B9600030605201835823F400138350C97801F0EA
:10B97000FE01022903D1115841F0805111500020DD
:10B9800070474A780978012A00EB411006D1002956
:10B9900000F51061D0F8000906D10BE0002900F590
:10B9A0003061D0F8000B05D0002803DB086820F0D8
:10B9B00080400860086840F4001200200A60704768
:10B9C0007CB54B7891F800C0012B2ED1D1F814E052
:10B9D00000EB4C14BEF1000F04F51063D4F81049CD
:10B9E00049D06FF312041C611C696FF3DC441C61C5
:10B9F0008C680EEB0405013DB5FBF4F44C4D05EAF3
:10BA0000C4441D692C4375461C616FF3DF451C69F6
:10BA10002C431C61CC78012C38D11C6924F0C04423
:10BA20001C611C6944F000542FE000EB4C13D3F868
:10BA3000105B6FF31205C3F8105BD3F8105B6FF364
:10BA4000DC45C3F8105B03F530634C69002CD1F87A
:10BA500008C039D004EB0C05354E013DB5FBFCF5B3
:10BA6000ACB206EAC5461D6904FB0CFC2E436FF31D
:10BA7000DF4C1E6130E06FF3DC441C611C6944F450
:10BA800000241C611C696FF312041C61012A01D19E
:10BA90000A6928E01C6844F004441C60CC78012C3E
:10BAA00038D1D0F80848E4051D684FF0805458BFDD
:10BAB0004FF000542C431C601FFA8EF3C9680092AB
:10BAC000624600F04FF922E06FF3DF4C1D6945EA52
:10BAD0000C051D614FF4002C1E69012A46EA0C0674
:10BAE0001E6102D1CA6802B15A61C97801290AD11E
:10BAF000D0F80808C00519684FF0805058BF4FF0C3
:10BB0000005008431860186840F004401860002096
:10BB100002B070BDBEF1000FF9D00CF00F01012290
:10BB200002FA01F1D0F834281143C0F83418EEE7D6
:10BB30000000F81F0146806840F0010200208A6082
:10BB40007047000010210F4A01614FF0FF310131B1
:10BB5000914204D80369DB06F9D400207047032022
:10BB6000704700BF8901074A203101614FF0FF3162
:10BB70000131914204D803699B06F9D40020704733
:10BB8000032070473F0D0300D0F8080810F00600AE
:10BB900006D040F004010F20062908BF022070479C
:10BBA00000207047406900F001007047D0F8181875
:10BBB000D0F81C08084080B27047D0F81818D0F8A8
:10BBC0001C080840000C7047D0F810C801F00F02A4
:10BBD000D0F8343800EB411023FA02F2D0F808090B
:10BBE000D201D2B242EA0C010840704700EB411189
:10BBF000D1F8081BD0F814080840704741698069E3
:10BC000008407047033292084FF4805C04E050F81B
:10BC10000C30013A41F8043B002AF8D1084670473D
:10BC2000C268012922F0C042C26003D069B94FF056
:10BC3000804101E04FF0005180B5C2681143C160FE
:10BC40003220F8F773FA002080BD012070470246C9
:10BC5000D0F8000820F4FE60C2F8000801F07F0070
:10BC6000D2F8001841EA00110020C2F8001870470D
:10BC7000022A024634D12948294B0844984202D26C
:10BC80004FF470502EE02748274B0844984202D2C8
:10BC90004FF4605026E02548254B0844984202D2D4
:10BCA0004FF450501EE02348234B0844984202D2E0
:10BCB0004FF4405016E02148214B0844984202D2EC
:10BCC0004FF430500EE01F481F4B0844984202D2F8
:10BCD0004FF4205006E01D481D4B084498420AD2FC
:10BCE0004FF41050D16821F47051D160D1680143F4
:10BCF0000020D16070471748174B0844984202D281
:10BD00004FF40050EEE715480144154B4FF4C05076
:10BD1000994238BF4FF4E050E4E700BF405327FF9B
:10BD200000350C00401E1BFF40420F0000DC0BFFE3
:10BD3000804F1200808CF9FE20D6130060B6E5FE1D
:10BD400060E3160000D3CEFE40771B00C05BB3FE5D
:10BD5000C091210000CA91FE20753800E05459FEC0
:10BD6000E09C4100DDF800C0BCF1000F0CD10333B2
:10BD70009B0800F5805C120304E051F8040B013BC2
:10BD800042F80C00002BF8D10020704783B0C0B5FA
:10BD90000DF10C0CACE80E0003AB024608484FF462
:10BDA00000610093F4F73EFC81B24FF6FF708142D0
:10BDB00002D00348F6F73CF9BDE8884003B070476D
:10BDC000640F0020FEE7000010B504460068C26959
:10BDD000920608D5406AC2B20846114605F026FC14
:10BDE000206820210162C169C90617D5426A102165
:10BDF0000B4A9042016218BF10BD0A4805F07EFB55
:10BE000002460948002A028008D00648074905F082
:10BE10008FFB0120BDE81040F5F7A0BE10BD00BFAC
:10BE200000480040B4020020A2030020E0040020EB
:10BE300082B01CB5CDE9042304AB0A460193044645
:10BE400009488021F4F7EEFB82B24FF6FF70824280
:10BE500005D0054942F210732046FCF7BEF9BDE853
:10BE60001C4002B0704700BF20A700200020704790
:10BE7000F0B587B0002504460695EFF3108072B642
:10BE8000F8F766FA0720019503900220029001203E
:10BE900004902020059001A806A9F8F759F918B1D7
:10BEA0001048492100F022F841F288300221F6F7CB
:10BEB00083FC00270B4E0C4D0DE022680120294623
:10BEC000F8F7F0F920B15921304600F00FF801E001
:10BED000043504340137042FEFD3F8F7CDF962B6F7
:10BEE00007B0F0BD5677040800001E08FEE700000A
:10BEF000F0B58BB00C4649780546E669CA071CD0F8
:10BF0000080605D520780122A27640F02000207096
:10BF100030788A0705D4C2070CD000F0FE02052055
:10BF200002E040F0010204203270227842F0200248
:10BF30002270A07601F0FE0060702078810640F14A
:10BF4000BD80010710D47078C00600F1B380B4F949
:10BF50000800B4F90A10B4F90C20B4F90E30AF8916
:10BF60000097FEF7B1FAA5E0400602D430788007CA
:10BF70007BD509A92846FEF7E7FB208ABDF82410E7
:10BF800008442081608ABDF82620A38AE78A1044ED
:10BF900060815818B918A081E18109B2B5F914205F
:10BFA000914200F38B8000B2B5F91210884200F381
:10BFB00085802846214600F04EFC707803273278B1
:10BFC000C107B6F804C008BF01277188D207ADF8D1
:10BFD0001AC0ADF8181010D0820709D441070CD54B
:10BFE000B6F808C0F188ADF81AC0ADF8181004E032
:10BFF000ADF81A10ADF818C08C46C0060FD42089D1
:10C000006189A2893844E3893944D21BCDF800C044
:10C01000DB1B00B209B212B21BB2FEF755FA20893F
:10C0200061893844ADF81000C819A189ADF8120033
:10C03000C81BE189ADF81400C81B317CADF81600AF
:10C040008DF81C10F06803904FF00210CDF81E0020
:10C050007069029002A800F01BFB2078214600F0D6
:10C06000BF002070284600F0E7FB7778380721D41E
:10C070003578FF072089618905F00107A289E389E6
:10C080000CD10625002F18BF0825775B00B209B236
:10C0900012B200971BB2FEF75DF90BE000B2094D3A
:10C0A00009B2074E12B21BB2002F18BF35460095D9
:10C0B00000F00AF8207800F0DF0020700BB0F0BD2F
:10C0C000E86D0408006E04082DE9F04F85B00E9F5E
:10C0D00016463C88B9460746DFF81081501E00948A
:10C0E00002B21D46384604920B468B46C0470BF100
:10C0F0000100B9F802106A1EC246009104B20FFA9C
:10C1000082F8384621463A464346D047B9F80400FB
:10C11000294632460295009038462B46D047B9F85A
:10C12000060059463246009030464346D047781CB8
:10C13000B9F80810D446B21E00910FFA80FA12B274
:10C140005046214603922346E047AA1EB9F80A301A
:10C150000BF10200254D0FFA82F9009301B250460F
:10C16000524601914B46A8470E9841468089434666
:10C17000049D009050462A46DFF870A0D047DDF8B5
:10C1800038802146B8F80E002A464B4600902846D3
:10C19000D047B81CB8F81010F21E019F04B20091ED
:10C1A00012B2204639463B46D04702990BF10300B4
:10C1B000CB1EB8F812201DB201B2009220462246D2
:10C1C0002B46D047B8F8140049464B46009020460D
:10C1D000039C2246D047B8F8160039462246009004
:10C1E00020462B46D04705B0BDE8F08FA5A3000838
:10C1F00080B590F800C00022D3B263450CD2D0F8CD
:10C2000004E059011EF80110013201F00301032975
:10C21000F2D10EEB431080BD002080BD2DE9F84324
:10C22000144D4FF000090446C5F804902778022009
:10C23000E8462870002618E0616842018A5C01EB3C
:10C240004010009002F0030102290DD1817E59B106
:10C25000C5F80480008BA5F801002846E970216B21
:10C260008847009880F81A900136B0B2B842E3D3FC
:10C27000BDE8F883641700202DE9F0412E490968D4
:10C28000B1F90AE00B7A0EF10102B1F90CC0B2FA71
:10C2900082F2B3FA83F352095909037842EA01089A
:10C2A000002143E045686601AE5D05EB44173C465E
:10C2B00006F04B0614F8015F0A2E35D1B8F1000FD5
:10C2C00006D06A0630D5AA0623D445F0100526E02C
:10C2D0006A06B7F9082005F0620658BF751D05F01B
:10C2E000DF06964512DBB7F90C2096450EDCB7F950
:10C2F0000A2094450ADBB7F90E20944506DC45F088
:10C3000020066A065CBF06F0F902961C46F040055E
:10C310000AE005F0FE0245EA821242F00805EAB2A0
:10C3200045EA921222F04605257001318CB29C42FA
:10C33000B8D3BDE8F08100BFE09B00202DE9F04FAD
:10C3400087B0B028119F1C460291154617D0814630
:10C35000B52817D0B9F1C40F17D0B9F1D60F17D03F
:10C36000B9F1DC0F17D0B9F1E40F17D0B9F1FC0F18
:10C3700017D0B9F1F60F16D14FF0940913E04FF032
:10C38000F80910E04FF0E6090DE04FF08E090AE0E1
:10C390004FF0990907E04FF09A0904E04FF0840943
:10C3A00001E04FF0810978898145C0F06D81B9893C
:10C3B000894500F26981B7F906101FFA81FBBBF1CC
:10C3C000000F00F061814FEADB0601225FEA4B7348
:10C3D00018BF02EBDB063A69002A069603D0A9EBE8
:10C3E000000312F803B0DFF87C86D8F8006096F8F6
:10C3F0006020109F9207CDF814B04FD4119E32796F
:10C40000012A00F0A880002A40F03E81A9EB00003C
:10C41000069AB6F90810424388B2514300220191AE
:10C4200037E000920022DDE9013A24E0306800267E
:10C4300010F803900492039313E0D8F800005FEA29
:10C44000C97103680FFA8AF029B201D13A4600E0B7
:10C45000224698474FEA59090AF1010AABF1010B4C
:10C460000136072E02D85FEA0B40E6D1039B049AFF
:10C4700001330132119E90B206998842D6D30698B4
:10C480000135019901443089009A01910132DDF8AA
:10C4900014B091B200B28142C3DBF5E01199884635
:10C4A0000989029800EB0B02F66D2944013A013923
:10C4B00012B20BB22946B04798F80410464605461A
:10C4C000012900F09A80002940F0DE807089B6F9D9
:10C4D0000810A9EB0002069801FB00F388B203FBE9
:10C4E00002F10022049131E04FF0000A03925E460F
:10C4F000DDF810B01BE011984FF00009006810F84B
:10C500000B800BE05FEAC87001D1384600E020469E
:10C51000A8474FEA5808013E09F10109B9F1070F90
:10C5200001D83004EED10BF1010B0AF1010A1FFA18
:10C530008AF006998842DED306980499014411983E
:10C540000089039A04910132DDF814B091B200B26F
:10C550008142C9DB98E0A9EB0000B6F90820484306
:10C5600091B200FB02F9E2B200230692FAB227F080
:10C57000FF07049224F0FF020392CBF10002069C15
:10C58000009235E04FF0000BDDF808A0019321E0A8
:10C59000316811F8091009F10109049BC1F5807295
:10C5A000039E53434E4314FB0131C1F3072002FBAA
:10C5B00007614FF47F42D8F8003002EA11211B686E
:10C5C0004218119E0FFA8AF029B298470AF1010A1F
:10C5D0000BF1010B1FFA8BF1059A9142D8D3B6F9F2
:10C5E00006100135009A1144019B894431890133B9
:10C5F0009AB209B28A42C5DB46E070895FFA84F8D4
:10C60000B6F908105FFA87FAA9EB0000B6F9062020
:10C61000484389B2504324F0FF0427F0FF07CBF1D1
:10C620000002002304922BE04FF0000906931BE068
:10C63000316800F1010B095CC1F5807202FB0AF35D
:10C6400004FB01F618FB0131C1F3072002FB07616F
:10C650004FF47F42119E02EA11210844A84709F1D4
:10C6600001095846DDF814B01FFA89F15945DFD3A6
:10C67000B6F90610049A1144069B08443189013327
:10C680009AB209B28A42CFDB07B0BDE8F08F00BF93
:10C690002DE9F04F87B0D0F80090B9F1000F00F00D
:10C6A000AA80044640680168002900F0A480B4F91B
:10C6B0000A20B4F90E10B0F908708B1ABB42C0F210
:10C6C0009A8092B2A189B4F918504FF0010B0392ED
:10C6D0004E46C2881FFA85FEB4F808800491217D79
:10C6E0000692BAB2B4F816A0029202E00BF1010B66
:10C6F000013696F800C0BCF10A0FF7D0BCF1000F6C
:10C70000F6D111F0300FCDF8148011D01FFA8BF64E
:10C710004FF0FF3212FA8BF206FB17336A434FF4E5
:10C72000803707EB0343C2EB13431A0401D562E0E1
:10C730000023C1F300121BB243FA02F2039BD71885
:10C74000059AC2F10102049B02EB030801F0010209
:10C750000492C1F3400103910299714402912AE0CD
:10C7600089B2039AC346DDF81480D140049A002AA6
:10C7700008BF884415E0668A0FFA88F1238A3AB226
:10C78000CDE900602846FFF7D9FD60680269002AFC
:10C79000069902D04189691A515C08EB0A0202EB42
:10C7A000010809F1010919F8015C25B30A2DE2D14C
:10C7B0000299D8460F444FF0000C4A460FE04689D4
:10C7C000B3420CD381898B4209D80169069D0029A7
:10C7D0001CBF9B1BCD5C0CEB0A0101EB050C01326D
:10C7E00012F8013C0BB10A2BE9D1AAEB0C01414430
:10C7F00009B20029B4DA07B0BDE8F08F70B590F83F
:10C8000000C00023002611E04468E55C05F0030544
:10C81000022D09D104EB030E9EF818408C4203D17F
:10C820009EF81940944205D0013620336645EBD37B
:10C830004FF0000E704670BDE0B503228DF8032066
:10C8400002220B8B8DF80020ADF801300191016BB5
:10C85000684688478CBDE0B502228DF803200B8B1B
:10C860008DF80020ADF801300191016B68468847D2
:10C870008CBD2DE9F84390F80080814600271CE02C
:10C88000D9F8041042018E5C06F00302022A13D18B
:10C8900001EB40156C78B00603D56A684846294616
:10C8A000904706F08800882806D114F0410003D094
:10C8B0006A684846294690470137B8B24045DFD3F9
:10C8C000BDE8F8832DE9F04788B018B10446007A36
:10C8D000800701D4FF2058E0A07DB4F80E90278A8D
:10C8E000C007B4F8128004D009F103090337A8F196
:10C8F00003085C482A2100687D1E40690FFA89FA06
:10C90000A0424FF0280004BF24202621625A205A5A
:10C910000FFA88F694F82C10ADF814006818ADF8EA
:10C92000162003B2009239B250463246FDF7CCFDD4
:10C93000D4E90601CDE9010109F10300ADF80C00CD
:10C94000ADF80E7094F82C00ADF8108094F8221019
:10C950002844ADF812008DF8181094F9200094F9CD
:10C960002110ADF81A0001A8ADF81C10FFF790FED9
:10C9700094F82C003246384401B249F61350009026
:10C9800050460B46FDF70EFD002040B208B0BDE852
:10C99000F08700BF2DE9F8430446B0F80E90007A06
:10C9A000B4F81080678A00F0DF01A68A00072172C0
:10C9B0000DD42C483AB2006833B2B0F846100FFAE2
:10C9C00089F000910146FDF77FFDBDE8F883A07D69
:10C9D000490613D410F0010110D00FFA89F0204D50
:10C9E0000FFA88F100953AB233B2FFF76DFBA07DE4
:10C9F00009F1030908F10308033F033E80070AD544
:10CA00002046FFF75FFF207A410623D494F82C00DC
:10CA1000404400F10108A5890FFA89F00FFA88F166
:10CA20003AB2009533B2FDF74FFD207800210CE0BB
:10CA300063685701DF5D07F00B060A2E04D103EB94
:10CA4000421247F06003137001318AB28242EFD381
:10CA5000BDE8F88300F0BF002072BDE8F88300BF96
:10CA6000186E0408E09B002000F00F02044B09013F
:10CA70001A44044BB0F1FF3FC8BFC2181170704791
:10CA800014ED00E000E400E0BFF34F8F05480168BB
:10CA9000054A01F4E06111430160BFF34F8F00BF0D
:10CAA000FDE700BF0CED00E00400FA052DE9F047BA
:10CAB0002DED028B9946DDF828800023054604E021
:10CAC00030F8137027B9013302358B42F8D33AE0BE
:10CAD000012006461844884205D235F81600002881
:10CAE00006F10100F5D11A48964298BF324600EA95
:10CAF0004200A8F80020A6F1010A06F0B0F8B8F844
:10CB0000001001EE106AC9F80000002600EE101AAD
:10CB1000B8EE400AB8EEC11A80EE018A11E000EECC
:10CB2000106A35F8024BD9F80070B8EEC00A28EE4A
:10CB3000000A00F0FFFE37F810100136214427F8F4
:10CB400010105645EBDDBDEC028BBDE8F08700BF51
:10CB5000FEFF010080B52DED088B30EE41BAB0EE3E
:10CB600040AAB0EE418AB0EE609A2BEE0B0A00EEBE
:10CB7000A00A00F01DFFB0EE401AB5EE400A9FED8E
:10CB80001E0AF1EE10FAB0EE402AB0EE403A03D0A1
:10CB900089EE012A8BEE013AB6EE004A3AEE081A07
:10CBA0002BEE045A21EE041A29EE044A25EE033A2C
:10CBB00024EE024A31EE435A31EE031A34EE052ACE
:10CBC00035EE445A31EE443A34EE011A82FE054AFB
:10CBD00083FE044A81FE044AB5EE404AF1EE10FAA3
:10CBE00007D082FE450A83FE400A81FE400A80EE9D
:10CBF000040ABDEC088B80BD0000000080B5FBF787
:10CC00007DFB002080BD00007CB505468DF8071037
:10CC1000EFF3108072B614464FF47A7625480DF182
:10CC20000702009601232946F7F752FE38B921483A
:10CC30000123294600962246F7F7B2FD20B14FF0B6
:10CC4000FF3062B602B070BD0020FAE770B507266B
:10CC5000184D0E240136772E0ED80234EFF31080D3
:10CC600072B6A1B20A224FF47A732846F7F712FD82
:10CC7000002862B6EED100E00024204670BD00BF5F
:10CC8000E0B584468DF806108DF80720EFF310808C
:10CC900072B64FF47A7107480DF106020091022333
:10CCA0006146F7F715FE002818BF4FF0FF3062B657
:10CCB00002B080BD489F0020B0B504460020E0705F
:10CCC0004FF0FF30E062204604F090F908B10420F4
:10CCD000B0BD94F82E0294F82F1240EA01204AF6D3
:10CCE000552188421CD194F83000E92805D0EB2862
:10CCF00018D194F83200902814D104F166000A4D3E
:10CD000003F0E1FE20F07F40A84207D004F182004A
:10CD100003F0D9FE05F14C51884203D10020B0BD8B
:10CD20000320B0BD0220B0BD464154004FF0000CBE
:10CD3000054A002305E0D158814201D142F803C0E1
:10CD40001033202BF7D17047D803002042690239F5
:10CD5000023A914204D24289806A01FB0200704784
:10CD6000002070472DE9F0418846046800290746F5
:10CD700008D03846414601F0F3F9022809D20120D3
:10CD8000BDE8F081E56815B16069854207D30125EA
:10CD900005E0411C1AD061694546884231D32E46D0
:10CDA00001366069864228BF022601D3022D0AD3CC
:10CDB0003846314601F0D4F9411C22D050B1012847
:10CDC0001FD0AE42ECD10020BDE8F0814FF0FF3023
:10CDD000BDE8F0814FF0FF322046314604F02EFAD4
:10CDE000B8F1000F014606D029B920464146324627
:10CDF00004F024FA014631B10120012908BF4FF0A7
:10CE0000FF30BDE8F081D4E904010239E6608842D0
:10CE100001D801382061207940F0010020713046AE
:10CE2000BDE8F08104494B6803F0010103F0020200
:10CE300003F00403F5F768B990A600204FF47A7167
:10CE40004843AFF30080B0B5044605F0B7FE0019C3
:10CE500041F10001841E61F1000505F0AFFE201ACA
:10CE600075EB0100F9D2B0BD2DE9F0470446C06969
:10CE700000284FF0040612D08A46616901F12005AE
:10CE80003E4A95420BD82F46D4F800906FF35F27A7
:10CE900047B109EB0700656130300026206230465B
:10CEA000BDE8F087A16901300029E0610ED0B9F832
:10CEB0000A00104400F5C00010EA552FE9D12046C1
:10CEC00001F04EF902280AD20226E8E7B9F8080074
:10CED000B0EB551FDDD80020E0610426DFE7804677
:10CEE000013023D0D9F81400804507D24846C4F851
:10CEF00018804146FFF72AFFE061CAE7BAF1000F48
:10CF0000E9D0A1692046FFF72DFF804601300328B4
:10CF100008D21B4901EAC0001A4921FA00F0C0B248
:10CF2000BDE8F087484605F0E3FD08B10126B6E705
:10CF300009F130004FF40071F3F7AFFD4846414668
:10CF4000FFF704FF4FF0000A01260BE0484689F87E
:10CF5000036005F0CDFD0028A1D1D9F82C000AF11D
:10CF6000010A0130B9F80A10C9F82C008A45EDD33E
:10CF7000A0EB0A00C9F82C00B8E700BFFFFF1F00B4
:10CF8000F8FFFF000107020070B50446056804269B
:10CF9000E169F9B1284604F029F8C8B9206A017896
:10CFA000D9B1C07A2E2900F03F02A27118BFE5293D
:10CFB00007D1002120460026FFF756FF0028E7D0C2
:10CFC00006E00F2AF5D000F01F000828F1D002E09B
:10CFD000064603E016B9002602E004260020E061C0
:10CFE000F0B270BDB0B50546046800F029F80DE058
:10CFF000E969204603F0FAFF50B9286A007858B171
:10D00000E52809D001212846FFF72EFF0028EFD0A0
:10D01000042808BF072020B9E969204603F0E6FF8D
:10D0200000B1B0BD286A2021F3F737FD286A05F169
:10D0300024010B2203F0D0FE0120E0700020B0BDDF
:10D040002DE9F041044686680020D4F80080002EC7
:10D05000606119D0B8F80A00002745020DE02046AB
:10D06000314601F07DF8064601302FD0022E2AD33A
:10D07000D8F81400864226D27F1BAF42EFD240463A
:10D080003146FFF763FE0EE098F80000032803D353
:10D09000D8F82460002EDDD1B8F8080098B1002738
:10D0A000D8F8240000260028A661E0610BD000EB30
:10D0B00057206FF35F2708EB07013031C4E9070100
:10D0C0000020BDE8F0810220BDE8F0810120BDE82C
:10D0D000F08100001D490A5C0AB10020704701225E
:10D0E0000A5401EB800208445168007A0968084735
:10D0F000DFF858C00CEB800360445B68007A1B6962
:10D10000184700BF80B5DFF844C00CEB800E6044C8
:10D11000DEF804E0007ADEF808C0BDE88040604731
:10D120000A4901EB800208445268007A51680847B6
:10D1300080B5DFF818C00CEB800E6044DEF804E028
:10D14000007ADEF80CC0BDE8804060476C97002094
:10D15000BEB004F097FAB0F1FF3F40F3A48004F0B2
:10D16000BFFBB0F1FF3F40F3AC80032004F0F8FBBD
:10D17000B0F1FF3F40F3B3800E2004F0C7FBB0F1E5
:10D18000FF3F40F3BA80644C4A2364492046644A16
:10D19000FEF74EFE63A12046FEF74AFE684C0621CC
:10D1A00004F10805284603F0CEFC46F219400D951F
:10D1B000208064482146C4F80200284603F0E3FCBE
:10D1C00036ADB0EE088A00274FF00A083AAE0DF1EE
:10D1D000380B4FF6FF794FF47F4A63A44AE0349747
:10D1E0000223DDE93601ADF8D4000120ADF8D610F8
:10D1F00001A9CDE90877CDE90A77009034AA0D9806
:10D200000C9781E8810130462946CDE904870697CD
:10D21000079701F0ADFC25E03046594603F099FC34
:10D22000BDF98E00BDF98810BDF98A20BDF98C309A
:10D23000CDE900090220CDE90207284601F0B6F940
:10D240000A21B0EE480A0A2228462346CDE908778B
:10D25000CDE900A8CDE90287CDE9047706970797C5
:10D2600001F01CFA304603F0ACFC0028D4D128466B
:10D27000FCF7BBFAFDF7CEF9F7F76CF902200221B3
:10D28000FBF7A2F9284604F08DFB0028A7D0224C1A
:10D29000612322492046224AFEF7CAFD2AA12046E0
:10D2A000FEF7C6FDFEE71C4D04461C4932231C4A0E
:10D2B0002846FEF7BDFD3F4928462246FEF7B8FD49
:10D2C000FEE7154D044615493823154A2846FEF752
:10D2D000AFFD374928462246FEF7AAFDFEE70E4D70
:10D2E00004460E493E230E4A2846FEF7A1FD28A11A
:10D2F00028462246FEF79CFDFEE7074D04460749F7
:10D300004423074A2846FEF793FD19A128462246E2
:10D31000FEF78EFDFEE700BFA4A400200F770408EF
:10D320001977040852756E6E696E67206578616DB5
:10D33000706C655F66696E645F626C6F62730A0031
:10D34000200300202864146473656E736F725F732A
:10D350006E617073686F745F73696D706C65206661
:10D3600061696C6564210A0046696E640000000012
:10D3700073656E736F725F7365745F6672616D65FE
:10D3800073697A652072657475726E2025640A006F
:10D3900073656E736F725F7365745F706978666FC3
:10D3A000726D61742072657475726E2025640A0056
:10D3B000E0760408F87604082DE9F04F89B01646A7
:10D3C0000890884608A807A9002200F0B1FB0028B1
:10D3D0006ED1DDF81CB0C6F800B0DBE90406B11E62
:10D3E00088421AD99BF80050012D1AD10226CDF897
:10D3F00008B0002402AF3846314600F0B1FE20B13B
:10D40000411C4AD0012801D145E001340136DBF846
:10D4100014008642EFD3002040E0C8F8000000204E
:10D4200046E0CDF804800BF1300A0024DBF82090B0
:10D430004FF000080027B8F1000F0BD158464946BD
:10D4400003F0D4FD20BB9BF8005009F101094FF413
:10D4500000785746022D0AD138780222797840EABE
:10D460000120B0FA80F040096FF001010AE038466F
:10D4700003F029FB20F07040B0FA80F040096FF013
:10D480000301042217448844013E0444D3D1002000
:10D49000DDF8048002E0022000E00120C8F800402E
:10D4A000CBF810409BF8041041F001018BF80410F8
:10D4B00009B0BDE8F08F2DE9F04F8FB00E900EA8A7
:10D4C00001A9022200F034FB0646019C00280294C8
:10D4D00040F09A800E9902A800F070FC06460028E1
:10D4E00008BF0826042E40F08F8002A800210026E5
:10D4F000FFF738FC0028618908BF0726012882460B
:10D5000008BF0226013008BF01264902002E0591FE
:10D5100002D000F081FE72E0204605F0E9FA0646EE
:10D5200000F07AFE002E6AD1804620465146FFF771
:10D530000DFC074604F13C004FF4FA71F3F7ADFA25
:10D540002E25A14642F2200009F8305FA4F83900E8
:10D550004FF02030C4F835004146C4F831001020A7
:10D5600084F83B0004F1460005F041FA20464946A4
:10D57000524605F030FA04F1500620223046494662
:10D5800003F02AFC207884F851500328049A03D130
:10D59000606A101A08BF02462046314605F01BFAA1
:10D5A00060894FF0010B45420DE02046E76284F8A8
:10D5B00003B005F09DFA08BB4FF4007148460137EF
:10D5C000F3F76BFA0135002DEFD102A8FFF70AFD42
:10D5D0000646A0B90A9E414606F1160005F007FA74
:10D5E00020463146524605F0F6F91020F07201202F
:10D5F000E070204605F038FA064605E0064602A827
:10D600000022514603F0F1FE30460FB0BDE8F08F26
:10D61000FEB50446CDE9011068460091154600F0BC
:10D62000EBFE002815DB0E4901EB80077E6826B172
:10D630003046FFF77BFB0020307064B10020012DE5
:10D6400020707C6009D101A802A9002200F070FAC4
:10D6500003E00B2001E07C60002003B0F0BD00BFC0
:10D66000C4030020FEB50028029119D0044602A888
:10D6700001A90022002700F05BFA054608BB019EC5
:10D6800020462660029900F099FB0546B0B994F94E
:10D690002F0000280BDBA079C00603D4052510E07D
:10D6A00009250FE0216A304603F0FEF9A060F088FA
:10D6B000A0802046FFF7C4FC054630B1042D08BF0A
:10D6C00005252760284603B0F0BDA06848B10021B9
:10D6D0002046002503F09AF900282061F2D1122596
:10D6E000EFE700252561EDE7BCB50D4601A904462D
:10D6F00005F078FA08B102B0B0BDADB12046FFF731
:10D7000043FC0146043818BF08460028F3D12046E0
:10D71000294600F083FD00212046FFF7A5FB0146C6
:10D72000043818BF0846E6E72046FFF789FCE2E721
:10D7300010B58EB00C460D900DA801A9002200F086
:10D74000F7F980B90D9901A800F038FB58B99DF997
:10D750003300002806DB1CB101A8214600F05EFD65
:10D76000002000E006200EB010BD0000B5EEC00A9B
:10D77000F1EE10FA08DBF5EEC00AF1EE10FA03DD67
:10D7800080EE200A00F05AB880B5B5EEC00AF1EE7E
:10D7900010FA0FDBF5EEC00AF1EE10FA0ADAB1EE7C
:10D7A000400A80EE200A00F049F89FED231A31EE7E
:10D7B000400A80BDB5EEC00AF1EE10FA0DDAF5EEC2
:10D7C000C00AF1EE10FA08DA80EE200A00F036F80E
:10D7D0009FED191A30EE010A80BDB5EEC00AF1EED8
:10D7E00010FA0FDAF5EEC00AF1EE10FA0ADDB1EE2A
:10D7F000400A80EE200A00F021F89FED0E1A31EE6B
:10D80000400A80BDB5EE400AF1EE10FA02D19FED5C
:10D81000060A80BDB5EEC00A04A0F1EE10FAC8BF3A
:10D82000043090ED000A80BD00000000DB0F49C00D
:10D83000DB0F4940DB0FC940DB0F4940B0EEC01A97
:10D840009FED222AB4EEC21AF1EE10FA06DDBFEE09
:10D85000002A82EE011A9FED212A15E09FED1D2A74
:10D86000B4EEC21AF1EE10FA0CDDBFEE002AB7EEEC
:10D87000003A31EE022A31EE031A82EE011A9FEDD0
:10D88000162A01E09FED122A21EE013AB5EEC00AF8
:10D890009FED134A9FED135A03EE045AF1EE10FA6E
:10D8A0009FED114A03EE054A9FED105A03EE045A0C
:10D8B00023EE053A01EE031A32EE011AB1EE410AE7
:10D8C000B8BFB0EE401AB0EE410A70477A821A40F3
:10D8D00000000000CD13D43EDB0F493FDB0FC93FF2
:10D8E000D1F0A43D851B0EBE5F924C3E2AAAAABE73
:10D8F000BEFEC00A10EE100A704700009FED0B1A22
:10D900009FED0B2A00EE012A4FF08042BCEEC20AC6
:10D9100010EE100A00F0004102EBC00260F3D601E5
:10D9200002F0FF40084400EE100A704738AAB849D8
:10D930004ABC7F4EBFFEC00A10EE100A70470000BE
:10D9400080B500F007F89FED021A20EE010A80BDB5
:10D950001872313F10EE100A7E219FED102A61F3FC
:10D96000DF50B8EE400A9FED0E3A01EE100A9FED2F
:10D97000094A31EE022A83EE022A9FED053A00EEB3
:10D98000034A9FED050A01EE004A34EE020A704791
:10D99000000000347773F8C275BFBFBFF944B43ECE
:10D9A000A3E9DCBFBCFEC00A10EE100A70470000FD
:10D9B00010EE100AB6EE001A0C49B7EE084A20EE37
:10D9C000011AB0EE445AA1EB600002EE100A21EEFB
:10D9D000023A03EE425A25EE022A21EE021A02EE24
:10D9E000414A22EE041A21EE000A7047DF59375FE0
:10D9F0002DE9F041A8B1DFF834810330D8F80010E8
:10DA000020F0030636488C1B0068271FC56900F00C
:10DA100069F82844874208D3301D3860C8F8007080
:10DA200000E000242046BDE8F08100F029F800BFA6
:10DA3000B0B50446FFF7DCFF21460546F3F72DF8A5
:10DA40002846B0BDF8B526490446384D09682E6809
:10DA5000CF6900F047F83844301A0438032802D858
:10DA60000020206009E020F003012868401A2160AE
:10DA70000431024642F8041D2A6001B0F0BD00BF27
:10DA8000054C1C2305492046054AFEF7D1F90549F6
:10DA90002046FEF7CDF900BFA4A400200F770408AC
:10DAA0000F7D0408867C04080448002200F5F82055
:10DAB0001E490860C1E90102704700BF0000002450
:10DAC000B0B51A48046806480068C56900F00AF84D
:10DAD0002844201A0438042838BF0020B0BD00BFF5
:10DAE000000000200B4801688869032806D8DFE899
:10DAF00000F006020C028868C968484370478868CD
:10DB00001F30C968400948437047D1E902014843C2
:10DB100040007047000000200448D0E90012914204
:10DB200028BF70470A68114401607047CC03002089
:10DB30002DE9F04F85B0002315460B600F4600F02D
:10DB40005BFC002817DBDFF86882064608EB8000E4
:10DB5000446804B33C6005F0FE05207868B1607845
:10DB6000FFF7DEFAC10708D140070A21002D18BFD0
:10DB700001EAE07573E00B2571E000202070F0B23F
:10DB80006670FFF7A7FAC10707D145B110F004008E
:10DB900005D00A2563E00C2561E003255FE0002144
:10DBA00020460025FFF788F8022820D101AE002585
:10DBB00037460BE0601990F8F21121B100F5FB70C7
:10DBC00002F081FF00E0002001C71035402DF1D1A7
:10DBD000002756F8275035B120462946FFF76CF844
:10DBE000022801D209E003200137042FF1D30428D1
:10DBF00001D1012533E0012830D894F83B0094F896
:10DC00003C1040EA0120B0F5007F27D194F846008F
:10DC100094F8471040EA012BBBF1000F04D104F146
:10DC2000540002F050FF834694F84060C4F818B0E6
:10DC3000701EA670012811D894F83D70002F6781DE
:10DC40000CD0781E384209D194F8410094F8421063
:10DC500040EA012A0007A4F808A004D00D252846B0
:10DC600005B0BDE8F08F94F8430094F8441040EA02
:10DC7000012018B904F1500002F025FF94F83E107D
:10DC800094F83F2041EA0222002AE7D00BFB06F17C
:10DC900001EB1A1313449842E0D3C01AB842DDD303
:10DCA000B0FBF7F04FF003094FF6F677B84238BFF4
:10DCB0004FF0020940F6F677B84238BF4FF001093D
:10DCC000861CA81866615A19E561B9F1030F206234
:10DCD000A26210D194F85A0094F85B1040EA0A004E
:10DCE00040EA01200028B9D104F15C0002F0EBFE0B
:10DCF0006062B0000FE0BAF1000FAFD00844B9F194
:10DD0000020F606201D1700005E006EB460006F0EC
:10DD1000010101EB500000F2FF10BBEB502F9DD32F
:10DD20004FF0FF308021E060B9F1030F20612171D5
:10DD300030D194F8600094F8611040EA0120012885
:10DD400028D1691C204603F051F918BB94F82E0223
:10DD5000002294F82F12227140EA01204AF6552140
:10DD6000884217D104F1300002F0ADFE114988421B
:10DD700010D104F5057002F0A6FE0F49884209D1C2
:10DD800004F5067002F09FFE206104F5077002F0B2
:10DD90009AFEE06084F80090B8F800000130A8F81E
:10DDA0000000E0802046FEF7C1FF002557E700BFD6
:10DDB000C403002052526141727241612DE9F84F53
:10DDC0000D46D0F80080044600E0013528785C2834
:10DDD000FBD02F28F9D00020A0602878202807D277
:10DDE000802084F82F002046BDE8F84FFFF728B9BF
:10DDF00004F12406DFF84CA14FF02030DFF848B1E1
:10DE000044E03178E52904BF0521317084F82F0002
:10DE100020462768FFF714F903E000212046FFF7AA
:10DE200023F8E8B9E169384603F0E0F8C0B9206AA0
:10DE30000178002976D0C17A01F03F01A171C17A41
:10DE40000907EAD40021425C0A29735C03D09A4294
:10DE500001F10101F7D09A42DFD194F82F1003E0CD
:10DE600094F82F10002865D1480766D4A079C00621
:10DE700065D560694D446FF35F20404400F1300187
:10DE8000404602F011FEA0604FF020304FF0000934
:10DE9000C6F80700082270600021306015F80930CC
:10DEA00009F10109212B35D32E2B1FD05C2B18BF74
:10DEB0002F2B27D0914219D258B2B0F1FF3F03DC8B
:10DEC0000AEB030010F8803C584610F8017B0FB1B4
:10DED0009F42FAD117BBA3F16100C0B21A2838BF24
:10DEE000203B6018013180F82430D7E70B2A4FF02F
:10DEF000060014D008212E2B4FF00B02CED00EE0DE
:10DF000009F1010915F809005C28F9D02F28F7D08C
:10DF1000002000E0042000297FF473AF062001B048
:10DF2000BDE8F08F94F82F1048074FF0040058BF59
:10DF30000520F4E70428F2D1F6E70020EFE70520FA
:10DF4000EDE700BF643D0108AC7B04082DE9F84F04
:10DF5000054640780DF10309DFF8D4A58846132162
:10DF60004A46D0476B7807460DF102021021184649
:10DF7000D0476B7840EA07040DF1010208211846EA
:10DF8000D0476A780443122110464A46D0479DF88C
:10DF9000031004434FF41077480658BF4FF44477FA
:10DFA000687801F003060D214A46012E18BF0226AB
:10DFB000D0479DF8031044EA000B01F0C000B0FA0E
:10DFC00080F25409402808BF0424802808BF062492
:10DFD0006878BF294FF0110188BF08244A46D0470E
:10DFE0009DF8031040EA0B004A0604D47E2202EAA0
:10DFF0004101023100E00121574AB2FBF1F1574AD9
:10E000009DF8023077436143B1FBF2F19DF80120A6
:10E0100043EA02227A43B2FBF1F1C8F8001001B0E2
:10E02000BDE8F08F2DE9F84F054640780DF1030962
:10E03000DFF8FCB48846FF214A46D8476B7807468C
:10E040009DF80310184641F00102FF21FEF718FE6B
:10E050006A7840EA0706132110464A46D8476B788B
:10E0600006430DF1020204211846D8476B78064397
:10E070000DF1010210211846D8476B7806436A4615
:10E0800045211846D8476A780643122110464A4669
:10E09000D8479DF803100643002711F0700008BF11
:10E0A00040F28277402808BF40F2A64720286878CF
:10E0B0004FF0110108BF40F253274A46D8479DF858
:10E0C000031046EA00040226080658BF01267E20F7
:10E0D00000EA4101687801F1020AFF214A46D84767
:10E0E0006B7804439DF80310184601F0FE02FF21EF
:10E0F000FEF7C6FD6A7844EA0005DA2110464A4672
:10E10000D8471549154A2843B1FBFAF17143B1FBD1
:10E11000F2F19DF8032002F00C02B2FA82F35B09DF
:10E120005B00042A08BF0123082A9DF8012008BFCC
:10E1300002239DF800409DF80260920064F38F2254
:10E1400006F003067B4332445A43B2FBF1F1C8F8B0
:10E15000001001B0BDE8F08F001BB70040420F0077
:10E16000F8B5022930D305680C46686988422BD976
:10E17000287803282BD002283AD0012824D104EB98
:10E180005407286A00EB5721284602F02FFFB0BB46
:10E190007E1C6FF35F27E81990F83070286A00EB57
:10E1A0005621284602F022FF48BB6FF35F26E207A4
:10E1B00005EB060090F8300047EA002108466FF3AF
:10E1C0001F3018BF080900E0012001B0F0BD286A27
:10E1D00000EBD411284602F009FF80B904F07F005B
:10E1E00005EB8000303002F06EFC20F07040ECE770
:10E1F000286A00EB1421284602F0F8FE10B14FF017
:10E20000FF30E2E7E0B205EB400090F8301090F804
:10E21000310041EA0020D8E700207047B0B5002265
:10E220004A720C46C16989B34FF0000E4FF02E0CB4
:10E2300000210B460A2B16D8016ACA5C591C0B46F2
:10E24000202AF7D0052A08BFE522092905D104EBC9
:10E250000E030EF1010E83F809C004EB0E030EF15C
:10E26000010E5A72E5E704EB0E0100224A72056ABC
:10E27000E87A207205F11C0002F025FC206005F10F
:10E28000160002F020FCE080000CA080B0BD000071
:10E2900070B52DED047B054640780E460DF1070262
:10E2A0001321FEF7B1FC6B7805460DF10602002143
:10E2B0001846FEF7A9FC9DF80610B7EE002B0543A3
:10E2C0009FED191B01F00F0300EE103AC1F380120D
:10E2D000C1F34014C1F30013B8EEC00B02EBD1112F
:10E2E00000EE012B21441944012202FA01F101EE52
:10E2F000101AB8EEC11AB7EEC20B20EE010AFFF7F2
:10E300001FFBB0EE408AB2EE040AFFF719FB88EE5D
:10E31000000AB3EE041A284620EE010A86ED000A30
:10E32000BDEC047B70BD00BF000000000000B03FEA
:10E330002DE9F0412DED047B054640780DF10706EF
:10E340007B4C8846FF213246A0476B7807469DF8F4
:10E350000710184641F00102FF21FEF791FC6A7890
:10E360000743132110463246A0476B7847EA000561
:10E370000DF1060200211846A0479DF80610B7EEE1
:10E38000002B05439FED1A1B01F00F0300EE103A1E
:10E39000C1F38012C1F34017C1F30013B8EEC00BF4
:10E3A00002EBD11100EE012B39441944012202FA8B
:10E3B00001F101EE101AB8EEC11AB7EEC20B20EE51
:10E3C000010AFFF7BDFAB0EE408AB2EE040AFFF789
:10E3D000B7FA88EE000AB3EE041A284620EE010AC6
:10E3E00088ED000ABDEC047BBDE8F08100BF00BFF2
:10E3F000000000000000B03F0268D2B1002302E03C
:10E400003A2905D00133D15C2129F9D2002112E04B
:10E410001178A1F1300CBCF1090F0AD8012B4FF093
:10E42000FF3108BFBCF1000F05D1D11801310160E7
:10E43000ECE74FF0FF310846704700002DE9F04748
:10E440002DED0A7B074640780DF10704384E9146C2
:10E450008A46132122469846B0477B7805460DF13F
:10E46000060201211846B0477B7805430DF10502ED
:10E4700002211846B0477B78054301AA03211846BC
:10E48000B0477A780543692110462246B0479DF887
:10E49000071045EA00079DF805208907274C00EE84
:10E4A000102A24A158BF0431B8EE400A91ED00AA09
:10E4B00080EE0A0AA047B2EE049AB0EE408AB0EEAF
:10E4C000490AA04788EE000AB3EE04BA9DF804009A
:10E4D00020EE0B0A8AED000A00EE100AB8EE400AA0
:10E4E00080EE0A0AA047B0EE408AB0EE490AA04783
:10E4F00088EE000A9DF8060020EE0B0A89ED000A5E
:10E5000000EE100AB8EE400A80EE0A0AA047B0EE0C
:10E51000408AB0EE490AA04788EE000A384620EE4D
:10E520000B0A88ED000ABDEC0A7BBDE8F08700BF4E
:10E5300009CC0008000080420000004341D90008D7
:10E540007CB5044640780DF10705FF212A46FEF709
:10E550005BFB637806469DF80710184601F0FE0243
:10E56000FF21FEF78DFB627840EA0604C3211046C6
:10E570002A46FEF749FB204302B070BD0146806881
:10E58000032806D8DFE800F006020D020868496893
:10E590004843704708681F30496840094843800075
:10E5A0007047D1E900014843400070472DE9F04F22
:10E5B00087B0139F1646DDF84490002F8A461099C5
:10E5C000054613D001EB060803EB0A040BE057469F
:10E5D00006E02846394632464B4602F0D7F9013765
:10E5E000A742F6DB01364645F1DB54E012980128DC
:10E5F00051DB421ECDF818A0022792FBF7F25344DC
:10E60000029347080397AAEB5008D41804928B1979
:10E61000CDF8148019460193591EA6EB500702EB62
:10E62000060AA1EB500B561811E02846CDF80090D1
:10E6300041463A46534604F084FC2846CDF8009003
:10E6400041465A46334604F07CFC08F10108A045D7
:10E65000EBDB049A019802EB000802980699013856
:10E6600002EB010B0399A0EB010A059C161810E0C0
:10E670002846CDF8009021465A463B4604F0D0FA91
:10E680002846CDF80090514632463B4604F0C8FA81
:10E6900001374745ECDB07B0BDE8F08F2DE9F84FB7
:10E6A0002DED0E8B96B0329F4FF4B47697FBF6F5B6
:10E6B000DDF8D4C0B0EE408ADDF8DC909CFBF6F4C7
:10E6C000934605FB1677002FB8BF07F5B4775A2598
:10E6D00004FB16C68846002EB8BF06F5B47697FB35
:10E6E000F5F796FBF5F60793109007FB05FA06FB86
:10E6F00005F7369D002D1497AAF15A07B7FA87F748
:10E700004FEA5714AAF58777B7FA87F74FEA5716F3
:10E71000AAF1B407B7FA87F74FEA57170ED0DFF818
:10E720004C0490ED000AB8EEC00A20EE080AFFF78C
:10E7300001F908F10101081A129001E0CDF84880B2
:10E74000DFF828043443B9F1000F46EA07064768AA
:10E750000BD000EE107AB8EEC00A20EE080AFFF7E0
:10E76000E9F80BF10101A1EB000B0120CDF83CB061
:10E77000B9F1000F18BF4FF0FF300890002CDFF800
:10E78000EC0301EE10AA006818BF074600EE107AED
:10E79000002D9FEDE42AB8EEC00AB8EEC11A149815
:10E7A00003EE100A349821EE021A80EA0600B8EE51
:10E7B000C33A0990339820EE08BA23EE022A80EA81
:10E7C00006009FEDD93A81EE039A80EA050082EEB9
:10E7D00003AA0A904FF0FF30B0EE080A18BF0120DC
:10E7E0000390012028EE00CA002D18BF4FF0FF3023
:10E7F000129C04900020CDF834B0A046DDF81CB087
:10E8000021461394CDF814A09BF80010002900F0C5
:10E81000A7810D2808BF0A2913D00D2918BF0A297E
:10E8200013D1B0EE4B0A0C46FFF784F83099084438
:10E8300008990D9A00FB012221460D924046CDF821
:10E840004C800BF1010B0846DEE7A1F120005E28A9
:10E85000F7D8069100EB800031990029C34901EBFC
:10E860008000CDF81CB0149065D1BAF15A0F18BFD2
:10E87000BAF5877F2CD11498D0F804C0624621E005
:10E88000A2F1010E09987346ACEB0202002818BFF2
:10E89000134614980025C718036808375C1E9D426C
:10E8A0000FDA0A98012600283978A4F1010018BF70
:10E8B0002C4606FA04F40C4205F101050446EED09C
:10E8C00003E07246012ADBDA35E000EE102A27E089
:10E8D0001498002100F1040C02681CE00A98CB4354
:10E8E0000028084608BFD018DCF800300127874010
:10E8F0005D1E00249C420DDA0998002804F10100F5
:10E9000018BF2C46149E013D3444247A2742044605
:10E91000F0D003E001319142E0DB0CE000EE101A90
:10E92000B8EEC00A20EE080AFFF704F80399139A1C
:10E9300000FB012213921498D0F8049000EE109A74
:10E94000B8EEC00A20EE08DAB0EE4D0AFEF7F2FF8C
:10E9500004460D99022094FBF0F000260844119023
:10E96000CDE90B4974E01498D0F800B000EE10BA6D
:10E97000B8EEC00A20EE080AFEF7DCFF00EE106ACF
:10E9800005460220349AB8EEC00AF14395FBF0F038
:10E9900080EE08EA0E96002A324618BF62180D99DA
:10E9A000571813990FFA87F800EB01094FF0000A86
:10E9B00048E0B0EE4E0AFEF7BDFF00EE10AAB8EE3A
:10E9C000C00A1499084480EE080A067AFEF7B2FFDE
:10E9D000C0435844012101FA00F0304230D04FF6D4
:10E9E000FF70339980EA0A00B0EE490A00295146C7
:10E9F00018BF411913980844119BADF8560000B296
:10EA000015A9ADF854700DF1560401910E4600940D
:10EA100041464A4602F0C8FBBDF95600B0EE4A0A2C
:10EA2000BDF95410CDE90046129A0F9B02F0BCFBD1
:10EA3000BDF95610BDF9542010982E9B01F0A6FF89
:10EA40000AF1010A5545B4DC0E9E0136DDE90B4999
:10EA5000B44288DC319870B1DDF814A0129CBAF190
:10EA60005A0FDDF81CB0A04618BFBAF5877F6FD1EA
:10EA7000B0EE4D0A61E0DDF814A0129CBAF5877F74
:10EA8000DDF81CB0A04618BFBAF15A0F24D10020FF
:10EA90001DE0099AC143002A0246494418BF0A46AC
:10EAA000149B00271A441B680832012B0EDB013B24
:10EAB0000A9E002E15781E4608BF3E46012404FA21
:10EAC00006F62E4207F10107EFD003E0013048457A
:10EAD000DFDB21E0881C2AE014980068014619E079
:10EAE0004A1E0A9B002B134608BF431A012707FA48
:10EAF00003F300274E46013E0BDB099D002D3546F2
:10EB000018BF3D46149C25442D7A01372B42F2D084
:10EB10000CE011460129E3DAB0EE4C0AFEF70AFFD9
:10EB20000FE000BFDB0F494000003443481C00EEFB
:10EB3000100AB8EEC00A20EE080AFEF7FBFE2F9975
:10EB400008440499139A00FB01220699139278E66F
:10EB5000149890ED000AB8EEC00A20EE08DA87E7B4
:10EB600016B0BDEC0E8B01B0BDE8F08F6C4601080D
:10EB70002DE9F84F2DED0C8BADF52C7D0D46096878
:10EB80006F680646CDE9A8170021CD9CA8A827925A
:10EB90009B46AA91FFF7F2FCFEF74AFF002CAB90D0
:10EBA00004D028684000FEF723FF00E000201D90FD
:10EBB000CE98002804D068684000FEF719FF00E0F6
:10EBC00000201C90A4A8A3A90C2201F07EFF98218C
:10EBD000304601F0B8FFC39801F064FF53A9B6EEC8
:10EBE00000BA139601F178022095129201F17C028D
:10EBF000119201F17A028031109204460F919FED3B
:10EC0000E3AA0020CDF838B0069001F03CBDC398CF
:10EC10002146A1AA01F03EFFA8680228059400F051
:10EC20004184012801F010810028DDF874C02DAC6A
:10EC30004FF0010541F01F852798A646B0F9021054
:10EC4000B0F90600421810460D92501E00EE100A50
:10EC5000B8EEC0CA069805FA00F0149000F01CBC8B
:10EC6000209A0C46B1FBFBF81168D268279B1F3134
:10EC700017944909614302EB8101B3F9002018910F
:10EC8000A8991F31B3F90430490901FB04F0991820
:10EC9000AB9B4F1E00EE107A03EB800A08FB1B4073
:10ECA0000C46B8EEC0DA8718CDE915A1EEE378116D
:10ECB00007F01F015AF8202005FA01F31A4240F02C
:10ECC000E483189A52F82000C8409DF8841200F09E
:10ECD0000100884202D2C49860B9D6E39DF885123B
:10ECE0008842C4994FF0000098BF01204840012895
:10ECF00040F0CB830020A649A64A199734E091ED55
:10ED0000000AB0EEC01A8DAF80EE011A0EEB0006BD
:10ED100079AC483121EE0D1A81FE4D1A81FE0A1A96
:10ED2000BDEEC12AB6EEC11A92ED003AB0EEC34A6A
:10ED300012EE103A483283EE044A3B523B1824EE5E
:10ED40000C4A84FE4C4A84FE0A2ABDEEC24AB6EE44
:10ED5000C22A255023EE022A043014EE107A00EE67
:10ED6000012A5F8086ED002A5028C8D1BCF1000F2F
:10ED7000DDF88090199C05D0D9F80000410060466C
:10ED8000F1F78BFE1C9820B1D9F804104900F1F777
:10ED900084FE0020DDF85CC0239000201E9000203F
:10EDA000229000201B900020219000201A9000202B
:10EDB00000251F904FF000080020A2462490D9F8AB
:10EDC00000000CFB0CFE1F30A8994009D9F80C205C
:10EDD00000FB0CF01F31490901FB0CF102EB800034
:10EDE00029906544AB986E0000EB81002799B1F93A
:10EDF0000090D3469DF8841228919DF885122591A4
:10EE00004FEA4C0126910121CDE92BE112E0259A30
:10EE10009142C49A4FF0000198BF0121514023D084
:10EE20002B99654471442B91BB4626990E442C992D
:10EE300001312C91CB4517DDABF101077C1107F0B7
:10EE40001F0150F8243001228A4013420CD1299A24
:10EE500052F8242022FA01F1289A01F0010191428E
:10EE6000D5D2C4990029DBD12799B1F90410CDF886
:10EE7000A8C049444F1ED14613E0259A9142C49A36
:10EE80004FF0000198BF0121514025D02B99A14698
:10EE900071442B9126990E442A990D442C990131E5
:10EEA0002C91B94518DA09F101044FEA641C04F009
:10EEB0001F0150F82C2001238B401A420CD1299AB3
:10EEC00052F82C2022FA01F1289A01F00101914216
:10EED000D3D2C4990029D9D10DF1B40C5946E646D4
:10EEE000DDF8A8C00BE001F01F024B11012450F81F
:10EEF000237004FA02F23A4340F8232001314945D5
:10EF0000F1DD09F1010000EE10CA00FB09F0214A11
:10EF1000ABF10101B8EEC00A01FB1B00022190FB1E
:10EF2000F1F71B4926962C9E00202895299762E030
:10EF300091ED001AB5EE401A4B46F1EE10FA08BFFB
:10EF400097FBF6F3B5EEC01A0EEB0004F1EE10FAE3
:10EF5000C8BF5B4602EE103AB8EEC22A21EE021A92
:10EF600092ED002A02EE001A94ED002AB4EEC21AC5
:10EF7000F1EE10FA12DA84ED001A8DAC2546044445
:10EF80002B52A4F802C079AB012430E0000000004D
:10EF9000C83E010840710408E86D0108B4EE421A49
:10EFA000F1EE10FA24D18DAC34F900C079AD2718F8
:10EFB0002E5806FB0C33741CB7F9025093FBF4FC7B
:10EFC0005346CA46D946F346DDF8A8E006FB05E6F7
:10EFD000DE4696FBF4F6CB46D1469A468DAB23F837
:10EFE00000C079ABDDF8A8C07E80299F2C9E1C5004
:10EFF00004304832483150289AD15846494603F0E7
:10F0000022FD249908F1020831442A9B2491219978
:10F01000091821911A9941EBE07107FB03F01A914D
:10F020002299091822911B9941EBE07123981B91B9
:10F030002B99401823901E9840EBE1701C991E906C
:10F0400000291F9838441F9004D031F81300304431
:10F0500021F813001D9A584632B907E032F8101013
:10F06000013122F8101001304845F7DD5C46CDF83B
:10F07000B0B055461F460DF5247A10E0504653A90E
:10F0800001F034FDBDF95001BDF94C51BDF94E718F
:10F09000BDF95291BDF95441BDF956B12C9050467D
:10F0A00001F048FDA399884251D22798B0F902C0D7
:10F0B0002B95674553DD3846209A10687B1EA8992A
:10F0C0001F301F3129974009D2684909AB9F584327
:10F0D0009DF885E201FB03F59DF88412A2462A9370
:10F0E00002EB800207EB8507264616E07045C49BBD
:10F0F0004FF0000098BF0120584040F098802C98B5
:10F10000B0EB0A0018BF0120B9EB0A0318BF0123B6
:10F1100003EA0004A0440AF1010ACA4525DC4FEACB
:10F120006A140AF01F0057F82450012383401D423F
:10F1300001D00024EEE752F8243023FA00F000F06A
:10F1400001008842D2D2C4980028D8D06FE02C9811
:10F15000A9EB000008EB400000F1020860E009F1B3
:10F1600001002C99401A804403E00DF5247A299F70
:10F1700034462798B0F9060060440138874248DADF
:10F18000209A46461068B8461F30D2680137AB9BBC
:10F1900040092A9700FB07F1A8981F309DF884E2E8
:10F1A00040099DF885C24743299402EB810103EB96
:10F1B0008703012014E06745C49F4FF0000298BF09
:10F1C00001227A404BD12C9AB2EB0B0218BF0122DC
:10F1D000B9EB0B0718BF012717403E440BF1010B99
:10F1E000CB451CDC4FEA6B170BF01F0553F827408B
:10F1F00000FA05F2144201D00027EEE751F827206B
:10F20000EA4002F001077745D5D2C49A002ADAD045
:10F2100025E009F101002C99401A804400E0B04635
:10F22000504601F087FC00287FF428AF34E02B988B
:10F2300053A9ADF84C012998ADF84E012C98ADF8C2
:10F2400050010AF10100ADF85291ADF85401A4A8A3
:10F25000ADF856B101F05CFCDDF8809018E02B9819
:10F2600053A9ADF84C012C98ADF84E81ADF8500182
:10F270002998ADF85291ADF854010BF10100ADF8A9
:10F280005601504601F044FCDA46DDF88090B04665
:10F29000289DDDF8A8C092E5C69824998142DDF842
:10F2A00038B0C0F0E980BDF83422BDF85C02BDF88A
:10F2B0004A32BDF87212801A471CC81AC599451CFB
:10F2C00015FB07F08842C0F0D7801F9E00EE106A41
:10F2D000B8EEC00ADDF890A001EE10AAB8EEC11A8F
:10F2E000DDF8A09002EE109A80EE018AB8EEC22AF4
:10F2F000CDE92B2382EE019AB0EE480AFEF752FBCD
:10F30000B0EE490A0446FEF74DFB06FB04F1219BD3
:10F3100004FB0AF2A3EB4101269B02FB04112A9194
:10F32000911B229A464604FB192201FB002800FB90
:10F330000AF1239A03FB102201FB0024502253A858
:10F340008DA9F1F778FB2B98B0EE4A0AADF89C0135
:10F350002C98ADF89E01ADF8A071ADF8A2512A9D90
:10F36000CDE969A61498A5426B904FF001006C900E
:10F370008DED6D8A8DED6E9A0ED04FEA480000EE4D
:10F38000100A281B01EE100AB8EEC00AF8EEC10AF6
:10F39000FEF7ECF920EE0B0A8DED6F0A00EE105A25
:10F3A00001EE108AB8EEC00AF8EEC10A01EE104A6A
:10F3B000B8EEC11AFDF7CEFB129C00208DED700A4D
:10F3C000C4E900009DED691A9DED6D2A9DED6E3A30
:10F3D0009DED6F0AA060B8EE411A22EE012A23EEDD
:10F3E000011A8DED742A8DED751A04F0B1F99DEDB9
:10F3F000692A9DED6F1AB8EE422A20EE020A8DEDC1
:10F40000760AB0EE410A04F04BFA9DED691A9DEDC3
:10F41000702AB8EE411A1D980028CD9A20EE010AF4
:10F42000209D22EE011A8DED770A8DED781A04D019
:10F430002988119B0094FDF739FB1C9A002A139C24
:10F4400007D0A988109800901046CE9A0F9BFDF720
:10F450002DFBCA9818B153A9C99A904720B12046EC
:10F4600053A901F090FB07E0729808B103F030FC5B
:10F47000739808B103F02CFC2DAC139EA646DDF862
:10F4800074C00125DDE915A4199F5F44A742FFF66A
:10F490000EACC298179901440D988142FFF6E0AB7B
:10F4A00001F0E9B827982DACB0F90280B0F9060058
:10F4B00000EB080108460791481E00EE100A0121E2
:10F4C000B8EEC0CA069801FA00F0DDF874C00890E2
:10F4D00000F0B4BCDDF880904FF0010EB8FBFBF0FB
:10F4E000D9F80010D9F80C20279B01FB08F102EB9A
:10F4F0004105A899B3F900201F31B3F90430490937
:10F5000001FB08F12C901344AB985F1E00EE107ABB
:10F5100000EB810A2C9800FB1B80B8EEC0DA87183C
:10F52000CDE90B58CDE909A300F083BC781107F0B1
:10F530001F015AF820000EFA01F1084240F07884C9
:10F5400035F817005FF8B01500EB40009DF88422F5
:10F55000095C8A429CBF9DF8852291420DD85FF8D4
:10F56000C81508449DF9862290F901108A42DCBF33
:10F570009DF98722914240F33184C498002800F01D
:10F58000578400205FF8F8155FF8F8250D9734E0F0
:10F5900091ED000AB0EEC01A8DAD80EE011A26186A
:10F5A000483121EE0D1A81FE4D1A81FE0A1ABDEE78
:10F5B000C12AB6EEC11A92ED003AB0EEC34A12EE7D
:10F5C000103A483283EE044A2B522B1879AD24EEC0
:10F5D0000C4A84FE4C4A84FE0A2ABDEEC24AB6EEAC
:10F5E000C22A45F800E023EE022A043014EE107A15
:10F5F00000EE012A5F8086ED002A5028C8D1BCF1B8
:10F60000000F0D9D4C464FF0010906D02168604661
:10F610004900F1F742FA4FF001091C9828B16168DE
:10F620004900F1F73AFA4FF0010900201A90002042
:10F6300016900020199000201590002018900020AE
:10F64000149000201790002000262B900020AA463E
:10F650001B90C6462068764400FB0EF0E268A8992D
:10F66000750002EB40089DF885221F319DF8840249
:10F67000269249099DF9862201FB0EF7AB9B4FF0BC
:10F68000010C23929DF98722279922929DF98822C5
:10F69000B1F9001021929DF98922299003EB87008E
:10F6A0000EFB0EF31F924FEA4E022A9624922593E8
:10F6B000CDF8B0A02C9A8A423DDD2C9A013A561121
:10F6C00002F01F0450F8266009FA04F4264232D1F1
:10F6D00038F812605FF8404706EB4606299FA45DA4
:10F6E000A7429CBF269FBC420AD85FF854472644D5
:10F6F000239F96F90140A742DCBF229FBC420CDD4C
:10F70000C49FC7B1259C0CF1010C2A9F2344249C63
:10F71000774425442A972C92CCE796F90240219E03
:10F72000A642EDDC1F9EB442C49F4FF00006D8BF36
:10F7300001267E40E6D1279A08F10208B2F904209A
:10F74000D3466746CDF8A0E0114401398C46E34525
:10F7500042DA0BF10104611104F01F0250F821108C
:10F7600009FA02F2114237D138F81B105FF8D82796
:10F7700001EB410112F801E0299A72459CBF269ADB
:10F7800096450AD85FF8F0271144239E91F901208D
:10F790009642DCBF229EB24210DDC49900294FF090
:10F7A0000109DDF8A0E017D0259901370B44249911
:10F7B0000D442A9971442A91A346C8E791F9021091
:10F7C000219A8A42E9DC1F9A9142C49A4FF00001C3
:10F7D000D8BF01215140E2E72C990DF1B40C2993D7
:10F7E0000AE001F01F024B1109FA02F250F82360FF
:10F7F000324340F8232001315945F2DD0BF101007D
:10F800002C9A00FB0BF000EE10EA511E219501FB33
:10F810001200022190FBF1F8B8EEC00A5FF89018D0
:10F820005FF89028CDF878A000205CE091ED001AF8
:10F83000B5EE401A5B46F1EE10FA08BF98FBF7F3FD
:10F84000B5EEC01A2C9CF1EE10FAC8BF234602EEAA
:10F85000103A0CEB0004B8EEC22A21EE021A92ED27
:10F86000002A02EE001A94ED002AB4EEC21AF1EE5C
:10F8700010FA0BDA84ED001A8DAC254604442B52A5
:10F8800079ABA4F802E043F8009029E0B4EE421A04
:10F89000F1EE10FA24D18DACDDF8A090DA46E34603
:10F8A000A446245EBE460CEB000779AD2E58B7F98E
:10F8B000025006FB0433741C06FB05964FF0010949
:10F8C00093FBF4F396FBF4F62CF80030DC467E80D4
:10F8D000D346DDF878A07746DDF8A0E079AB1C5080
:10F8E0000430483248315028A0D12C98594603F0B2
:10F8F000AAF83A461B991144289F1B911899091898
:10F900002B9B189103F10203149941EBE07108FB62
:10F9100007F01491199909181991159941EBE071A3
:10F920001A981591299940181A90169840EBE17091
:10F930001C991690002917984044179004D031F86C
:10F940001700104421F817001D9A002A2C98209CBB
:10F950002B9306D107E032F81010013122F8101075
:10F9600001305845F7DD2C985646054629900DF58F
:10F97000247A269712E0504653A901F0B7F8BDF952
:10F980004E01BDF94C612690BDF95001BDF952B14F
:10F990002990BDF95601BDF954512C90504601F003
:10F9A000C9F8A39988426ED2CDE923652798B0F9AA
:10F9B0000220269F97426FDDA89B013F03F11F069F
:10F9C0002068D4F80CC07409784322927C43AB9D24
:10F9D0009DF884120CEB40009DF8852205EB84090C
:10F9E0009DF986329DF987E228979DF988829DF9D5
:10F9F0008972DDF890A02B9E2597DA4553DC4FEAFB
:10FA00006A170AF01F0559F82770012404FA05F552
:10FA10002F4201D0002425E030F81A705FF8884AA0
:10FA200007EB470C2B9614F80C40A14298BF944268
:10FA300008D85FF89C4A644494F90170BB42D8BF6F
:10FA4000774513DDC49F002F2B9E40F0AC80299F8B
:10FA5000B7EB0A0718BF0127BBEB0A0518BF012542
:10FA600005EA070426440AF1010AC6E794F9027080
:10FA7000B845E7DC259EB742C49D4FF00007D8BFCC
:10FA800001276F40E0E72998ABEB00002B9901EBD1
:10FA9000400002302B907FE00BF101002999401AC1
:10FAA0002B9E064404E0209C0DF5247A269F229A82
:10FAB0002798B0F9060010440138874264DAA89A02
:10FAC0000137216802F11F032B9601FB07F65D0940
:10FAD000D4F80CC028976F43AB9C0CEB46059DF8FF
:10FAE000840204EB87069DF885129DF986229DF914
:10FAF00087329DF988E29DF989C22C9C5C454ADCDD
:10FB00002C9F4FF001097C1107F01F0756F8244085
:10FB100009FA07F73C4201D0002421E02C9C35F87B
:10FB20001440DFF8587E04EB44043F5DB84298BFB0
:10FB30008F4208D8DFF8447E3C4494F90170BA4201
:10FB4000D8BF9F4213DDC49C002C43D1299C2C9F1D
:10FB5000E41B18BF0124BBEB070718BF01273C407B
:10FB60002B9F27442C9C01342B972C94C5E794F9A8
:10FB70000240A645E7DC6445C49F4FF00004D8BFAF
:10FB800001247C40E2D025E00BF101002999401AC4
:10FB900006442B9600E0209C504600F0CBFF002846
:10FBA0007FF4E9AE34E0239853A9ADF84C012698D0
:10FBB000ADF84E012998ADF850010AF10100ADF8F9
:10FBC00052B1ADF854012C98ADF85601A4A800F03C
:10FBD0009FFF16E0239853A9ADF84C012698ADF885
:10FBE0004E012998ADF8500124982C9CADF852B1E3
:10FBF000ADF85401601CADF85601504600F088FF86
:10FC0000A246209C4FF001092A9EDDF8A0E021E5E4
:10FC1000C69827461B998142C0F0FC80BDF834820B
:10FC2000BDF85C02BDF84AB2BDF87212A0EB080044
:10FC300000F1010AA1EB0B00C599451C15FB0AF068
:10FC40008842C0F0E780DDF85C9000EE109AB8EED4
:10FC5000C00A1B9F01EE107AB8EEC11A2A9E02EE6E
:10FC6000106A80EE018AB8EEC22A82EE019AB0EEE6
:10FC7000480AFDF797FEB0EE490A0446FDF792FEEA
:10FC800009FB04F1189B04FB07F2A3EB4101219B44
:10FC900002FB04112C91A2EB0901199A04FB162214
:10FCA00001FB002600FB07F11A9A03FB102201FB5F
:10FCB0000024502253A88DA9F0F7BDFE2B98B0EE7A
:10FCC0004A0AADF89C81ADF89EB1ADF8A0A1ADF89F
:10FCD000A2512C9D6997A5426A9008986B904FF0AD
:10FCE00001006C908DED6D8A8DED6E9A0DD07000D7
:10FCF00000EE100A281B01EE100AB8EEC00AF8EE5A
:10FD0000C10AFDF733FD20EE0B0A8DED6F0A00EE00
:10FD1000105A01EE106AB8EEC00AF8EEC10A01EE00
:10FD2000104AB8EEC11AFCF715FF129C00208DEDA9
:10FD3000700AC4E900009DED691A9DED6D2A9DEDE4
:10FD40006E3A9DED6F0AA060B8EE411A22EE012ACC
:10FD500023EE011A8DED742A8DED751A03F0F8FC6F
:10FD60009DED692A9DED6F1AB8EE422A20EE020A37
:10FD70008DED760AB0EE410A03F092FD9DED691A11
:10FD80009DED702AB8EE411A1D980028CD9A20EEFC
:10FD9000010A209F22EE011ACA9D8DED770A8DED92
:10FDA000781A04D03988119B0094FCF77FFE1C9AC6
:10FDB000002A139C07D0B988109800901046CE9A5C
:10FDC0000F9BFCF773FE25B12846C99A53A99047AB
:10FDD000C0B1204653A900F0D6FE1BE090F9020006
:10FDE0009DF9881281423FF7C8AB9DF9891288427C
:10FDF000C4994FF00000D8BF0120484001283FF4CB
:10FE0000C0AB15E0729808B102F062FF739808B1B8
:10FE100002F05EFF139E2DACDDF874C04FF0010EB2
:10FE2000DDF838B0B946DDE90B58DDE909A30D9FCF
:10FE30005F449F42FFF67AABC298804407988045A2
:10FE4000FFF648AB00F017BC27980125B0F9022057
:10FE50002DACB0F90600A646811808460991481E47
:10FE600000EE100AB8EEC0CA069805FA00F0DDF8F8
:10FE700074C00A90FBE3B2FBFBFA279BA899B3F985
:10FE80000070B3F904301F314909209CD819AB9B8D
:10FE90005143D4F80080461E00EE106A03EB810146
:10FEA00015910AFB1B23E168B8EEC0DA0D9208FB3E
:10FEB0000214024603EB0708CDE90B40D0E34FEAFA
:10FEC0006810159B08F01F0153F8200005FA01F196
:10FED000084240F0C48314F808009DF8841281425F
:10FEE00002D9C49860B9BAE39DF885128842C499D2
:10FEF0004FF0000098BF01204840012840F0AF8338
:10FF00000020DFF8801ADFF8782A34E091ED000A4B
:10FF1000B0EEC01A8DAF80EE011A0EEB000679AC80
:10FF2000483121EE0D1A81FE4D1A81FE0A1ABDEEEE
:10FF3000C12AB6EEC11A92ED003AB0EEC34A12EEF3
:10FF4000103A483283EE044A3B523B1824EE0C4AE6
:10FF500084FE4C4A84FE0A2ABDEEC24AB6EEC22A8C
:10FF6000255023EE022A043014EE107A00EE012A06
:10FF70005F8086ED002A5028C8D1BCF1000FDDF863
:10FF8000809005D0D9F8001060464900F0F785FD53
:10FF90001C9820B1D9F804104900F0F77EFD00202C
:10FFA0000D9E1F900020199000201E900020189098
:10FFB00000201B90002017900020299000201A900C
:10FFC00000202C9000202190CDF85080A89806FBAE
:10FFD00006FE1F30AB994009D9F800307043D9F8BC
:10FFE0000C70279AC34601EB80009DF88512299D6D
:10FFF00023917100B2F900C035449DF884424FEA64
:020000040801F1
:1000000045092A960122CDE9243103FB0671169792
:10001000299171462B9210E0239A00239245C49AAD
:1000200098BF0123534020D0259A714491442A9AC5
:1000300015442B9A01322B92B346E34515DDABF103
:1000400001062746741106F01F0350F824400122D0
:1000500002FA03F31C423C4607D1299A12F806A083
:100060005445D9D9C49A002ADED1CDF89890C1461A
:10007000CDE92815279AB2F904302A9D24996344C2
:10008000169AA3F1010A05FB0126711C249115E0C3
:10009000239900228C45C49B98BF01225A4023D04B
:1000A0002899B14671442891DDE925120A44269227
:1000B000299A2A4429922B9A01322B92D14513DA9C
:1000C00009F10106731106F01F0250F823300127D1
:1000D00007FA02F2134207D1249911F809C06445C6
:1000E000D6D9C49A002ADBD15946DDF8ACA00DF16F
:1000F000B40C4FF0010E0AE001F01F024B110EFA92
:1001000002F250F82360324340F823200131494580
:10011000F2DD09F1010000EE105A00FB09F0DFF8F2
:100120006028ABF10101B8EEC00A01FB1B000221FF
:1001300090FBF1F7DFF84C18CDF888B0002057E0BD
:1001400091ED001AB5EE401A4B46F1EE10FA08BFD9
:1001500097FBFAF3B5EEC01A0CEB0006F1EE10FABD
:10016000C8BF5B4602EE103AB8EEC22A21EE021A70
:1001700092ED002A02EE001A96ED002AB4EEC21AA1
:10018000F1EE10FA09DA8DAC86ED001A261823522A
:1001900079AB758043F800E027E0B4EE421AF1EE47
:1001A00010FA22D18DACDDF8A8A0BB46265E271838
:1001B000E646B7F90250A44679AC245804FB06334E
:1001C000661C04FB05A5DDF8ACA093FBF6F395FBDC
:1001D000F6F52CF80030F4467D804FF0010E2A9D94
:1001E0005F46DDF888B079AB1E50043048324831A4
:1001F0005028A5D15846494602F025FC2199514482
:1002000021911B9909181B91179941EBE0711791E6
:1002100007FB05F02C9902312C911E9909181E91AB
:10022000189941EBE0711F981891289940181F9078
:10023000199840EBE1701C99199000291A983844DC
:100240001A9004D031F81500504421F815001D9A79
:10025000584632B907E032F81010013122F8101078
:1002600001304845F7DD5F462C9EDA462B95444623
:100270000DF5247810E0404653A900F037FCBDF995
:100280004E01BDF94C41BDF950A1BDF95291BDF9E6
:100290005471BDF956B12B90404600F04BFCA39928
:1002A00088424CD22798B0F902C02B9B63454CDDA5
:1002B000A899013B1F312A944909209A3C461068AD
:1002C00001FB03F7D268AB9DA0469DF884129DF810
:1002D00085E22C961E4600FB032305EB870027468C
:1002E00016E07245C49D4FF0000298BF01226A409B
:1002F00040F08A80BAEB080218BF0122B9EB08056A
:1003000018BF01252A402C9C08F1010814442C94A4
:10031000C84520DC4FEA681208F01F0550F822207B
:10032000012404FA05F52A4201D00022EBE713F874
:1003300008209142D5D9C49A002ADBD064E0A9EB09
:100340000A0006EB4000861C57E009F10100A0EB13
:100350000A00064404E02C9E0DF52478DDE92A43CA
:100360002798B0F9060060440138834240DAA89823
:10037000A6461F3020995C1C0A684009CB6800FB28
:1003800004F59DF88402BC46AB9F9DF8851202FBE4
:1003900004322A9407EB8503012413E08D42C49DA7
:1003A0004FF0000798BF01276F4044D1BAEB0B070D
:1003B00018BF0127B9EB0B0518BF01253D402E449E
:1003C0000BF1010BCB4518DC4FEA6B170BF01F0547
:1003D00053F8277004FA05F52F4201D00025EEE707
:1003E00012F80B50A842D9D9C49F002FDED022E0CA
:1003F00009F10100A0EB0A000644404600F09AFB18
:1004000000287FF438AF2FE02A9853A9ADF84C01AB
:100410002B98ADF84E0108F10100ADF850A1ADF8F0
:100420005291ADF85401A4A8ADF856B100F070FB9C
:10043000DDF88090CAE52B9853A9ADF84CE1ADF8F2
:100440004E010BF10100ADF850A1ADF85291ADF89D
:1004500054C1ADF8560140462C9600F059FBD846E1
:10046000DDF880902A9EB1E5C698219981422C96AC
:10047000C0F0EA80BDF83482BDF85C02BDF84A9253
:10048000BDF87212A0EB0800451CA1EB0900C5994C
:10049000461C16FB05F08842C0F0D680DDF868A047
:1004A00000EE10AAB8EEC00ADDF884B001EE10BA72
:1004B000B8EEC11A299F02EE107A80EE018AB8EEDA
:1004C000C22A82EE019AB0EE480AFDF76BFAB0EE4E
:1004D000490A0446FDF766FA0AFB04F11B9B04FB7C
:1004E0000BF2A3EB4101269B02FB04112B91A2EB23
:1004F0000A011E9A04FB172201FB002700FB0BF1E7
:100500001F9A03FB102201FB0024502253A88DA93F
:10051000F0F791FA2C98B0EE4A0AADF89C81ADF84C
:100520009E91ADF8A0512B9DADF8A261A542CDF8EA
:10053000A4B16A900A986B904FF001006C908DED19
:100540006D8A8DED6E9A0DD0780000EE100A281B92
:1005500001EE100AB8EEC00AF8EEC10AFDF706F97E
:1005600020EE0B0A8DED6F0A00EE105A01EE107AA4
:10057000B8EEC00AF8EEC10A01EE104AB8EEC11A90
:10058000FCF7E8FA129C00208DED700AC4E9000027
:100590009DED691A9DED6D2A9DED6E3A9DED6F0AF8
:1005A000A060B8EE411A22EE012A23EE011A8DED69
:1005B000742A8DED751A03F0CBF89DED692A9DED37
:1005C0006F1AB8EE422A20EE020A8DED760AB0EEDE
:1005D000410A03F065F99DED691A9DED702AB8EEA8
:1005E000411A1D980028CD9A20EE010ACA9D22EEDC
:1005F000011A8DED770A8DED781A05D020990988BA
:10060000119B0094FCF752FA1C9A002A139C08D004
:1006100020988188109800901046CE9A0F9BFCF786
:1006200045FA25B12846C99A53A9904720B12046DA
:1006300053A900F0A8FA07E0729808B102F048FB4D
:10064000739808B102F044FB2DACDDF874C0A646E7
:10065000DDF838B00125DDE90B42DDF85080D844E3
:100660009045FFF62CACC2980D9A0244139E09984F
:100670008242FFF600AC069801300690059800F023
:100680000FFA0446209D002C7EF4C1AAA4A800F015
:100690004CFA1C9808B1FDF73FFA1D9808B1FDF718
:1006A0003BFAFDF739FAC798002800F05F812DA8C2
:1006B000DFF8D0B20146DFF8C8825030B24F2A903E
:1006C0008DADC89847F6FF79440053A800F1500259
:1006D0002C9201F17C02279201F17802269201F11D
:1006E0008002259201F17A0202312492023029918E
:1006F00028909821284600F026FA0020239027E130
:10070000304653A900F025FA304600F05AFA4FF06F
:10071000000A239D2B9010E1304600F01AFABDF933
:100720000401C899401A0A464845A8BF4846BDF981
:100730000611B842D8BF3846891A4945A8BF49466C
:10074000BDF90821B942D8BF3946BDF90A31224462
:100750004A45A8BF4A462344ADF8E40122EAE272C2
:10076000ADF8E6114B45A8BF4B4623EAE370ADF860
:10077000E821ADF8EA0179A92C9800F0E7FD0028FE
:1007800000F0D580CC9838B1CC9853A92DAACB9B3A
:100790009847002800F0CB80CD9EB6B1BDF904216A
:1007A000BDF90831BDF99C011344BDF9A011013B0D
:1007B000CDE90023279A014402920139269ACDE916
:1007C0000326DDE9112300F04CFBCE9EB6B1BDF946
:1007D0000621BDF90A31BDF99E011344BDF9A211EC
:1007E000013BCDE90023259A014402920139249A64
:1007F000CDE90326DDE90F2300F033FB0020DDE91E
:10080000281234E031F9023C0BEB000608EB00053E
:1008100000EE103AB8EEC00AB1F9003001EE103A1D
:10082000B8EEC11A32F9023C96ED002A03EE103AF6
:10083000B8EEC33AB2F9006095ED004A05EE106AD1
:1008400024EE011AB8EEC55A22EE054A02EE001A4D
:1008500002EE034AB4EEC14AF1EE10FA04DA9BB29A
:10086000B6B221F8023C0E80483004320431B0F5B3
:10087000B46FC7D12C982A9900F08DFDDDE94301B2
:100880006A9A1144699A6A91104445996B9A114386
:1008900069906B919DED4E0A9DED742A469930EE5C
:1008A000020A6C9A9DED4F1A9DED753A114431EE96
:1008B000031A9DED502A9DED763A6C9132EE032A93
:1008C0009DED513A9DED774A8DED740A33EE043A71
:1008D0009DED524A9DED785A34EE054A8DED751A1C
:1008E0008DED762A8DED773A8DED784A04EE100A7B
:1008F000B8EE444A80EE045A81EE041A83EE040AEC
:10090000C2EE040A8DED6D5A8DED6E1AFCF72EFFC6
:100910009DED691A9DED782A8DED6F0AB8EE410ABA
:100920000125139E82EE000A8DED700A03E0304629
:100930002DA900F028F90AF1010A2B982DA982456A
:100940007FF4EAAE23958DAD284653A900F01BF93C
:10095000304600F036F900287FF4D2AE3046294602
:1009600000F0EAF82398C0077FF4C3AE0DF52C7DA4
:10097000BDEC0C8B01B0BDE8F08F00BFE86D010845
:1009800040710408C83E01080080FFFF10B500292F
:10099000A8BF002A00DA10BDD0F800C08C45FADDEF
:1009A000D0F804E09645F6DDD0F808E0BEF1020F7D
:1009B00020D0BEF1010F23D0BEF1000FEBD10CF11E
:1009C0001F0CC0684FEA5C1C0CFB02F24FF0010CDC
:1009D00002EB511401F01F0150F824E00CFA01F26F
:1009E00003F001032EEA020203FA01F1114340F879
:1009F000241010BDC0680CFB021120F8113010BD8E
:100A0000C0680CFB0211435410BD0000B0B5DFF804
:100A100080C000220CF10403D0F800E00DE053F890
:100A2000044C744507D11C688568AC4203D15C68EE
:100A30004569AC421AD001321033012AEFD9022A9B
:100A400014D1002205E0DCF8003033B101320CF1A2
:100A5000100C012AF7D9022A10D0CCF800E08368E4
:100A60004069CCE901300020ACF80C0008480029AE
:100A700000EB021030F80C3F02D01BB10020B0BDDB
:100A8000591C01E04FF480710180501CB0BD00BFC3
:100A9000D8030020C368083110461A46EFF786BF16
:100AA00000687047006870478A7E0078CB7E032814
:100AB00042EA032018BF70470A7D497D42EA0121BE
:100AC00040EA01407047006870477CB5064601A8BF
:100AD00014460D46FCF7B6FF01990022B1FBF4F174
:100AE000C6E90021C6E9024029607CBD10B5002995
:100AF000044609D02068D4E90223013800FB023300
:100B000008461946EFF752FF20680138206010BDF3
:100B100010B504460068D4E9022302FB0030EFF769
:100B200045FF20680130206010BDC06808B1FCF7A7
:100B3000F3BF70470068704791E80C10C96880E8FF
:100B40000C10C16070470022C0E90022C0E90221F8
:100B50007047B0B500290468054606D004F10803C3
:100B6000EA6808461946EFF721FF206810B1002116
:100B700041602068A9682860481EA8602046BDE83A
:100B8000B04002F0A5B870B50446C06808300E4603
:100B900002F059F80546E26808303146EFF706FFE3
:100BA000A16800204A1C0029A260286005D054F8E2
:100BB000040F68602068056001E0686020C425605B
:100BC00070BD8068704700002DE9FE4FF3F724FFE9
:100BD000F8F79AFFF7F70EFDF1F752FE01F0B0FFBC
:100BE0004FF4E130F9F71AFEDFF850B15623DFF881
:100BF0005491584652494A46DFF84CA1D04753A079
:100C000055A100905AA31A225846D047F8F7A2FEE1
:100C10005A4DF0225A49F0232846F9F7ADFC5949BC
:100C20000020F9F745FC58490120F9F741FC002064
:100C3000F9F72EFC0120F9F72BFC4AF65550F9F78D
:100C40007DFC2846F9F7D2FC504D2846F9F788FC80
:100C50000020F9F7D7FC4AF65550F9F7CDFC4C4E79
:100C60000A2206F134074B494B4B3846F9F71EFD73
:100C70004AA13846F9F795FD38462946F9F79FFD10
:100C80006420322401904FF002080294311DCDF807
:100C90000080002214233846F9F7E6FADC20CDF86C
:100CA000008006F11C01019001220294782338464D
:100CB000F9F7DAFA002138462A46F9F727FB00212E
:100CC0004FF6FF723846F9F70FFB36A2002138467F
:100CD000F9F72EFB012138462A46F9F717FB0121C7
:100CE0004FF6FF723846F9F7FFFA30A20121384675
:100CF000F9F71EFB3846F9F781FDF9F78BFCF7F79A
:100D00004FFEFAF71BFC6420FCF798F828A0FBF7CD
:100D10003DF8FCF7C9FEFCF7D3FE30607F23584650
:100D200007494A46D047326827A15846D047FCF7C2
:100D30000FFA002003B0BDE8F08F00BFA4A400208C
:100D40000F7704083A77040831BE000831323A338D
:100D5000383A3535000000004F70656E4D56204220
:100D600055494C443A2530346420257320257300BE
:100D70004A616E202037203230323100F8030020E3
:100D8000E5980008419800080F990008E43D010823
:100D90003803002034A50020172C01084F70656E21
:100DA0004D56340046696E64000000004F4B210030
:100DB0005553425F4445564943455F496E69742027
:100DC0004F4B21210D0A000066625F617661696CFC
:100DD000A3BA256400000000002A08BF704711F87C
:100DE000013B013A00F8013BF9D170472DE9F84F7A
:100DF000824600284FF0000030D0934672B30F4671
:100E000059B35846EFF768FDB84226D80646781C15
:100E1000801B4FF0000900901FFA89F40098A0424F
:100E20001BD900251FFA85F846450FD908EB0400A9
:100E30001AF80000EFF7E7FB1BF808100746084612
:100E4000EFF7E1FB874205F10105EBD0464509F1DB
:100E50000109E1D10AEB040000E0002001B0BDE887
:100E6000F08F2DE9F84F2DED0E4BDDF860A0804698
:100E7000D346199D5045B8BF83462846A942C8BFEE
:100E80000846A0EB0B071C987E1C0797864298BF6C
:100E9000304687B202908946059278001C4601F0E0
:100EA000DEFE00EE107AA9EB080101EE106A0131B6
:100EB000B8EEC00A0646B8EEC11A2288CDF81890DE
:100EC00003EE101A01949142D8BF0A46A5EB0A011D
:100ED00092B280EE018A013102EE102A1B9A01EED5
:100EE000101AB8EEC22AB8EEC33A12889142D8BF9F
:100EF0000A4692B282EE039AABEB0A0100EE102A88
:100F00004FF0000AB8EEC00AB8EEC11A0491ABEB7C
:100F1000080180EE01AA03914FE00BEB0A09C145DD
:100F200022DB069881451FDC0398504400EE100A2E
:100F3000B8EEC00A29EE000AFCF7FCFC059C00EEA6
:100F400010AA0746206830F81750B8EEC00A28EEFD
:100F5000000AFCF7EFFC36F81010294426F81010B0
:100F60000021206820F817101898814523DB199874
:100F7000814520DC0498504400EE100AB8EEC00A07
:100F80002AEE000AFCF7D6FC07461A9800EE10AAD3
:100F90000446006830F81750B8EEC00A28EE000A80
:100FA000FCF7C8FC36F81010294426F81010002170
:100FB000206820F817100AF1010A07988245ACDD75
:100FC000059D286801F084FE1A980446006801F027
:100FD0007FFEDDE90110088000201B992E6008804B
:100FE0002060BDEC0E4B01B0BDE8F08FB0B50446FB
:100FF000C06A884201D10020B0BD20460D4601F0F4
:1010000077FD00B1B0BD607804F1300101232A46BC
:10101000FCF778F800281CBF4FF0FF350120E5628F
:10102000B0BD000070B502221B4B0146428017483C
:10103000C8611748174ADFF864C0DFF864E0194C4C
:10104000C86201F14000184D184E0A634B63C1F8A5
:1010500038C0C1F83CE070C01548164A164B174E10
:10106000174D184CDFF860C0DFF860E0C8640A650F
:101070004B658E65C1E91754C1E919CE4868144A19
:1010800040F014030020CA664B6070BD991401083B
:10109000B927010811250108F5230108A12301083A
:1010A000852201086D28010853260108112801082E
:1010B00039230108F91E010831E300089D1B0108CE
:1010C00025E00008F121010841E50008AF260108EC
:1010D0003D29010870B502221F4B014642801C4881
:1010E0001C4ADFF878C0DFF878E01E4CC86101F1D7
:1010F00030001D4D1D4E0A624B62C1F828C001F13F
:101100003C0CC1F82CE070C019481A4A1A4BACE8E4
:101110000D001A481A4A1B4B1B4E1C4D1C4CDFF885
:1011200074C0DFF874E0C8641C480A654B658E65BE
:10113000C1E91754C1E919CEC866194A4868194B64
:101140000A6740F00D0200204B674A6070BD00BF87
:10115000591401089D2901082F130108192C0108B1
:1011600049270108F9230108F12301088523010813
:101170004D2201083528010821260108D522010841
:10118000791D010891E200088D1A01084DDF000861
:10119000A12001083DE400087B2601080929010877
:1011A000BD280108112701082DE9F0412DED088B1C
:1011B000801AB0EE408ADDF83C8000EE100A1C4632
:1011C00015460E9FB8EEC0AAB0EE480ACE1A02F03D
:1011D000BFFA20EE0A9A00EE106AB8EEC0BAB0EE7E
:1011E000480A02F05DFB00EE4B9A00EE105AB8EE92
:1011F000C00A39EE000ABDEEC00A10EE100AB0EEC9
:10120000480A388002F04CFBB0EE409AB0EE480A33
:1012100002F09EFA20EE0B0A01EE104A09EE0A0ACD
:10122000B8EEC11A30EE010ABDEEC00A10EE100A87
:10123000A8F80000BDEC088BBDE8F0812DE9F04175
:10124000022927D3044640690E46884222D92078D5
:101250001546032821D0022837D001281AD106EBE1
:101260005607206A00EB57212046FFF7BFFE0028F3
:101270005BD107F101086FF35F2716F0010604EB5D
:10128000070000F1300030D0017801F00F0165F364
:101290000B112BE00220BDE8F081206A00EBD61193
:1012A0002046FFF7A3FE00283FD106F07F0004EBA5
:1012B000800000F130063046FFF705FC014665F37B
:1012C0001B01304601F093FB2CE0206A00EB162155
:1012D0002046FFF78BFE40BBF0B2290A04EB40002A
:1012E00080F8305080F831101CE0E9B20170012024
:1012F000216AE07001EB58212046FFF777FEA0B984
:101300006FF35F28002E04EB080000F1300002D0DC
:10131000C5F3071105E00178C5F3032201F0F001E0
:10132000114401700120E0700020BDE8F081E0B5BB
:1013300040780DF10702FBF767FC9DF807100028C5
:1013400018BF4FF0FF31084602B080BDB1F9003040
:101350008446B1F90420B0F900001A44824218DD35
:10136000BCF90420104498424FF0000010DDB1F9A0
:101370000230B1F90620BCF902101A448A42D8BFE3
:101380007047BCF90600014400209942C8BF012003
:1013900070470020704770B5B0F900E0B1F9003037
:1013A000B1F904C0B0F902609E45B1F902400CEBFE
:1013B0000302B1F90610B8BF7346B0F904C0A642E3
:1013C0002144B8BF34460CEB0E05B0F906C0954277
:1013D000C8BF2A4666448E42C8BF3146D21A03802F
:1013E000091B44808280C18070BDF8B502292DD3CD
:1013F0000568044668690E46884227D911462AB115
:101400004FF0FF322846FFF719FF00BB2046314658
:10141000FCF7A6FE074601301BD0AFB1012F15D057
:10142000002228463146FFF709FF80B9D5E90410AC
:10143000821E914205D22A790131296142F00101CF
:10144000297187423E46E1D3002000E0022001B02E
:10145000F0BD0120FBE7000070B504464078122182
:101460008022FBF70DFC0A2001F0A6FB0025094EA7
:1014700008E006EB450216F8151060785278FBF785
:10148000FFFB0135472DF4D11E2001F095FB002014
:1014900070BD00BF8044010870B504464078FF214C
:1014A0000122FBF7EDFB607812218022FBF7E8FBBD
:1014B0000A2001F081FB00250E4E08E006EB4502F4
:1014C00016F8151060785278FBF7DAFB0135AC2D71
:1014D000F4D10025084E08E006EB450216F8151079
:1014E00060785278FBF7CCFB0135222DF4D1002037
:1014F00070BD00BF10450108717D040810B5044699
:1015000000F0B2F818B1012803D1A0880EE0002045
:101510000CE02168C1F34E00B0EB514F4FEA51414E
:1015200001D2081A02E0A288081A104480B210BD45
:10153000F8B514460F460546FFF7E0FFB0B12A683C
:10154000A042A988AB68C2F34E0638BF04468A1B86
:10155000A24203EB06010BDD38462246EFF726FADE
:10156000286804EB500161F34F0017E0002416E0F7
:101570003846EFF71BFA2A68A888A968C2F34E021A
:10158000821AB818A21AEFF711FAA8882968201A47
:1015900000EB510060F34F0181F00100286020460C
:1015A00001B0F0BD2DE9F041868805461446884615
:1015B000FFF7A4FF301A010418D081B2A14238BF4E
:1015C00004462868A7B2A6EB5042A968BA42164E54
:1015D00001EB50400CDD41463A46EFF7E7F9286849
:1015E00004EB5041304040EA414018E0002417E04D
:1015F0004146EFF7DBF9A8882968A0EB5142A868BB
:1016000008EB0201BA1AEFF7D1F9A8882968201A65
:1016100000EB5140314041EA404080F48030286086
:10162000A0B2BDE8F08100BFFFFF010070B5868861
:1016300004460D46FFF762FF864201D1002070BDCF
:101640002068A168400C0D54A0882168013801F57C
:101650000032B0EB514F4FF001006FF35F4108BF14
:1016600081F48032226070BD0068C0F34E01B1EB9E
:10167000504F04D180EA104000F001007047022072
:10168000704700002DE9F047714C04F54066714F3A
:10169000802101223046B8476F4D0A20A84780219B
:1016A000002230464FF00008B8470A20A847FBF751
:1016B000A5FA0A20A84700204FF080714FF480124D
:1016C000F5F782F8DFF894A180215046EFF707FA8A
:1016D00040F20110AAF814004FF480610122204664
:1016E000B8470A20A8474FF4806100222046A1464F
:1016F000B8470A20A847FBF7A9FA01068AF80100B3
:1017000033D14FF480618AF8158001224846F2F700
:1017100015FF0A2001F050FAFBF798FA01068AF843
:10172000010022D100208AF81400802101223046D5
:101730000125F2F703FF0A2001F03EFAFBF786FAD3
:1017400001068AF8010010D14FF480618AF8155023
:1017500000224846F2F7F2FE0A2001F02DFAFBF7CC
:1017600075FA01068AF801006ED0C0B23C498AF8C9
:1017700000805428CAF87C1006D15420394C8AF8CD
:10178000000040F247130AE000215246FBF73CFA02
:101790009AF80000132810D1324C40F2531332490A
:1017A000324A2046FAF744FB4C492046FAF740FB00
:1017B0006FF002052846BDE8F0879AF801000A217B
:1017C0005246FBF721FA9AF8000026280DD0772818
:1017D00019D09628ECD1234C40F2611322492046BF
:1017E000224AFAF725FB34A1DFE71C48FFF71AFC71
:1017F0001C4E05461C4940F267131C4A3046FAF756
:1018000017FB23A10CE01548FFF764FC154E0546B5
:10181000154940F26B13154A3046FAF709FB14A13B
:101820003046FAF705FB15B16FF00305C2E7F0F794
:10183000CBFC00200025FBF7F5FA1D480068C560C9
:101840001C48CAF80800B5E76FF00105B2E700BF11
:10185000000002583D450008B92B010890A6002061
:10186000A5190108A4A400200F7704084E7D0408E0
:10187000204F56373732355F49442053656E736FBA
:101880007220697320737570706F727465642E00B6
:10189000204F56323634305F49442053656E736FA3
:1018A0007220697320737570706F727465642E0096
:1018B00004000020306E0408204F56393635305F62
:1018C00049442053656E736F72206973206E6F7484
:1018D00020737570706F727465642E00347D040817
:1018E00080B56348002101618176C0F81610064971
:1018F0008160C169884710B14FF0FF3080BD6248F8
:10190000F1F7EAFB002080BD306E0408B0B55849FD
:101910000A7E824201D10020B0BD0A6BDAB10446D2
:10192000534D28462146904700284FF0FF3018BFFE
:10193000B0BD504909682C7688610020C1E90000DB
:10194000064A52F8343002EBC4028B605268C1E997
:1019500003234A61B0BD4FF0FF30B0BD30700408C2
:10196000B0B54349CA7D824217D0CA6ABAB10446AB
:101970003F4D28462146904700284FF0FF3018BFC2
:10198000B0BDA11F3B4AB1FA81F112684909EC755B
:10199000C90090610846FBF745FA0020B0BD4FF042
:1019A000FF30B0BD2DE9F843DFF8C490804699F8C8
:1019B0001710304C0629206801D12F4E05E0D0E9E0
:1019C00002125143022291FBF2F6C76900212B4813
:1019D0000160F2F7BFFD05463920F3F781F828488A
:1019E00002213A463346F1F7B9F840F6B837254EAA
:1019F0003068C0070AD0F2F7ADFD401BB842F7D3FC
:101A00002148F1F769FB4FF0FF302DE01E4D2846CD
:101A1000F1F762FB28B2F3F751F899F81700C11EED
:101A2000022902D22068022110E002280FD120688A
:101A30000022C16904E011F81200885401322068C4
:101A4000D0E902377B439A42F5D301218161B8F195
:101A5000000F08D02068D0E90212D0E9063088E8EB
:101A60000E00C8F80C00002001B0BDE8F08300BFF4
:101A700090A6002000000020F0FF030030A5002009
:101A8000089E002000000248D09E00202DE9F84F5B
:101A90000446407892460E460DF103021321FBF7EF
:101AA000B3F89DF8031032466378002E01F0FE0172
:101AB00018BF012207460A4413211846FBF7E0F835
:101AC000002E47EA000764D1BAF1000F61DB6078AD
:101AD0000DF10308DFF8909212214246C8479DF8A5
:101AE000031040EA07054FF41077480658BF4FF43B
:101AF0004477607801F003060D214246012E18BF9D
:101B00000226C8479DF8031045EA000B01F0C0000B
:101B1000B0FA80F25509402808BF0425802808BF84
:101B200006256078BF294FF0110188BF082542467D
:101B3000C8479DF803104BEA00084A0604D47E20EB
:101B400000EA4100023000E001208949B1FBF0F0D9
:101B500088496843B0FBF1F04FF6FF7100FB0AF0D3
:101B600090FBF6F090FBF7F08842B8BF014621EAFF
:101B7000E1756078EAB21021FBF782F86378C5F36B
:101B8000072248EA000408211846FBF779F844EADE
:101B90000007384601B0BDE8F08F00BF2DE9FE4FC9
:101BA000044640780DF10B0790460D46FF213A465A
:101BB000FBF72AF8637806469DF80B10184641F0AB
:101BC0000102FF21FBF75CF86278064313211046FF
:101BD0003A46FBF719F89DF80B102A460643607841
:101BE00001F0FE01002D18BF01220A441321FBF76A
:101BF00047F8002D46EA000740F0B180B8F1000F29
